:100000000C9409010C9431010C9431010C943101D0
:100010000C9431010C9431010C94B2030C94310115
:100020000C9431010C9431010C9431010C94310188
:100030000C9431010C9431010C9431010C94310178
:100040000C94701B0C9431010C94461E0C94781E79
:100050000C9431010C9431010C9431010C94310158
:100060000C94DA050C943101BA07D107D107CE07F9
:10007000D107B807D107D107D107AC07D107D107FE
:10008000C107CC07CA07D107D107D107C807466502
:100090006220203820323031360032333A34353A5B
:1000A0003139001F1C1F1E1F1E1F1F1E1F1E1F7CFD
:1000B0003C3E5E2B3D3F2F5B5D3B2C2A225C0000CB
:1000C0000000080002010000030407000000000017
:1000D0000000000102040810204080010204081002
:1000E000200102040810200404040404040404028F
:1000F00002020202020303030303030000000025BF
:100100000028002B0000000000240027002A000027
:10011000407A10F35A00A0724E18090010A5D4E8D6
:100120000000E87648170000E40B54020000CA9A69
:100130003B000000E1F505000080969800000040BB
:10014000420F000000A08601000000102700000000
:1001500000E803000000006400000000000A000046
:100160000000000100000000002C76D888DC674FFA
:100170000823DFC1DFAE59E1B1B796E5E3E453C62A
:100180003AE651997696E8E6C28426EB898C9B6222
:10019000ED407C6FFCEFBC9C9F40F2BAA56FA5F4CC
:1001A00090055A2AF75C936B6CF9676DC11BFCE0F4
:1001B000E40D47FEF520E6B500D0ED902E03009447
:1001C0003577050080841E080000204E0A000000DC
:1001D000C80C333333330F986E12831141EF8D21E6
:1001E00014893BE65516CFFEE6DB18D1844B381B4D
:1001F000F77C1D901DA4BBE424203284725E228112
:1002000000C9F124ECA1E53D2700F0044F0C940F48
:10021000A81E11241FBECFEFD8E0DEBFCDBF11E076
:10022000A0E0B1E0E8E2FDE402C005900D92A63C3A
:10023000B107D9F725E0A6ECB1E001C01D92AA38BC
:10024000B207E1F712E0C2E1D2E004C02297FE015A
:100250000E943321CA30D107C9F70E94F3200C94C1
:1002600092260C9400000F931F93CF93DF9300D03E
:1002700000D000D0CDB7DEB70AE010E061E089E041
:100280000E94CB1C68E270E080E090E00E94E91BD5
:1002900060E089E00E94CB1C68E270E080E090E0C2
:1002A0000E94E91B0150110949F786EC91E00E9478
:1002B0002D08811120C06BE071E089EE94E00E946E
:1002C0004D1F04E110E061E089E00E94CB1C68EC66
:1002D00070E080E090E00E94E91B60E089E00E940D
:1002E000CB1C68EC70E080E090E00E94E91B0150BC
:1002F000110949F7FFCF86EC91E00E94620988233B
:1003000091F06DE171E089EE94E00E944D1F4AE9A1
:1003100050E06EE870E0CE0101960E947E07CE01AB
:1003200001960E94DA0860E086E00E94CB1C61E042
:1003300086E00E94921C60E086E00E94CB1C67E091
:100340008BE892E00E94A80A8823D1F026E040E8DA
:1003500055E260E070E089EE94E00E94E41D87ECD5
:1003600091E00E945D0486EC91E00E942D088111CD
:1003700028C06BE071E089EE94E00E944D1F20C020
:1003800060E471E089EE94E00E944D1F04E110E00A
:1003900061E089E00E94CB1C68EC70E080E090E0B6
:1003A0000E94E91B60E089E00E94CB1C68EC70E0D1
:1003B00080E090E00E94E91B0150110949F7C6CF87
:1003C000FFCF61E084E00E94921C61E088E00E941F
:1003D000921C61E084E00E94CB1C61E089E00E94F5
:1003E000921C61E088E00E94921C26960FB6F89459
:1003F000DEBF0FBECDBFDF91CF911F910F9108954A
:10040000CF92DF92EF92FF920F931F93CF93DF93E0
:10041000CDB7DEB72C970FB6F894DEBF0FBECDBFB9
:100420008C016A014AE0CE0107960E94202068EB09
:1004300071E0CE0101960E94F21F8B859C858C1580
:100440009D0518F4E12CF12C04C0BE01695F7F4FBB
:100450001CC08B859C859601281B390BE216F30680
:1004600050F46CE571E0CE0101960E947F202FEFE1
:10047000E21AF20AEECFBE01695F7F4FCE0101960C
:100480000E947820BE016F5F7F4FC8010E945F1FEE
:10049000CE0101960E94841FCE0107960E94841F00
:1004A000C8012C960FB6F894DEBF0FBECDBFDF910A
:1004B000CF911F910F91FF90EF90DF90CF90089513
:1004C000CF92DF92EF92FF920F931F93CF93DF9320
:1004D000CDB7DEB7E1970FB6F894DEBF0FBECDBF44
:1004E00060E088E00E94CB1C60E084E00E94CB1CAE
:1004F00081E10E944C1C7C0161E084E00E94CB1CE5
:100500008EE00E944C1C6C01CE018C960E94330838
:10051000CE018C960E94FF0768EB71E0CE018696B3
:100520000E94F21FCE018C960E94FF07AB01BC0116
:10053000CE0186960E94C0206EE571E0CE018696BF
:100540000E947F206CA570E06053784FCE018696A4
:100550000E948F2060E671E0CE0186960E947F2087
:100560006DA570E042E050E0CE0101960E940002CD
:10057000BE016F5F7F4FCE0186960E947820CE012C
:1005800001960E94841F60E671E0CE0186960E946B
:100590007F206EA570E042E050E0CE0101960E94FF
:1005A0000002BE016F5F7F4FCE0186960E947820C9
:1005B000CE0101960E94841F62E671E0CE0186960C
:1005C0000E947F206FA570E042E050E0CE010196CE
:1005D0000E940002BE016F5F7F4FCE0186960E948F
:1005E0007820CE0101960E94841F64E671E0CE015E
:1005F00086960E947F2068A970E042E050E0CE011C
:1006000001960E940002BE016F5F7F4FCE01869669
:100610000E947820CE0101960E94841F64E671E05A
:10062000CE0186960E947F2069A970E042E050E0EA
:10063000CE0101960E940002BE016F5F7F4FCE0186
:1006400086960E947820CE0101960E94841F6EE556
:1006500071E0CE0186960E947F208E01045E1F4FBE
:1006600022E045E060E070E0CB010E945121BC0136
:10067000CE0186960E947F206EE571E0CE018696BF
:100680000E947F204AE0B601CE0101960E94202000
:10069000BE016F5F7F4FCE0186960E947820CE010B
:1006A00001960E94841F6EE571E0CE0186960E943D
:1006B0007F204AE0B701CE0101960E942020BE01B2
:1006C0006F5F7F4FCE0186960E947820CE01019603
:1006D0000E94841FBE016A5D7F4F89EE94E00E94F4
:1006E0003B1F23E146E651E06BE872E0CE01019644
:1006F0000E94C10BCE0101960E949B0A8823C9F07B
:10070000BE016A5D7F4FCE0101960E943B1FCE0164
:1007100001960E94890A61E089E00E94CB1C68E290
:1007200070E080E090E00E94E91B60E089E00E94B8
:10073000CB1C60E47FE180E090E00E94E91BCE01E9
:1007400086960E94841FE1960FB6F894DEBF0FBE16
:10075000CDBFDF91CF911F910F91FF90EF90DF9070
:10076000CF9008951F920F920FB60F9211248F937E
:1007700088E10FB6F89480936000109260000FBE7D
:100780008F910F900FBE0F901F9018958091F701D9
:1007900090E02091F801821B910908952091F801C1
:1007A0008091F701281750F4E22FF0E0E750FE4F58
:1007B000808190E02F5F2093F80108958FEF9FEFE5
:1007C0000895E091F8018091F701E81730F4F0E026
:1007D000E750FE4F808190E008958FEF9FEF0895DE
:1007E0000895CF92DF92EF92FF920F931F93CF93D2
:1007F000DF937C01CB018A012091D301222389F070
:10080000EB016B01C40ED51ECC15DD0569F06991B5
:10081000D701ED91FC910190F081E02DC701099580
:10082000F3CF642F0E94B105C801DF91CF911F91D2
:100830000F91FF90EF90DF90CF900895CF93DF93CB
:100840001F92CDB7DEB769832091D3012223D1F067
:100850002091D401203240F021E030E0FC013383CC
:10086000228380E090E015C08091D501E82FF0E070
:10087000EA52FE4F998190838F5F8093D5018093D8
:10088000D40105C061E0CE0101960E94B10581E06E
:1008900090E00F90DF91CF910895FC0113821282B6
:1008A00048EE53E060E070E04483558366837783CD
:1008B00080E891E09183808308951092F80110926E
:1008C000F7011092D5011092D4010C94F40481E048
:1008D0008093D3016093F6011092D5011092D40158
:1008E00008950C9467040F93062F21E04091D401E2
:1008F00066ED71E08091F6010E945A051092D501D3
:100900001092D4011092D3010F9108958F929F926B
:10091000AF92BF92CF92DF92EF92FF920F931F930D
:10092000CF93DF93EC01F62ED42E48015901EE202F
:1009300019F10E9467041E2D143008F013E01150C5
:10094000B8F0E881F98128E0129FB0011124A501D7
:10095000940104C056954795379527956A95D2F727
:10096000CA01B9010190F081E02DCE010995E7CFD0
:1009700060E0CE010E9473044D2D413208F040E248
:100980002C2D69EF71E08F2D0E9412051092F80155
:100990008093F701DF91CF911F910F91FF90EF901E
:1009A000DF90CF90BF90AF909F908F900895CF929F
:1009B000EF920F931F93C22EE12C00E010E09801FC
:1009C0000E9486041F910F91EF90CF90089521E02F
:1009D0000C94D70421E00C94D70461E00C947304C8
:1009E00087EC91E00C944D041092860281E0809394
:1009F00084021092830261E082E10E94CB1C61E0DC
:100A000083E10E94CB1CE9EBF0E080818E7F808344
:100A100080818D7F808388E48093B80085E4809313
:100A2000BC000895413208F043C0909186029111B4
:100A3000FCCF91E090938602209384022FEF2093C5
:100A4000190210925E02240F20935D02909385029A
:100A500090918502880F892B809385028091830273
:100A6000813061F410928302809185028093BB00F3
:100A70008091BC0083FDF8CF85EC01C085EE8093AA
:100A8000BC00809186028130E1F380915E02841780
:100A900010F440915E022FE532E0FB01D9018A2F6C
:100AA000821B841718F48D918193F9CF842F0895B8
:100AB00080E008950F93413208F04AC09091860279
:100AC0009111FCCF92E090938602009384029FEFF5
:100AD0009093190210925E0240935D02FB016FE554
:100AE00072E0DB019A2F961B941718F491919D9355
:100AF000F9CF1092850290918502880F892B8093FF
:100B0000850280918302813061F41092830280918A
:100B100085028093BB008091BC0083FDF8CF85ECFB
:100B200001C085EE8093BC00222321F080918602D3
:100B30008230E1F3809119028F3F61F080911902B8
:100B4000803251F080911902803341F483E007C074
:100B500081E005C080E003C082E001C084E00F9125
:100B60000895613298F420918602243089F46093CC
:100B70003B02FC018DE392E0DC012A2F281B2617A3
:100B800018F421912D93F9CF80E0089581E0089524
:100B900082E0089585ED8093BC008091BC0084FDC7
:100BA000FCCF10928602089585EC8093BC001092D1
:100BB000860208951F920F920FB60F9211242F9361
:100BC0003F934F935F936F937F938F939F93AF93D5
:100BD000BF93EF93FF938091B900887F803609F42B
:100BE0009EC078F5883209F45DC090F4803109F434
:100BF00056C038F4882309F4F5C0883009F44FC092
:100C0000F5C0883109F44EC0803209F45FC0EEC0EF
:100C1000803409F46AC058F4803309F457C088332B
:100C200009F0E4C0809319020E94D405DFC080352A
:100C300009F44FC0883509F45DC0883409F0D6C086
:100C4000D3C0883909F4C4C0A8F4883709F467C050
:100C500038F4883609F463C0803709F460C0C6C030
:100C6000883809F4B5C0803909F45FC0803809F0CC
:100C7000BDC05BC0803B09F483C038F4803A09F4FE
:100C800066C0883A09F47CC0B1C0803C09F4A4C0B5
:100C9000883C09F4A1C0883B09F487C0A7C08091B3
:100CA000850210C090915E0280915D02981770F5E8
:100CB000E0915E0281E08E0F80935E02F0E0E15AE7
:100CC000FD4F80818093BB0085EC83C08093190227
:100CD0008BC0E0915E0281E08E0F80935E02809176
:100CE000BB00F0E0E15AFD4F808390915E0280915D
:100CF0005D026BC0E0915E0281E08E0F80935E0228
:100D00008091BB00F0E0E15AFD4F80838091840226
:100D100081116AC081E08093830284EA5EC083E02F
:100D20008093860210921A02CFCF80911A028032ED
:100D300008F04EC0E0911A0281E08E0F80931A02F3
:100D40008091BB00F0E0E55EFD4F8083BDCF0E9447
:100D5000D40580911A02803230F4E0911A02F0E05A
:100D6000E55EFD4F108260911A0270E0E0917F0213
:100D7000F09180028BE192E0099510921A0236C040
:100D800084E08093860210923C0210923B02E09134
:100D90008102F0918202099580913B02811105C088
:100DA00081E080933B0210923D02E0913C0281E0A1
:100DB0008E0F80933C02F0E0E35CFD4F80818093D6
:100DC000BB0090913C0280913B02981708F47CCFC5
:100DD00085E88093BC000AC085EC8093BC0010922B
:100DE000860204C0109219020E94CA05FF91EF9179
:100DF000BF91AF919F918F917F916F915F914F9133
:100E00003F912F910F900FBE0F901F901895CF9389
:100E1000CFB7F89480918A02811127C0E1EFF0E00A
:100E20008491EDEDF0E09491E82FF0E0EE0FFF1FDC
:100E3000EB5FFE4FA591B4918C91892321F461E081
:100E40008AE00E94CB1C61E08AE00E94921C8CB573
:100E500080618CBD8CB580648CBD61E08DE00E94AA
:100E6000921C61E08BE00E94921C80918A028F5F4D
:100E700080938A02CFBFCF910895803D27E09207EB
:100E800010F0805D974050E0E3EAF0E021E02E1B97
:100E9000322F3E0F361728F43491430F511D3196EF
:100EA000F7CF633038F09C0123703327232B11F4E4
:100EB0004F5F5F4F6DE671E0869F9001879F300D19
:100EC000969F300D112421503109039696958795F0
:100ED00096958795280F391FC901840F951F08958E
:100EE000FC01208120532A3008F020E0FC018181A0
:100EF0008053FAE02F9F800D11240895CF92DF9246
:100F0000EF92FF920F931F93CF93DF93CDB7DEB78E
:100F10002B970FB6F894DEBF0FBECDBF7C016A01E0
:100F20004BE050E0CE0101960E946323CE010A9669
:100F30000E947007F70180830981112707FD109532
:100F4000212F312FF801E154F109E331F10548F582
:100F5000EC5CFF4F0C9431218A81813639F08B8112
:100F60008E3611F486E01BC087E019C081E017C0FF
:100F700082E015C08B81823711F484E010C088E0D4
:100F80000EC08B81823711F483E009C085E007C071
:100F900089E005C08AE003C08BE001C08CE0F70166
:100FA0008183CE0105960E947007F701828348E095
:100FB00050E0B601CE0101960E946323CE01019656
:100FC0000E947007F7018383CE0104960E94700788
:100FD000F7018483CE0107960E947007F70185838D
:100FE0002B960FB6F894DEBF0FBECDBFDF91CF9129
:100FF0001F910F91FF90EF90DF90CF900895CF93C6
:10100000DF93EC0188814A81698190E00E943D076D
:101010009C01A8E1B0E00E9437219B01AC018B81CB
:10102000280F311D411D511DACE3B0E00E94462147
:101030009B01AC018C81280F311D411D511D0E9467
:1010400046212D81620F711D811D911D60587C4BC1
:101050008249974CDF91CF91089587EC91E00E94EF
:101060005D0481E00895CF92DF92EF92FF920F939B
:101070001F93CF93DF93EC0168E670E087EC91E07B
:101080000E94710460E087EC91E00E941E0487ECEE
:1010900091E00E94ED0447E050E068E670E087ECE4
:1010A00091E00E94EA0487EC91E00E94CE038F77E2
:1010B000982F92959F701AEF082F919F000D112481
:1010C00087EC91E00E94CE039C01332794E0359594
:1010D00027959A95E1F7F82E129FF00C112487ECD2
:1010E00091E00E94CE039C01332744E0359527957B
:1010F0004A95E1F7E82E129FE00C112487EC91E06D
:101100000E94CE0387EC91E00E94CE039C0133271E
:1011100054E0359527955A95E1F7D82E129FD00CBB
:10112000112487EC91E00E94CE039C01332764E0F8
:10113000359527956A95E1F7C82E129FC00C1124AA
:1011400087EC91E00E94CE039C01332774E0359533
:1011500027957A95E1F7129F800D11248883C98223
:10116000DA82EB82FC820D83CE01DF91CF911F9159
:101170000F91FF90EF90DF90CF900895CF93C82FFD
:1011800068E687EC91E00E9467046C2F87EC91E0A1
:101190000E941E0487EC91E00E94ED0441E068E6A5
:1011A00087EC91E00E94E70487EC91E00E94CE0377
:1011B000CF9108951F93CF93DF93EC0168E670E021
:1011C00087EC91E00E94710460E087EC91E00E945E
:1011D0001E042D811AE0822F612F0E940321682FA7
:1011E000660F680F660F620F87EC91E00E941E0485
:1011F0002C81822F612F0E940321682F660F680FB8
:10120000660F620F87EC91E00E941E042B81822FF3
:10121000612F0E940321682F660F680F660F620F0F
:1012200087EC91E00E941E0460E087EC91E00E9450
:101230001E042A81822F612F0E940321682F660FCE
:10124000680F660F620F87EC91E00E941E042981EF
:10125000822F612F0E940321682F660F680F660F8F
:10126000620F87EC91E00E941E042881822F612F7B
:101270000E940321682F660F680F660F620F87ECCC
:1012800091E00E941E0487EC91E00E94ED048FE043
:101290000E94BE08C82F68E687EC91E00E946704B0
:1012A0006FE087EC91E00E941E046C2F6F7787EC53
:1012B00091E00E941E0487EC91E0DF91CF911F9195
:1012C0000C94ED048FE00E94BE0887FB882780F90C
:1012D0000895CF93DF931F92CDB7DEB76983DC010A
:1012E000ED91FC910280F381E02D41E050E0BE01E0
:1012F0006F5F7F4F09950F90DF91CF910895CF9346
:10130000DF93EC01898D9A8D009759F0FC011382CF
:1013100012820E941515E98DFA8D22813381232BCB
:1013200031F081E090E09B838A8380E090E0DF9160
:10133000CF910895FC01818D928D009711F00C944E
:10134000B5120895CF93DF931F92CDB7DEB741E07A
:1013500050E0BE016F5F7F4F0E94C610019719F4E5
:10136000898190E002C08FEF9FEF0F90DF91CF91C6
:101370000895FC01818D928D009711F00C94A209C3
:101380008FEF9FEF08950F931F93CF93DF938C01FF
:10139000FC01818D928D0097B9F00E94A209EC01A9
:1013A0008F3FFFEF9F0799F0F801818D928DFC012F
:1013B00042855385648575854150510961097109DC
:1013C0000E941912CE0105C080E090E002C08FEFAC
:1013D0009FEFDF91CF911F910F910895CF92DF92F0
:1013E000EF92FF920F931F93CF93DF93EC017B015A
:1013F0006A011B821A8208EE13E020E030E00C83C1
:101400001D832E833F8380E991E0998388838DE15A
:1014100090E00E9472219A8F898F009779F02DE1D8
:10142000F701DC0101900D922A95E1F74CE050E0C4
:10143000B601CE010C960E949423188EDF91CF91B5
:101440001F910F91FF90EF90DF90CF900895FC01D6
:101450001382128248EE53E060E070E044835583CB
:101460006683778380E991E091838083128E118E69
:1014700014860895DC015996ED91FC915A973097A6
:1014800029F0628573858485958508956FEF7FEFD8
:10149000CB010895DC015996ED91FC915A97309754
:1014A00029F06389748985899689089560E070E0E0
:1014B000CB010895CF92DF92EF92FF92CF93DF930B
:1014C000EC01898D9A8D892BD9F0CE010E944A0AB0
:1014D0006B017C01CE010E943A0AA7019601261BEE
:1014E000370B480B590BDA01C901811530E8930716
:1014F000A105B10538F08FEF9FE7A0E0B0E002C092
:1015000080E090E0DF91CF91FF90EF90DF90CF905F
:101510000895CF93DF93EC01898D9A8D009741F068
:101520000E94FC12898D9A8D0E940A221A8E198EB1
:10153000DF91CF910895DC015996ED91FC915A9776
:10154000309721F081E09581911101C080E00895EC
:101550000F931F93CF93DF93EC01462F61E00E941E
:101560008C0D811102C080E01DC08E01045F1F4FF1
:1015700041E0BE01C8010E945C1A882359F0B801FD
:10158000CE018A960E94761091E0811101C090E010
:10159000892F08C040E0BE01C8010E945C1A882360
:1015A00011F3EDCFDF91CF911F910F910895FC01C1
:1015B000DB0112968D919C9113979383828382EA2B
:1015C00091E09183808314968C911497848315966F
:1015D0008C911597858316964D915D916D917C91B7
:1015E000199746835783608771871A964D915D914D
:1015F0006D917C911D9742875387648775871E96EE
:101600004D915D916D917C91519746875787608B85
:10161000718B52968C915297828B53964D915D911E
:101620006D917C915697438B548B658B768B579637
:101630004D915D916D917C915A97478B508F618F41
:10164000728F5B968D919C915C97948F838F089598
:101650004F925F926F927F928F929F92AF92BF92C2
:10166000CF92DF92EF92FF920F931F93CF93DF936E
:10167000CDB7DEB7C754D1090FB6F894DEBF0FBEA1
:10168000CDBF6C014A013901665D7F4F5E018EE17D
:10169000A80EB11CC5010E94D70A1C821B8282EAD7
:1016A00091E09A8389831E828401FE0131967F0135
:1016B0005A2C4B2C6FE270E0C8010E9482230097E5
:1016C000E9F1F80120812F3219F40F5F1F4FF2CF9B
:1016D000801B8D3008F08CE0A82EB12CA501B8013C
:1016E000CE01CB960E949423EBE3F0E0EC0FFD1FBC
:1016F000EA0DFB1D1082C7010E94FC1221E0AE0121
:10170000455C5F4F652D742DC7010E943014811117
:1017100009C0F6011382128282EA91E091838083EC
:10172000158216C00A0D1B1D852D942D0E94FC12DA
:10173000C2015E2C4F2CE92EF82EBCCF08191909D6
:10174000F30111830083652D742DC6010E94D70A11
:10175000C601C95BDF4F0FB6F894DEBF0FBECDBF29
:10176000DF91CF911F910F91FF90EF90DF90CF907D
:10177000BF90AF909F908F907F906F905F904F90B1
:1017800008959F92AF92BF92CF92DF92EF92FF9215
:101790000F931F93CF93DF93CDB7DEB7C955D10910
:1017A0000FB6F894DEBF0FBECDBF7C016B015A01AE
:1017B000922E9E01285A3F4FCE01CB960E94280BB5
:1017C0006A960EAD1FAD6A970A0D1B1DF801808148
:1017D00081110AC0BE01655C7F4FCE0101960E9457
:1017E000D70A4CE951E041C019A218A282EA91E05F
:1017F0009F8F8E8F1BA221968FAD2197811104C0E0
:10180000C7010E94270A37C08250823060F4B601B7
:10181000665D7F4F292DA801CE014E960E9430149F
:10182000811110C0EDCF292DA801BE01655C7F4F4D
:10183000CE014E960E943014882311F3CE01CB9630
:101840000E94FC12892D867041F049A95AA96BA902
:101850007CA9CE014E960E941912BE01625E7F4F96
:10186000CE0101960E94D70AA801BE016F5F7F4F8B
:10187000C7010E94EE09C701C75ADF4F0FB6F8949F
:10188000DEBF0FBECDBFDF91CF911F910F91FF90B3
:10189000EF90DF90CF90BF90AF909F9008951092FF
:1018A000900210929102109294021092960282E09D
:1018B00090E0A0E0B0E08093970290939802A0930C
:1018C0009902B0939A021092AE021092B80210924E
:1018D000B70282EA91E09093B6028093B50210922B
:1018E000BA0208959FB7F8942091890280918702E7
:1018F000213019F48DBB9FBF08958FBF08952091AB
:101900008902222399F03FB7F8942091890221306F
:1019100059F42DB3209387024DB32091880220956E
:1019200024232DBB3FBF02C0309387028CBD9DBDD9
:1019300008958EBD00000DB407FEFDCF8EB508954D
:101940008FEF0C94990C61E0FC0184810E94CB1C08
:101950008091D402882339F01092D40280918902B8
:1019600081110C94720C0895CF93DF93EC01809158
:10197000D402811109C081E08093D4028091D50204
:101980009091D6020E947F0C60E08C81DF91CF9114
:101990000C94CB1CCF93DF93EC018E81882389F0CC
:1019A0008F8198859C012F5F3F4F38872F8382302E
:1019B000924018F40E94A00CF3CFCE010E94A30C19
:1019C0001E82DF91CF910895673028F026E1FC0157
:1019D000258380E00895623081F030F4662359F069
:1019E0006130B1F480E515C0643059F040F06530E5
:1019F00079F482E50EC080E505C081E503C081E58C
:101A000008C082E58093D50281E08093D6020895D4
:101A100083E58093D5021092D60281E008950F935A
:101A20001F93CF93DF93EB010E94BA1B8B010E949F
:101A3000A00C8F3F49F00E94BA1B601B710B6C1702
:101A40007D07A8F380E001C081E0DF91CF911F9175
:101A50000F910895CF92DF92FF920F931F93CF9330
:101A6000DF9300D000D0CDB7DEB76C01F62E29830E
:101A70003A834B835C830E94CA0CC6010E94B40C5B
:101A80006CE271E0C6010E940F0D8F2D80640E94F0
:101A9000990C08E110E05C814B813A812981DA01DF
:101AA000C901002E04C0B695A795979587950A940D
:101AB000D2F729833A834B835C830E94990C0850A8
:101AC000110929813A814B815C81083F8FEF18070A
:101AD00031F7FF2029F0E8E0FE1621F08FEF03C078
:101AE00085E901C087E80E94990C10E00E94A00CD3
:101AF000F601828787FF04C01F3F11F01F5FF6CFFA
:101B00000F900F900F900F90DF91CF911F910F9139
:101B1000FF90DF90CF900895BF92CF92DF92EF9227
:101B2000FF920F931F93CF93DF93EC01B62E1B868A
:101B300019861E821D824C830E94BA1B8B0161E0B4
:101B40008C810E94921C61E08C810E94CB1C0E94BF
:101B5000070782E58093D5021092D6028091D502C4
:101B60009091D6020E947F0C2AE0F22E8FEF0E9405
:101B7000990CFA94D9F78091890281110E94720C14
:101B8000CE010E94B40C20E030E0A90160E0CE015B
:101B90000E942A0DF82E8A8781E0F81649F00E94EB
:101BA000BA1B601B710B613D774068F381E04BC04D
:101BB0002AEA31E040E050E068E0CE010E942A0DC0
:101BC00082FF02C0FB860DC094E0F92E0E94A00C9B
:101BD0008A87FA94D9F78A3A11F082E034C082E019
:101BE0008B878B85823031F4C12CD12CE12C80E4A1
:101BF000F82E03C0C12CD12C760120E030E0A901E1
:101C000067E3CE010E942A0DA701960169E2CE0189
:101C10000E942A0D8A87882349F00E94BA1B601B04
:101C2000710B613D774048F388E00DC08B858230B1
:101C300031F520E030E0A9016AE3CE010E942A0DCF
:101C4000882381F086E08D83CE010E94A30C80E082
:101C5000DF91CF911F910F91FF90EF90DF90CF9088
:101C6000BF9008950E94A00C807C803C11F483E01A
:101C70008B870E94A00C0E94A00C0E94A00CCE0199
:101C80000E94A30C6B2DCE01DF91CF911F910F917C
:101C9000FF90EF90DF90CF90BF900C94E40C0F93E7
:101CA0001F93CF93DF93EC010E94BA1B8B010E941C
:101CB000A00C8A878F3F49F40E94BA1B601B710BEE
:101CC0006D327140A0F38FE003C08E3F39F08DE09C
:101CD0008D83CE010E94A30C80E001C081E0DF91E2
:101CE000CF911F910F910895CF92DF92EF92FF92C3
:101CF0000F931F93CF93DF93EC0169010115110539
:101D000009F462C0C801820F931F8130924008F02D
:101D10005DC08E81882371F088819981AA81BB8101
:101D2000481759076A077B0729F48F819885C816D9
:101D3000D90610F5488359836A837B838B8583306A
:101D400039F039E0440F551F661F771F3A95D1F7D8
:101D50009A01AB0161E1CE010E942A0D882319F09E
:101D600083E08D8333C0CE010E944F0E882371F132
:101D700018861F8281E08E838F8198858C159D0542
:101D800040F40E94A00C8F819885019698878F83DC
:101D9000F3CF6701E00EF11ECE14DF0431F00E9494
:101DA000A00CF60181936F01F7CF8F819885800F8A
:101DB000911F98878F832985222319F081159240DE
:101DC00018F0CE010E94CA0C81E004C0CE010E942E
:101DD000A30C80E0DF91CF911F910F91FF90EF90C6
:101DE000DF90CF900895EF92FF920F931F937901A8
:101DF00000E012E020E030E00E94740E1F910F918D
:101E0000FF90EF900895CF92DF92EF92FF920F93A1
:101E10001F93CF93DF9300D0CDB7DEB78C01862F11
:101E200049835A830E94990C4981C42E5A81D52E28
:101E3000E12CF12CF60181916F010E94990CFFEFCA
:101E4000EF1AFF0AE11482E0F806A1F78FEF0E9473
:101E5000990C8FEF0E94990C0E94A00CF8018287C8
:101E60008F71853039F081E18583C8010E94A30C10
:101E700080E001C081E00F900F90DF91CF911F9122
:101E80000F91FF90EF90DF90CF9008950F931F93E5
:101E9000CF93DF93EC01890141155105610571056F
:101EA00011F482E132C08B85833039F089E0440F30
:101EB000551F661F771F8A95D1F79A01AB0168E11C
:101EC000CE010E942A0D882311F084E01EC0A801D3
:101ED0006EEFCE010E94030F8823C1F068E572E027
:101EE000CE010E940F0D811102C085E10EC020E0DD
:101EF00030E0A9016DE0CE010E942A0D811104C0DD
:101F00000E94A00C882339F084E18D83CE010E94C9
:101F1000A30C80E004C0CE010E94A30C81E0DF91FD
:101F2000CF911F910F91089580E58093D502109273
:101F3000D6020895CF93DF93EC019C012A5F3F4FB7
:101F400041E050E060E070E08B8D9C8D0E94F118C4
:101F50008823A1F04F89588D698D7A8D452B462BAA
:101F6000472B71F44E815F81688579854F8B588F3F
:101F7000698F7A8F8C8180688C8302C080E001C079
:101F800081E0DF91CF910895CF92DF92EF92FF929F
:101F90001F93CF93DF93EC010E949A0F811102C02F
:101FA00080E04BC0EB8DFC8DCE80DF80E884F9842F
:101FB00082E0C81AD108E108F108058404C0CC0CFD
:101FC000DD1CEE1CFF1C0A94D2F7468557856089FC
:101FD0007189C40ED51EE61EF71E148181E0C81A51
:101FE000D108E108F108112361F0C701B601610FC2
:101FF000711D811D911D0E943B17882389F211508C
:10200000F2CFEB8DFC8DC12C82E0D82EE12CF12C8F
:10201000058404C0CC0CDD1CEE1CFF1C0A94D2F716
:102020004B895C896D897E894C0D5D1D6E1D7F1D00
:102030004B8B5C8B6D8B7E8B81E0DF91CF911F9101
:10204000FF90EF90DF90CF900895CF93DF93EC0156
:10205000462F6E857F85888999890E94001788237D
:1020600041F08A8920E2829FC001112480529D4F55
:1020700002C080E090E0DF91CF910895282FFB010E
:102080008BE030E231938150E9F7A22FB92F20E0A5
:1020900037E09D91992319F19E3219F0EFEAF0E0B3
:1020A00008C03A3011F128E03AE0F3CF31964917F1
:1020B000E1F044914111FACF3217B8F04FED490FDA
:1020C0004E3598F441E0420FFB01E20FF11D2FE97C
:1020D000290F2A3108F490529083242FDACF81E01F
:1020E000FB019081903209F480E008950F931F93D3
:1020F000CF93DF93EC018B018D81882311F080E079
:1021000040C0FB0187898031B1F482E08D831F8A52
:10211000188E198E1A8E408D518D60E070E095E01A
:10212000440F551F661F771F9A95D1F74B8B5C8B19
:102130006D8B7E8B15C0803211F783E08D83FB01A0
:10214000428D538D648D758D4F8B588F698F7A8F2B
:102150009E012D5E3F4FC8010E94E517882379F24A
:102160001C8F0B8F81E08C831E821F82188619863C
:102170001A861B861C861D861E861F86188A198A4B
:102180001A8ADF91CF911F910F9108952F923F925C
:102190004F925F926F927F928F929F92AF92BF9277
:1021A000CF92DF92EF92FF920F931F93CF93DF9323
:1021B000EC016B015A018D81811103C08FEF9FEFFC
:1021C000DAC08C8180FFFACF4B895C896D897E896A
:1021D0008A859B85AC85BD852501612C712C8A0182
:1021E0009B01081B190B2A0B3B0B04151505260533
:1021F000370518F45A01A81AB90A25011E0126E06C
:10220000220E311C4114510409F47BC04A855B85C0
:102210006C857D854A0181E09822ED818A019B01D0
:10222000F9E03695279517950795FA95D1F78B8D97
:102230009C8DE23051F4FC01628D738D848D958DFF
:10224000600F711F821F931F3EC0FC0174807A943F
:10225000702281149104C9F4711017C0452B462BCC
:10226000472B49F48F89988DA98DBA8D8E839F83D2
:10227000A887B9870AC04E815F81688579859101F9
:102280000E946117882309F499CFEB8DFC8D6E8134
:102290007F8188859985625071098109910905843A
:1022A00004C0660F771F881F991F0A94D2F706850E
:1022B000178520893189600F711F821F931F670D59
:1022C000711D811D911D20E032E02819390932016C
:1022D0002415350508F439012C8126FD04C061144C
:1022E000F2E07F06A1F5009106011091070120910F
:1022F000080130910901601771078207930719F4EB
:1023000026C0C50138C0760183019401AB01BC0130
:102310008091DE029091DF020E94740E882309F4FE
:102320004DCFC60CD71C04C0E81BF90BCE0EDF1E28
:102330008A859B85AC85BD85860D971DA11DB11D28
:102340008A879B87AC87BD87461857085BCF40E0DC
:102350000E940017882309F431CFC40180529D4F99
:10236000D6019C01260D371DFC01E217F307E1F2AF
:1023700041914D93FACFDF91CF911F910F91FF9033
:10238000EF90DF90CF90BF90AF909F908F907F9015
:102390006F905F904F903F902F900895FF920F9312
:1023A0001F93CF93DF931F92CDB7DEB78C01FC0153
:1023B0008581823018F480E090E034C0F8014285D5
:1023C000538564857585A5E07695679557954795FE
:1023D000AA95D1F7F42FFF70FF2E41E050E0BE0127
:1023E0006F5F7F4FC8010E94C610019719F42981C1
:1023F00030E002C02FEF3FEF2F3F3F4FE1F2F801F7
:102400004285538564857585415E5F4F6F4F7F4F71
:102410004287538764877587F0E2FF9EC0011124CD
:1024200080529D4F0F90DF91CF911F910F91FF90A0
:1024300008954F925F926F927F92AF92BF92CF9228
:10244000DF92EF92FF920F931F93CF93DF93EC01F4
:102450006A017B012D81222309F457C08B899C8955
:10246000AD89BE8984179507A607B70708F44DC044
:102470004EC08A859B85AC85BD85EB8DFC8DE58541
:10248000F0E03996AC01BD01415051096109710973
:102490000E2E04C076956795579547950A94D2F706
:1024A00097018601015011092109310904C03695AF
:1024B000279517950795EA95D2F70417150726076C
:1024C0003707B0F58F89988DA98DBA8D8E839F833C
:1024D000A887B987280139015E0186E0A80EB11CE2
:1024E000411451046104710461F14E815F8168857A
:1024F000798595018B8D9C8D0E94611791E0491A19
:102500005108610871088111EBCF80E01FC02230B3
:10251000C1F0C114D104E104F10409F0AACF1E8274
:102520001F82188619861A861B861C861D860DC07A
:10253000892B8A2B8B2B31F2041B150B260B370BA7
:10254000C9CFCA86DB86EC86FD8681E0DF91CF911C
:102550001F910F91FF90EF90DF90CF90BF90AF90C1
:102560007F906F905F904F9008950F931F93CF933C
:10257000DF93EC018D818823C9F18C8187FF30C006
:1025800061E0CE010E9425108C01009779F18D81C8
:10259000823048F44B895C896D897E89F801448FCB
:1025A000558F668F778F4F89588D698D7A8DF80199
:1025B000538F428F758B648BE091D702F091D802D4
:1025C000309759F0B8016A5E7F4FC8014896099567
:1025D000F801808D918D938B828B8C818F778C838A
:1025E000DF91CF911F910F910C94C51680E0DF9180
:1025F000CF911F910F910895CF93DF93EC010E942B
:10260000B512882319F01D8281E001C080E0DF91BE
:10261000CF9108954F925F926F927F92AF92BF9247
:10262000CF92DF92EF92FF920F931F93CF93DF939E
:1026300000D000D0CDB7DEB75C016A017B01FC01A0
:1026400085818130F1F4848181FF1BC0F50183898C
:102650009489A589B68984179507A607B70788F0D6
:10266000892B8A2B8B2B09F479C0F5014284538482
:1026700064847584B701A601C5010E9419128111F5
:1026800002C080E06CC0F501838D948DC114D1042B
:10269000E104F10471F44789508D618D728D0E94BF
:1026A000061A882371F3F501178A108E118E128E87
:1026B0003AC0F50146815781608571859E012F5F83
:1026C0003F4F0E9461178823E1F249815A816B8153
:1026D0007C81F501838D948DFC012789203129F4BB
:1026E00008EF1FEF20E030E004C008EF1FEF2FEFEE
:1026F0003FE04017510762077307A8F40E94061ACB
:10270000882309F4BECFF501468157816085718524
:102710000FEF1FEF2FEF3FE0838D948D0E94501835
:10272000882309F4AECFF501C38AD48AE58AF68AF4
:10273000848180688483C5010E94B512882309F4CE
:10274000A0CFB701A6014C145D046E047F0410F401
:10275000B301A201C5010E94191201C081E00F90CE
:102760000F900F900F90DF91CF911F910F91FF90DD
:10277000EF90DF90CF90BF90AF907F906F905F9081
:102780004F900895FF920F931F93CF93DF93EC0127
:10279000F42E80E2689FF0011124E052FD4F838502
:1027A000817129F0842F827411F080E053C06A8B0C
:1027B0008091060190910701A0910801B091090153
:1027C0008E879F87A88BB98B4489558960E070E01C
:1027D000BA0155274427028D138D20E030E0402BAD
:1027E000512B622B732B4F8B588F698F7A8F838578
:1027F000887151F4048D158D268D378D0B8B1C8BB4
:102800002D8B3E8B81E00CC0803179F69E012D5ED0
:102810003F4F8B8D9C8D0E94E517882331F284E019
:102820008D838F2D8F708C831E821F821886198650
:102830001A861B861C861D86F6FE0BC040E050E003
:10284000BA01CE01DF91CF911F910F91FF900C94AF
:102850000A1381E0DF91CF911F910F91FF900895AE
:10286000AF92BF92CF92DF92EF92FF920F931F939E
:10287000CF93DF93CDB7DEB72B970FB6F894DEBFBB
:102880000FBECDBF7C016B01CA01B22EF7012581BD
:102890002111B9C0BE016F5F7F4F0E943E10882397
:1028A00009F4B1C0F601838D948DF701948F838F65
:1028B000F6011682178210861186128613861486F8
:1028C0001586A12CF601028513852485358583891B
:1028D0009489A589B689081719072A073B07E8F5DF
:1028E00045E036952795179507954A95D1F70F70CE
:1028F000C6010E94CE11009709F485C0FC01208119
:10290000222311F0253EB9F4A1100EC0F701028B6D
:1029100040910601509107016091080170910901F1
:1029200046875787608B718BFC018081AA24A39412
:102930008111C8CF12C04BE050E0BC01CE0101961E
:102940000E946C23892B09F0BDCF8B2D80738033BF
:1029500009F459C04B2D602F52C08B2D82718231EA
:1029600009F051C0AA2041F061E0C7010E94251082
:102970008C01009779F447C0F6018581823009F413
:1029800042C0C6010E94C40F8823E9F1F701128AF0
:1029900000EE12E080E2F80111928A95E9F78BE0EF
:1029A000FE013196D80101900D928A95E1F7E091F0
:1029B000D702F091D802309739F0B801625F7F4FAB
:1029C000C8014096099509C081E298E2F801918B0F
:1029D000808B80E098E097878687F80180899189CD
:1029E000938B828B918F808F86859785978B868B33
:1029F0000E94C516882339F04B2DF7016289C70163
:102A00000E94C21301C080E02B960FB6F894DEBF7F
:102A10000FBECDBFDF91CF911F910F91FF90EF902F
:102A2000DF90CF90BF90AF9008952F923F924F923A
:102A30005F926F927F928F929F92AF92BF92CF924E
:102A4000DF92EF92FF920F931F93CF93DF9300D00B
:102A500000D01F92CDB7DEB78C017B013A01DC01BB
:102A600015968C9115978130C9F414968C9181FF3D
:102A700015C082FF1BC0F801438954896589768996
:102A800082859385A485B58584179507A607B70722
:102A900069F0C8010E941912811108C081E090E01C
:102AA000F8019383828380E090E046C1630180C097
:102AB000D8015B968D919C915C97FC01F481F1505B
:102AC000B501A40129E076956795579547952A9514
:102AD000D1F7F423FD8321E09222FF2309F474C08F
:102AE00080E092E08819990956018C159D0508F43B
:102AF0005C01D8015B96ED91FC915C9716962D9048
:102B00003D904D905C901997B2E02B1A3108410826
:102B10005108058404C0220C331C441C551C0A9423
:102B2000D2F786859785A089B189280E391E4A1E5D
:102B30005B1EED812E0E311C411C511CA114F2E0D4
:102B4000BF0609F088C08091060190910701A0910D
:102B50000801B091090182159305A405B50559F442
:102B60008FEF9FEFDC018093060190930701A09304
:102B70000801B09309019701B201A1018091DE0221
:102B80009091DF020E94460F882309F487CF9EEFC1
:102B9000F91ACA18DB08F80182859385A485B585E2
:102BA0008A0D9B1DA11DB11D82879387A487B587C0
:102BB000D8011A968D909D90AD90BC901D97C11430
:102BC000D10409F075CF8AC08114910409F088CF2F
:102BD00016964D915D916D917C9119974115510516
:102BE0006105710559F457968D919D910D90BC9199
:102BF000A02D0097A105B10541F521C09E012F5FD1
:102C00003F4F0E946117882309F44ECF89819A8132
:102C1000AB81BC81F801238D348DF90127892031E6
:102C200029F448EF5FEF60E070E004C048EF5FEF29
:102C30006FEF7FE084179507A607B70730F0C8014C
:102C40000E949A0F81114CCF29CFF8018683978378
:102C5000A087B18745CF8114910429F5D8011A9630
:102C60004D915D916D917C911D9753968D919D91A4
:102C70000D90BC91A02D481759076A077B0798F063
:102C80000E94C516882309F409CF209206013092CC
:102C9000070140920801509209018091DD02816094
:102CA0008093DD0208C041E0C201B1010E9400171B
:102CB000882309F4F3CEC40180529D4FD7019C01B3
:102CC0002A0D3B1DFC01E217F30719F04D914193CA
:102CD000FACFE81BF90BEE0EFF1E5BCF53968D91DA
:102CE0009D910D90BC91A02DF80124818815990526
:102CF000AA05BB0538F4838A948AA58AB68A206817
:102D000024830CC08091D7029091D802892B31F096
:102D10006114710419F02068F8012483D801149615
:102D20008C9183FD02C0C30107C0C8010E94B51287
:102D3000882309F4B3CEF7CF0F900F900F900F9028
:102D40000F90DF91CF911F910F91FF90EF90DF9047
:102D5000CF90BF90AF909F908F907F906F905F903B
:102D60004F903F902F900895CF93DF931F92CDB750
:102D7000DEB7698341E050E0BE016F5F7F4F0E9484
:102D800015150F90DF91CF9108958091DD02882372
:102D900099F14091060150910701609108017091ED
:102DA000090120EE32E08091DE029091DF020E9464
:102DB000460F882319F14091D9025091DA026091AF
:102DC000DB027091DC02411551056105710591F03E
:102DD00020EE32E08091DE029091DF020E94460FE9
:102DE000882361F01092D9021092DA021092DB026D
:102DF0001092DC021092DD0281E0089580E00895D7
:102E0000CF92DF92EF92FF92CF936B017C01C42FA0
:102E10008091060190910701A0910801B0910901EC
:102E20008C159D05AE05BF05D1F00E94C516811118
:102E300002C080E01AC020EE32E0B701A601809106
:102E4000DE029091DF020E94F30E882391F3C0927C
:102E50000601D0920701E0920801F09209018091E9
:102E6000DD028C2B8093DD0281E0CF91FF90EF900B
:102E7000DF90CF900895CF92DF92EF92FF926B0197
:102E80007C010E94C5168823B1F0E0EEF2E01192B9
:102E900084E0E03EF807D9F7C0920601D09207011E
:102EA000E0920801F09209018091DD028160809337
:102EB000DD0281E001C080E0FF90EF90DF90CF90D5
:102EC00008958F929F92AF92BF92CF92DF92EF922E
:102ED000FF920F931F93CF93DF938C016A017B01C5
:102EE000E901FC0181859285A385B4850196A11D28
:102EF000B11D84179507A607B70710F480E058C0E6
:102F0000F80143895489658976898789803129F454
:102F1000BB27AF2D9E2D8D2D09C0D701C60127E0FF
:102F2000B695A795979587952A95D1F74C015D01A0
:102F3000840E951EA61EB71EC501B4018090060121
:102F400090900701A0900801B090090168157905DB
:102F50008A059B0589F4F8018789803199F4DD247D
:102F6000EE24FF24F601EE0FFF1FE052FD4F80819B
:102F70009181A0E0B0E017C040E00E9400178111ED
:102F8000EACFBCCFE894C7F8DD24EE24FF24F60195
:102F9000EE0FFF1FEE0FFF1FE052FD4F808191816A
:102FA000A281B381BF7088839983AA83BB8381E0A8
:102FB000DF91CF911F910F91FF90EF90DF90CF9015
:102FC000BF90AF909F908F9008954F925F926F92B5
:102FD0007F92AF92BF92CF92DF92EF92FF920F93C8
:102FE0001F93CF93DF9300D000D0CDB7DEB78C0115
:102FF00049835A836B837C835901C12CD12C760180
:10300000412C42E0542E612C712C49815A816B81F4
:103010007C819E012F5F3F4FC8010E94611788236A
:1030200059F1D301C201F801058404C0880F991F2A
:10303000AA1FBB1F0A94D2F7C80ED91EEA1EFB1E98
:1030400049815A816B817C818789803129F488EF9D
:103050009FEFA0E0B0E004C088EF9FEFAFEFBFE0CC
:10306000481759076A077B0780F2F501C082D182B1
:10307000E282F38281E001C080E00F900F900F9018
:103080000F90DF91CF911F910F91FF90EF90DF9004
:10309000CF90BF90AF907F906F905F904F900895CA
:1030A0004F925F926F927F928F929F92AF92BF9258
:1030B000CF92DF92EF92FF920F931F93CF93DF9304
:1030C000EC016A017B01280139014230510561059B
:1030D000710508F474C049855A856B857C854F5FFE
:1030E0005F4F6F4F7F4F4C155D056E057F0508F4F0
:1030F00066C08B889C88AD88BE888F89803129F412
:1031000077276F2D5E2D4D2D09C0B701A601E7E091
:103110007695679557954795EA95D1F7840E951E54
:10312000A61EB71E4091060150910701609108014B
:103130007091090184169506A606B70671F48F8969
:10314000803199F4DD24EE24FF24F601EE0FFF1FF9
:10315000E052FD4F5182408218C040E0C501B401E9
:103160000E9400178111EBCF2AC0E894C7F8DD2434
:10317000EE24FF24F601EE0FFF1FEE0FFF1FE052BB
:10318000FD4F40825182628273828091DD028160B4
:103190008093DD028A89823080F08D819E81AF81AB
:1031A000B885880D991DAA1DBB1D8093D9029093E7
:1031B000DA02A093DB02B093DC0281E001C080E080
:1031C000DF91CF911F910F91FF90EF90DF90CF9003
:1031D000BF90AF909F908F907F906F905F904F9037
:1031E00008952F923F924F925F926F927F929F929B
:1031F000AF92BF92CF92DF92EF92FF920F931F9305
:10320000CF93DF93CDB7DEB760970FB6F894DEBFEC
:103210000FBECDBF5C014D875E876F87788B19012C
:10322000D9014D905D906D907C90411451046104E2
:10323000710431F0BFEF4B1A5B0A6B0A7B0A10C0B6
:10324000FC014080518062807380992493940D85A5
:103250001E852F853889013011052105310509F0BA
:10326000912CD50119962D913D914D915C911C9712
:103270002F5F3F4F4F4F5F4F29873A874B875C87C0
:10328000730162011D821E821F821886F5018185ED
:103290009285A385B4850D811E812F8138850817FD
:1032A00019072A073B0708F056C029853A854B8540
:1032B0005C852C153D054E055F0550F4A2E0CA2E35
:1032C000D12CE12CF12CB2E04B2E512C612C712C25
:1032D0009E012F5F3F4FB701A601C5010E946117F4
:1032E0008823C9F149815A816B817C81D701C6014C
:1032F0000196A11DB11D452B462B472B19F02C0122
:103300003D010FC0AC01BD0144195509660977099B
:103310000D851E852F853889401751076207730771
:1033200079F02D813E814F8158852F5F3F4F4F4F60
:103330005F4F2D833E834F8358876C017D01A6CF5D
:103340000FEF1FEF2FEF3FE0B701A601C5010E946D
:103350005018811118C080E041C0D701C601019703
:10336000A109B1098D839E83AF83B8879701860138
:10337000AC01BD01C5010E945018882361F3CD80C6
:10338000DE80EF80F8844C145D046E047F0428F323
:10339000D1014D915D916D917C9141155105610572
:1033A000710599F4F1014082518262827382992001
:1033B000A1F0FFEF4F1A5F0A6F0A7F0AD5014D9205
:1033C0005D926D927C92139708C093018201C501B2
:1033D0000E9450188111E6CFBECF81E060960FB6F3
:1033E000F894DEBF0FBECDBFDF91CF911F910F913B
:1033F000FF90EF90DF90CF90BF90AF909F907F9025
:103400006F905F904F903F902F900895AF92BF9232
:10341000CF92DF92EF92FF920F931F93CF93DF93A0
:1034200000D000D0CDB7DEB75C016A017B0182E03D
:1034300090E0A0E0B0E0F50180839183A283B383A4
:103440009E012F5F3F4FB701A601C5010E94611782
:10345000882311F100E010E09801B701A601C50131
:103460000E9450188823C1F0C980DA80EB80FC806C
:10347000F5018789803129F488EF9FEFA0E0B0E063
:1034800004C088EF9FEFAFEFBFE0C816D906EA0689
:10349000FB06B0F281E001C080E00F900F900F902A
:1034A0000F90DF91CF911F910F91FF90EF90DF90E0
:1034B000CF90BF90AF9008958F929F92AF92BF929E
:1034C000CF92DF92EF92FF920F931F93CF93DF93F0
:1034D000EC01142F7093DF026093DE02442341F16C
:1034E000453010F080E0EFC040E060E070E0CB01DC
:1034F0000E9400178823B1F320E1129FF0011124EC
:10350000E257FB4F80818F7769F784859585A68583
:10351000B78584369105A105B10520F3C084D18417
:10352000E284F384C114D104E104F10421F4DACF7C
:10353000C12CD12C760140E0C701B6010E940017D2
:10354000882381F28091EB029091EC0281159240E8
:1035500049F63091F002332329F28091EE029091E6
:10356000EF02892B09F4BECF2091ED02222309F44A
:10357000B9CF3A8B2C831D8630E041E050E06D8559
:10358000062FCA01062E02C0880F991F0A94E2F77F
:103590002817390731F081E0860F8D87683078F37E
:1035A000A1CF2091F6023091F7022115310519F0D3
:1035B00040E050E008C020910403309105034091A1
:1035C0000603509107032D833E834F8358878091D4
:1035D000EE029091EF0246015701880E991EA11C40
:1035E000B11C8B8A9C8AAD8ABE8AE091F102F0916F
:1035F000F202F98FE88FA091F002B0E00E9446211C
:10360000680D791D8A1D9B1D6A8F7B8F8C8F9D8F06
:1036100015E0EE0FFF1F1A95E1F7E150FE4FEF2F77
:10362000FF27E695DC01CB018E0F9F1FA11DB11D69
:103630008E879F87A88BB98B8090F3029090F402BD
:103640008114910419F0A12CB12C08C080900003C2
:1036500090900103A0900203B0900303A70196018C
:10366000281B390B4A0B5B0BDA01C901880D991D28
:10367000AA1DBB1D04C0B695A795979587950A9579
:10368000D2F789879A87AB87BC87853F3FE093074E
:10369000A105B10510F48CE014C0853F9F4FA10532
:1036A000B10510F480E10DC080910C0390910D03E1
:1036B000A0910E03B0910F038A8F9B8FAC8FBD8FAB
:1036C00080E28F8B81E0DF91CF911F910F91FF906E
:1036D000EF90DF90CF90BF90AF909F908F90089524
:1036E0001F920F920FB60F9211242F933F938F9337
:1036F0009F93AF93BF938091E1049091E204A091D6
:10370000E304B091E4043091E00423E0230F2D376B
:1037100020F40196A11DB11D05C026E8230F0296D5
:10372000A11DB11D2093E0048093E1049093E20475
:10373000A093E304B093E4048091E5049091E6043F
:10374000A091E704B091E8040196A11DB11D8093FA
:10375000E5049093E604A093E704B093E804BF91D6
:10376000AF919F918F913F912F910F900FBE0F902E
:103770001F9018952FB7F8946091E1047091E204BE
:103780008091E3049091E4042FBF08953FB7F8942B
:103790008091E5049091E604A091E704B091E804DB
:1037A00026B5A89B05C02F3F19F00196A11DB11D9C
:1037B0003FBF6627782F892F9A2F620F711D811DB9
:1037C000911D42E0660F771F881F991F4A95D1F718
:1037D0000895CF92DF92EF92FF92CF93DF936B0128
:1037E0007C010E94C61BEB01C114D104E104F10469
:1037F00089F00E9402210E94C61B6C1B7D0B683E53
:10380000734090F381E0C81AD108E108F108C8516B
:10381000DC4FEACFDF91CF91FF90EF90DF90CF9018
:103820000895789484B5826084BD84B5816084BD38
:1038300085B5826085BD85B5816085BDEEE6F0E029
:10384000808181608083E1E8F0E010828081826085
:103850008083808181608083E0E8F0E08081816006
:103860008083E1EBF0E0808184608083E0EBF0E036
:10387000808181608083EAE7F0E0808184608083DA
:103880008081826080838081816080838081806884
:1038900080831092C10008958E3008F08E5087709A
:1038A00020910A0190E4299F90011124822B80939A
:1038B0007C0080917A00806480937A0080917A0005
:1038C00086FDFCCF809178002091790090E0922BCA
:1038D0000895833081F028F4813099F08230A1F08E
:1038E00008958730A9F08830B9F08430D1F4809100
:1038F00080008F7D03C0809180008F77809380004F
:10390000089584B58F7702C084B58F7D84BD0895F6
:103910008091B0008F7703C08091B0008F7D80933D
:10392000B0000895CF93DF9390E0FC01ED52FF4F7C
:103930002491FC01E951FF4F8491882349F190E0E3
:10394000880F991FFC01EB5FFE4FA591B491855044
:103950009F4FFC01C591D4919FB7611108C0F894A5
:103960008C91209582238C93888182230AC06230B7
:1039700051F4F8948C91322F309583238C93888165
:10398000822B888304C0F8948C91822B8C939FBFE8
:10399000DF91CF9108950F931F93CF93DF931F92E1
:1039A000CDB7DEB7282F30E0F901E154FF4F849105
:1039B000F901ED52FF4F1491F901E951FF4F0491C4
:1039C0000023C9F0882321F069830E94691C698162
:1039D000E02FF0E0EE0FFF1FE550FF4FA591B491EF
:1039E0009FB7F8948C91611103C01095812301C099
:1039F000812B8C939FBF0F90DF91CF911F910F91DF
:103A00000895FC01818D228D90E0805C9F4F821B88
:103A100091098F7399270895FC01918D828D9817D4
:103A200031F0828DE80FF11D858D90E008958FEFC4
:103A30009FEF0895FC01918D828D981761F0828D22
:103A4000DF01A80FB11D5D968C91928D9F5F9F73D2
:103A5000928F90E008958FEF9FEF08958EE99EE199
:103A6000892B49F080E090E0892B29F00E949E1E6E
:103A700081110C9400000895FC01848DDF01A80FD2
:103A8000B11DA35ABF4F2C91848D90E001968F7386
:103A90009927848FA689B7892C93A089B1898C91A5
:103AA00080648C93938D848D981306C00288F3896B
:103AB000E02D80818F7D80830895CF93DF93EC018B
:103AC000888D8823C9F0EA89FB89808185FD05C03E
:103AD000A889B9898C9186FD0FC00FB607FCF5CF78
:103AE000808185FFF2CFA889B9898C9185FFEDCFC0
:103AF000CE010E943C1DE7CFDF91CF910895CF9278
:103B0000DF92FF920F931F93CF93DF931F92CDB756
:103B1000DEB76C0181E0D60158968C9358975B967E
:103B20009C915B975C968C915C97981307C050961C
:103B3000ED91FC915197808185FD2EC0F601038D9A
:103B400010E00F5F1F4F0F731127F02EF601848DC9
:103B5000F81211C00FB607FCF9CFD6015096ED91BF
:103B6000FC915197808185FFF1CFC60169830E9446
:103B70003C1D6981EBCF838DE80FF11DE35AFF4FA8
:103B80006083D6015B960C935B975296ED91FC9106
:103B90005397808180620CC0D6015696ED91FC91BE
:103BA000579760835096ED91FC9151978081806486
:103BB000808381E090E00F90DF91CF911F910F9172
:103BC000FF90DF90CF900895BF92CF92DF92EF9257
:103BD000FF92CF93DF93EC016A017B01B22EE8895B
:103BE000F98982E08083411581EE580761057105EE
:103BF000A1F060E079E08DE390E0A70196010E94DA
:103C00000F212150310941095109569547953795A2
:103C10002795211580E1380798F0E889F989108205
:103C200060E874E88EE190E0A70196010E940F2100
:103C300021503109410951095695479537952795E6
:103C4000EC85FD853083EE85FF852083188EEC8919
:103C5000FD89B082EA89FB89808180618083EA895D
:103C6000FB89808188608083EA89FB898081806804
:103C70008083EA89FB8980818F7D8083DF91CF916A
:103C8000FF90EF90DF90CF90BF9008951F920F921A
:103C90000FB60F9211242F938F939F93EF93FF935F
:103CA000E091F904F091FA048081E091FF04F09131
:103CB000000582FD12C09081809102058F5F8F7395
:103CC00020910305821751F0E0910205F0E0E751E1
:103CD000FB4F958F8093020501C08081FF91EF918A
:103CE0009F918F912F910F900FBE0F901F9018955D
:103CF0001F920F920FB60F9211242F933F934F9361
:103D00005F936F937F938F939F93AF93BF93EF9343
:103D1000FF9389EE94E00E943C1DFF91EF91BF91CB
:103D2000AF919F918F917F916F915F914F913F9153
:103D30002F910F900FBE0F901F90189589EE94E071
:103D40000E94011D21E0892B09F420E0822F0895B3
:103D50001092EC041092EB0488EE93E0A0E0B0E047
:103D60008093ED049093EE04A093EF04B093F004DD
:103D70008AEA91E09093EA048093E90485EC90E06C
:103D80009093F6048093F50484EC90E09093F8040B
:103D90008093F70480EC90E09093FA048093F90408
:103DA00081EC90E09093FC048093FB0482EC90E023
:103DB0009093FE048093FD0486EC90E090930005C0
:103DC0008093FF04109202051092030510920405DF
:103DD000109205050895CF92DF92EF92FF920F9314
:103DE0001F93CF93DF937C016A01EB0100E010E0A9
:103DF0000C151D0571F06991D701ED91FC910190B1
:103E0000F081E02DC7010995892B19F00F5F1F4F35
:103E1000EFCFC801DF91CF911F910F91FF90EF90ED
:103E2000DF90CF9008956115710581F0DB010D9051
:103E30000020E9F7AD0141505109461B570BDC0149
:103E4000ED91FC910280F381E02D099480E090E0F7
:103E50000895DC01ED91FC91DB0114964D915C918C
:103E600015976D917C910280F381E02D099466EBAA
:103E700071E00C94131F0F931F93CF93DF93EC010A
:103E80000E94291F8C01CE010E94371F800F911FB5
:103E9000DF91CF911F910F9108950F931F93CF93AF
:103EA000DF93EC010E94131F8C01CE010E94371F8B
:103EB000800F911FDF91CF911F910F910895FC0109
:103EC000DB011182108213821282158214828D917D
:103ED0009C9111979183808312968D919C91139759
:103EE0009383828314968D919C91159795838483F7
:103EF00011961C921E9213961C921E921297159662
:103F00001C921E9214970895FC01808191810C945B
:103F10000A22CF93DF93EC0188819981009711F0F9
:103F20000E940A22198218821D821C821B821A8218
:103F3000DF91CF9108950F931F93CF93DF93EC01FF
:103F40008B016F5F7F4F888199810E949922009732
:103F500031F0998388831B830A8381E001C080E06C
:103F6000DF91CF911F910F910895CF93DF93EC01D3
:103F700088819981892B29F08A819B8186179707EF
:103F800060F4CE010E949B1F882341F08C819D81AB
:103F9000892B19F4E881F981108281E0DF91CF91BA
:103FA0000895EF92FF920F931F93CF93DF93EC014D
:103FB0007B018A01BA010E94B51F811104C0CE01A4
:103FC0000E94891F07C01D830C83B70188819981D6
:103FD0000E948D23CE01DF91CF911F910F91FF9011
:103FE000EF900895FC0111821082138212821582D3
:103FF00014826115710559F0FB0101900020E9F769
:10400000AF0141505109461B570B0C94D11F089525
:10401000CF93DF93EC016115710561F0FB01019015
:104020000020E9F7AF0141505109461B570B0E9490
:10403000D11F02C00E94891FCE01DF91CF91089548
:104040000F931F93CF93DF93CDB7DEB762970FB671
:10405000F894DEBF0FBECDBF8C01CB01F8011182F9
:104060001082138212821582148250E0BE016F5FAB
:104070007F4F0E94A323BE016F5F7F4FC8010E9444
:10408000082062960FB6F894DEBF0FBECDBFDF9159
:10409000CF911F910F910895EF92FF920F931F936D
:1040A000CF93DF93EC017B010C811D8161157105BC
:1040B00011F480E016C04115510591F0040F151F51
:1040C000B8010E94B51F8823A1F3288139818C8112
:1040D0009D81B701820F931F0E948D231D830C8346
:1040E00081E0DF91CF911F910F91FF90EF900895A4
:1040F000FB0144815581608171810C944C206115D4
:10410000710559F0FB0101900020E9F7AF01415022
:104110005109461B570B0C944C2080E00895EF92F8
:10412000FF920F931F93CF93DF93CDB7DEB72797FF
:104130000FB6F894DEBF0FBECDBF7C01CB014AE0C5
:104140008E010F5F1F4FB8010E94DB23F801019021
:104150000020E9F7AF0141505109401B510BB80154
:10416000C7010E944C2027960FB6F894DEBF0FBE01
:10417000CDBFDF91CF911F910F91FF90EF900895E8
:10418000EF92FF920F931F93CF93DF93CDB7DEB7DC
:104190002D970FB6F894DEBF0FBECDBF7C01CB01CB
:1041A000BA012AE08E010F5F1F4FA8010E94B923B8
:1041B000F80101900020E9F7AF0141505109401B7F
:1041C000510BB801C7010E944C202D960FB6F894F0
:1041D000DEBF0FBECDBFDF91CF911F910F91FF903A
:1041E000EF90089508950E94111C0E94F2200E94F1
:1041F0003301CEE2DDE10E9460022097E1F30E94EC
:104200002E1DF9CF0895991B79E004C0991F9617C8
:1042100008F0961B881F7A95C9F780950895A1E24A
:104220001A2EAA1BBB1BFD010DC0AA1FBB1FEE1F30
:10423000FF1FA217B307E407F50720F0A21BB30B7B
:10424000E40BF50B661F771F881F991F1A9469F7F7
:1042500060957095809590959B01AC01BD01CF0153
:104260000895EE0FFF1F0590F491E02D0994A29F91
:10427000B001B39FC001A39F700D811D1124911D3A
:10428000B29F700D811D1124911D08950E94372148
:10429000A59F900DB49F900DA49F800D911D11249A
:1042A0000895EF920F931F93CF93DF93E80147FF99
:1042B00002C034E101C034E0E42FFF27E7FDF095B0
:1042C000F7FF03C0F195E195F109E32E022F2E2FA0
:1042D000AE010E94F523CE01DF91CF911F910F9186
:1042E000EF900895CF93DF938230910510F482E030
:1042F00090E0E0918805F091890520E030E0A0E0B1
:10430000B0E0309739F14081518148175907B8F032
:104310004817590771F482819381109729F01396F9
:104320009C938E9312972CC0909389058093880557
:1043300027C02115310531F04217530718F0A901A4
:10434000DB0101C0EF019A01BD01DF010280F381B1
:10435000E02DD7CF21153105F9F0281B390B24307A
:10436000310580F48A819B816115710521F0FB0183
:104370009383828304C09093890580938805FE010E
:10438000329644C0FE01E20FF31F819391932250B5
:104390003109398328833AC02091860530918705F9
:1043A000232B41F4209102013091030130938705C2
:1043B00020938605209100013091010121153105DE
:1043C00041F42DB73EB74091040150910501241BE3
:1043D000350BE0918605F0918705E217F307A0F40D
:1043E0002E1B3F0B2817390778F0AC014E5F5F4F4B
:1043F0002417350748F04E0F5F1F509387054093F1
:1044000086058193919302C0E0E0F0E0CF01DF9157
:10441000CF910895CF93DF93009709F487C0FC01F3
:10442000329713821282C0918805D0918905209716
:1044300081F420813181280F391F80918605909168
:1044400087058217930779F5F0938705E093860532
:104450006DC0DE0120E030E0AE17BF0750F41296C9
:104460004D915C9113979D014115510509F1DA01B8
:10447000F3CFB383A28340815181840F951F8A17A4
:104480009B0771F48D919C911197840F951F029653
:104490009183808312968D919C911397938382834D
:1044A0002115310529F4F0938905E09388053EC074
:1044B000D9011396FC93EE9312974D915D91A40F41
:1044C000B51FEA17FB0779F480819181840F951F4E
:1044D0000296D90111969C938E93828193811396B3
:1044E0009C938E931297E0E0F0E08A819B81009785
:1044F00019F0FE01EC01F9CFCE0102962881398135
:10450000820F931F20918605309187052817390760
:1045100069F4309729F4109289051092880502C039
:1045200013821282D0938705C0938605DF91CF91C5
:104530000895A0E0B0E0EFE9F2E20C945F26EC0110
:10454000CB01209719F40E947221B8C0FE01E60F3A
:10455000F71F9E0122503109E217F30708F4ACC09F
:10456000D9010D911C91119706171707B8F0053066
:10457000110508F49FC0A801445051094617570778
:1045800008F498C002501109061B170B01931193F0
:104590006D937C93CF010E940A228CC05B01A01A0C
:1045A000B10A4E01800E911EA0918805B091890537
:1045B000612C712C60E070E0109709F449C0A815D7
:1045C000B905C9F5ED90FC901197670142E0C40E62
:1045D000D11CCA14DB0478F147018A189B086401D6
:1045E00042E0C40ED11C1296BC9012971396AC9167
:1045F000B5E0CB16D10440F0B282A38391828082D1
:10460000D9018D939C9309C00E5F1F4F0E0D1F1D86
:10461000F90111830083EB2DFA2F6115710531F03B
:10462000DB011396FC93EE93129744C0F093890537
:10463000E09388053FC06D917C91119766167706CF
:1046400008F43B01BD0112960D90BC91A02DB4CF92
:10465000609186057091870568157905E9F46816FB
:104660007906D0F4409100015091010141155105A6
:1046700041F44DB75EB76091040170910501461B8E
:10468000570BE417F507C0F4F0938705E093860510
:10469000F901918380830EC00E9472217C010097F2
:1046A00059F0A801BE010E947923CE010E940A227E
:1046B000C70104C0CE0102C080E090E0CDB7DEB7F4
:1046C000EEE00C947B26FB01DC0102C005900D920C
:1046D00041505040D8F70895FB01DC0104C08D9192
:1046E0000190801921F441505040C8F7881B990B64
:1046F0000895FB01DC0102C001900D924150504031
:10470000D8F70895FC018191861721F08823D9F705
:10471000992708953197CF010895FB01DC0101909D
:104720000D920020E1F70895FB01DC01415050405B
:1047300048F001900D920020C9F701C01D92415030
:104740005040E0F708954532510520F4423010F012
:104750000C94AE23FB011082CB010895BB274A3095
:1047600031F4992322F4BDE2909581959F4F0C94EA
:10477000DC23BB27FA01A62F62177105810591057D
:10478000330B30FB66F0AA27660F771F881F991F2F
:10479000AA1FA21710F0A21B63953850A9F7A05DBD
:1047A000AA3308F0A95DA19336F7B111B193108235
:1047B000CA010C944B26BB27FB015527AA27880F5B
:1047C000991FAA1FA41710F0A41B83955051B9F785
:1047D000A05DAA3308F0A95DA193009779F7B11104
:1047E000B1931192CB010C944B266F927F929F92C2
:1047F000AF92BF92CF92DF92EF92FF920F931F93EF
:10480000CF93DF93CDB7DEB729970FB6F894DEBF0D
:104810000FBECDBF6A01B22E102F0C3320F4FF243F
:10482000F394F00E02C04CE3F42E0F2D27E0AE01FE
:104830004F5F5F4F0E9473257981272F29702130A8
:1048400031F0E1FC06C0E0FC06C060E005C06DE2AE
:1048500003C06BE201C060E2AE2DA07173FF36C0F1
:10486000662311F084E001C083E08B1510F4B81AC0
:1048700001C0B12CA1110BC0F6018B2D90E2882351
:1048800019F091938150FBCFCB0CD11CB12C662336
:1048900031F0F601608396012F5F3F4F6901C60139
:1048A0000396E2FE05C02EE4F601208331E404C045
:1048B0002EE6F601208331E631832283FC012B2D85
:1048C00030E22223F1F131932150FBCF72FF40C03F
:1048D000662311F084E001C083E08B1510F4B81A50
:1048E00001C0B12CA1110BC0F6018B2D90E28823E1
:1048F00019F091938150FBCFCB0CD11CB12C6623C6
:1049000031F0F601608396012F5F3F4F6901C601C8
:104910000396E2FE07C029E4F60120832EE42183FA
:1049200026E406C029E6F60120832EE6218326E64A
:104930002283FC012B2D30E2222319F031932150E8
:10494000FBCFFC01EB0DF11D10828EEF9FEFB7C086
:10495000B1E0611101C0B0E04B2F50E0181619060C
:1049600024F49C012F5F3F4F02C021E030E0240F70
:10497000351F112329F0412F50E04F5F5F4F02C0D8
:1049800040E050E0420F531F2B2D30E042175307F9
:1049900014F4B41A01C0B12C2E2D287159F4F6016B
:1049A0002B2D30E2222319F031932150FBCFCB0C79
:1049B000D11CB12CBB2331F0F601608396012F5F2F
:1049C0003F4F6901A1110BC0F6012B2D30E32223CB
:1049D00019F031932150FBCFCB0CD11CB12CF80E28
:1049E0000A81372F3071A32E74FF03C0013309F4FD
:1049F000FA941F142CF42F2D293018F028E001C050
:104A000021E0682F392F97FF02C060E030E0462F89
:104A1000532F612C712C3EE2932EBC01621B710955
:104A20009B01DC01A41BB50BE1E0F0E0EC0FFD1FE6
:104A3000AE0FBF1FE12EF12CF194E194F1084F3F2E
:104A4000FFEF5F0731F4F6019082B6016F5F7F4F91
:104A50006B01841795074CF02417350734F4BD011A
:104A6000660D771DFB01118101C010E34150510912
:104A7000FFEF6F1A7F0AB6016F5F7F4F4E155F051C
:104A800024F0F60110836B01DACF4817590739F487
:104A9000063320F4053319F4A11001C011E3F60127
:104AA0001083FB018B2D90E2882319F091938150A4
:104AB000FBCFFB01EB0DF11D108280E090E0299609
:104AC0000FB6F894DEBF0FBECDBFDF91CF911F911F
:104AD0000F91FF90EF90DF90CF90BF90AF909F909D
:104AE0007F906F900895283008F027E03327DA018F
:104AF000990F311D87FD916000966105710539F4AC
:104B000032602E5F3D9330E32A95E1F708959F3F91
:104B100030F080387105610509F03C5F3C5F3D93E2
:104B2000913008F08068911DDF93CF931F930F930E
:104B3000FF92EF92192F987F9695E92F969596956B
:104B4000E90FFF27E759FE4F99273327EE24FF246B
:104B5000A701E70105900894079428F4360FE71E93
:104B6000F81E491F511D660F771F881F991F069455
:104B7000A1F70590079428F4E70EF81E491F561F69
:104B8000C11D770F881F991F661F0694A1F7059016
:104B9000079428F4F80E491F561FC71FD11D880F10
:104BA000991F661F771F0694A1F70590079420F4BC
:104BB000490F561FC71FD81F990F661F771F881FE1
:104BC0000694A9F784911095177041F0D695C79572
:104BD00057954795F794E7941A95C1F7EFE0F1E000
:104BE00068941590159135916591959105907FE2A6
:104BF0007395E118F10A430B560BC90BD009C0F7A6
:104C0000E10CF11E431F561FC91FD01D7EF47033E7
:104C100011F48A95E6CFE894015030F0080F0AF4B9
:104C20000027021708F4202F2395022F7A3328F04B
:104C300079E37D932A95E9F710C07D932A9589F64B
:104C4000069497956795379517951794E118F10A8B
:104C5000430B560BC90BD00998F023957E917395A1
:104C60007A3308F070E37C932013B8F77E9170617B
:104C70007D9330F0839571E37D9370E32A95E1F79E
:104C80001124EF90FF900F911F91CF91DF91992701
:104C900087FD90950895DC01FC01672F71917723C2
:104CA000E1F7329704C07C916D9370836291AE17E7
:104CB000BF07C8F308952F923F924F925F926F9271
:104CC0007F928F929F92AF92BF92CF92DF92EF929C
:104CD000FF920F931F93CF93DF93CDB7DEB7CA1B1D
:104CE000DB0B0FB6F894DEBF0FBECDBF09942A8848
:104CF000398848885F846E847D848C849B84AA84F0
:104D0000B984C884DF80EE80FD800C811B81AA817C
:104D1000B981CE0FD11D0FB6F894DEBF0FBECDBF47
:084D2000ED010895F894FFCFA6
:104D280000008A058000FFFFFFFF01436F756C6478
:104D38006E27742066696E642052544300525443AF
:104D4800206C6F737420706F7765722C206C65749B
:104D58007320736574207468652074696D6521001B
:104D680043617264206661696C65642C206F7220EF
:104D78006E6F742070726573656E740030002C005D
:104D88002D0020003A00646174616C6F67312E74E5
:104D9800787400302E002D393939390000000000B0
:104DA8001E04F103C603CE03E103F0030000000074
:104DB80069097F095A0AB909C3099A092F0000002D
:104DC8000000B416EB1E000000007F1DEB1E011D45
:104DD8001A1D0C1D5D1D0D0A006E616E00696E6660
:064DE800006F766600007A
:107E0000112484B714BE81FFF0D085E080938100F7
:107E100082E08093C00088E18093C10086E0809377
:107E2000C20080E18093C4008EE0C9D0259A86E02C
:107E300020E33CEF91E0309385002093840096BBD3
:107E4000B09BFECF1D9AA8958150A9F7CC24DD24C4
:107E500088248394B5E0AB2EA1E19A2EF3E0BF2EE7
:107E6000A2D0813461F49FD0082FAFD0023811F036
:107E7000013811F484E001C083E08DD089C08234E0
:107E800011F484E103C0853419F485E0A6D080C0E4
:107E9000853579F488D0E82EFF2485D0082F10E0AE
:107EA000102F00270E291F29000F111F8ED06801E7
:107EB0006FC0863521F484E090D080E0DECF843638
:107EC00009F040C070D06FD0082F6DD080E0C81688
:107ED00080E7D80618F4F601B7BEE895C0E0D1E017
:107EE00062D089930C17E1F7F0E0CF16F0E7DF06D8
:107EF00018F0F601B7BEE89568D007B600FCFDCFD4
:107F0000A601A0E0B1E02C9130E011968C91119780
:107F100090E0982F8827822B932B1296FA010C0160
:107F200087BEE89511244E5F5F4FF1E0A038BF0790
:107F300051F7F601A7BEE89507B600FCFDCF97BE46
:107F4000E89526C08437B1F42ED02DD0F82E2BD052
:107F50003CD0F601EF2C8F010F5F1F4F84911BD097
:107F6000EA94F801C1F70894C11CD11CFA94CF0C13
:107F7000D11C0EC0853739F428D08EE10CD085E9AC
:107F80000AD08FE07ACF813511F488E018D01DD067
:107F900080E101D065CF982F8091C00085FFFCCF94
:107FA0009093C60008958091C00087FFFCCF809118
:107FB000C00084FD01C0A8958091C6000895E0E648
:107FC000F0E098E1908380830895EDDF803219F02E
:107FD00088E0F5DFFFCF84E1DECF1F93182FE3DFCA
:107FE0001150E9F7F2DF1F91089580E0E8DFEE27F6
:047FF000FF270994CA
:027FFE00040479
:0400000300007E007B
:00000001FF
