:100000000C9409010C9431010C9431010C943101D0
:100010000C9431010C9431010C94EC030C943101DB
:100020000C9431010C9431010C9431010C94310188
:100030000C9431010C9431010C9431010C94310178
:100040000C94101C0C9431010C94841E0C94B61E5C
:100050000C9431010C9431010C9431010C94310158
:100060000C9414060C943101FB07120812080F08B7
:100070001208F907120812081208ED0712081208F0
:1000800002080D080B081208120812080908466534
:100090006220203920323031360030303A33373A5E
:1000A0003137001F1C1F1E1F1E1F1F1E1F1E1F7CFF
:1000B0003C3E5E2B3D3F2F5B5D3B2C2A225C0000CB
:1000C0000000080002010000030407000000000017
:1000D0000000000102040810204080010204081002
:1000E000200102040810200404040404040404028F
:1000F00002020202020303030303030000000025BF
:100100000028002B0000000000240027002A000027
:10011000407A10F35A00A0724E18090010A5D4E8D6
:100120000000E87648170000E40B54020000CA9A69
:100130003B000000E1F505000080969800000040BB
:10014000420F000000A08601000000102700000000
:1001500000E803000000006400000000000A000046
:100160000000000100000000002C76D888DC674FFA
:100170000823DFC1DFAE59E1B1B796E5E3E453C62A
:100180003AE651997696E8E6C28426EB898C9B6222
:10019000ED407C6FFCEFBC9C9F40F2BAA56FA5F4CC
:1001A00090055A2AF75C936B6CF9676DC11BFCE0F4
:1001B000E40D47FEF520E6B500D0ED902E03009447
:1001C0003577050080841E080000204E0A000000DC
:1001D000C80C333333330F986E12831141EF8D21E6
:1001E00014893BE65516CFFEE6DB18D1844B381B4D
:1001F000F77C1D901DA4BBE424203284725E228112
:1002000000C9F124ECA1E53D27002A05EF0C3410CC
:10021000E61E11241FBECFEFD8E0DEBFCDBF11E038
:10022000A0E0B1E0ECE0F0E502C005900D92A63848
:10023000B107D9F725E0A6E8B1E001C01D92AB34C3
:10024000B207E1F712E0C2E1D2E004C02297FE015A
:100250000E94A522CA30D107C9F70E9431210C940F
:1002600004280C9400000F931F93CF93DF9300D0CA
:1002700000D000D0CDB7DEB703E010E061E089E048
:100280000E946B1D68EE73E080E090E00E94891C84
:1002900060E089E00E946B1D68EE73E080E090E012
:1002A0000E94891C0150110949F786E891E00E94DB
:1002B0006E08811115C061E089E00E946B1D68EC39
:1002C00070E080E090E00E94891C60E089E00E947C
:1002D0006B1D68EC70E080E090E00E94891CEBCF21
:1002E00086E891E00E94020A882361F04AE950E022
:1002F0006EE870E0CE0101960E94BF07CE01019624
:100300000E947A0960E086E00E946B1D61E086E051
:100310000E94321D60E086E00E946B1D67E08CE465
:1003200092E00E94480B811115C061E089E00E94B3
:100330006B1D68EC70E080E090E00E94891C60E03A
:1003400089E00E946B1D68EC70E080E090E00E9404
:10035000891CEBCF88E891E00E94970486E891E041
:100360000E946E08811107C06BE071E08AEA94E098
:100370000E948B1FFFCF61E084E00E94321D61E08C
:1003800088E00E94321D61E084E00E946B1D61E004
:1003900089E00E94321D61E088E00E94321D2696AD
:1003A0000FB6F894DEBF0FBECDBFDF91CF911F9186
:1003B0000F910895CF92DF92EF92FF920F931F93C8
:1003C000CF93DF93CDB7DEB72C970FB6F894DEBF8F
:1003D0000FBECDBF8C016A014AE0CE0107960E9494
:1003E0005E2069E771E0CE0101960E9430208B8586
:1003F0009C858C159D0518F4E12CF12C04C0BE01E0
:10040000695F7F4F1CC08B859C859601281B390B2B
:10041000E216F30650F46DE171E0CE0101960E9400
:10042000BD202FEFE21AF20AEECFBE01695F7F4FC7
:10043000CE0101960E94B620BE016F5F7F4FC801BA
:100440000E949D1FCE0101960E94C21FCE010796F9
:100450000E94C21FC8012C960FB6F894DEBF0FBED3
:10046000CDBFDF91CF911F910F91FF90EF90DF9063
:10047000CF9008950F931F93CF93DF938C01C0E02B
:10048000D0E0C017D10764F420E030E040E050E055
:1004900069E070E087E891E00E94A9032196F1CF1E
:1004A000DF91CF911F910F9108958F929F92AF92FC
:1004B000BF92CF92DF92EF92FF920F931F93CF9351
:1004C000DF93CDB7DEB7E1970FB6F894DEBF0FBE6E
:1004D000CDBF60E088E00E946B1D60E084E00E9478
:1004E0006B1D81E10E94EC1C5C0161E084E00E94D4
:1004F0006B1D0E94FF086B017C018EE00E94EC1CCA
:100500004C01CE018C960E947408CE018C960E94FC
:10051000400869E771E0CE0186960E943020CE0146
:100520008C960E944008AB01BC01CE0186960E94C9
:10053000FE2068E271E0CE0186960E94BD206CA587
:1005400070E06053784FCE0186960E94CD206AE21B
:1005500071E0CE0186960E94BD206DA570E042E05C
:1005600050E0CE0101960E94DA01BE016F5F7F4F1D
:10057000CE0186960E94B620CE0101960E94C21F2F
:100580006AE271E0CE0186960E94BD206EA570E001
:1005900042E050E0CE0101960E94DA01BE016F5F99
:1005A0007F4FCE0186960E94B620CE0101960E9412
:1005B000C21F6CE271E0CE0186960E94BD206FA53D
:1005C00070E042E050E0CE0101960E94DA01BE01E7
:1005D0006F5F7F4FCE0186960E94B620CE010196B6
:1005E0000E94C21F6EE271E0CE0186960E94BD207D
:1005F00068A970E042E050E0CE0101960E94DA0165
:10060000BE016F5F7F4FCE0186960E94B620CE015D
:1006100001960E94C21F6EE271E0CE0186960E9492
:10062000BD2069A970E042E050E0CE0101960E9431
:10063000DA01BE016F5F7F4FCE0186960E94B62021
:10064000CE0101960E94C21F68E271E0CE0186963B
:100650000E94BD208E01045E1F4F22E045E0C701CD
:10066000B6010E94C322BC01CE0186960E94BD2025
:1006700068E271E0CE0186960E94BD204AE0B40196
:10068000CE0101960E945E20BE016F5F7F4FCE01BA
:1006900086960E94B620CE0101960E94C21F68E293
:1006A00071E0CE0186960E94BD204AE0B501CE01E0
:1006B00001960E945E20BE016F5F7F4FCE0186963D
:1006C0000E94B620CE0101960E94C21F23E140E3A2
:1006D00051E06CE472E0CE0101960E94610CCE0103
:1006E00001960E943B0B8823C9F0BE016A5D7F4FD3
:1006F000CE0101960E94791FCE0101960E94290B1E
:1007000061E089E00E946B1D68E270E080E090E0AB
:100710000E94891C60E089E00E946B1D81E090E0EE
:100720000E943A02CE0186960E94C21FE1960FB641
:10073000F894DEBF0FBECDBFDF91CF911F910F9117
:10074000FF90EF90DF90CF90BF90AF909F908F90F1
:1007500008954115510529F480917A008F7780938F
:100760007A006A307105B1F063FF02C088E201C00F
:1007700088E06770682B88E190E00FB6F894A89540
:10078000809360000FBE6093600080916000806481
:100790008093600083B7817F846083BF232B51F4F3
:1007A000F89483B7816083BF85B7806685BF8F7DEE
:1007B00085BF04C0F89483B7816083BF789488951F
:1007C00083B78E7F83BF7894452B29F480917A007C
:1007D000806880937A0008951F920F920FB60F924F
:1007E00011248F9388E10FB6F894809360001092E3
:1007F00060000FBE8F910F900FBE0F901F90189545
:100800008091B80190E02091B901821B910908956F
:100810002091B9018091B801281750F4E22FF0E03F
:10082000E654FE4F808190E02F5F2093B901089538
:100830008FEF9FEF0895E091B9018091B801E8171B
:1008400030F4F0E0E654FE4F808190E008958FEFA1
:100850009FEF08950895CF92DF92EF92FF920F934A
:100860001F93CF93DF937C01CB018A0120919401E8
:10087000222389F0EB016B01C40ED51ECC15DD05DA
:1008800069F06991D701ED91FC910190F081E02D23
:10089000C7010995F3CF642F0E94EB05C801DF91D2
:1008A000CF911F910F91FF90EF90DF90CF9008951F
:1008B000CF93DF931F92CDB7DEB769832091940168
:1008C0002223D1F020919501203240F021E030E048
:1008D000FC013383228380E090E015C08091960173
:1008E000E82FF0E0E956FE4F998190838F5F809367
:1008F00096018093950105C061E0CE0101960E94AA
:10090000EB0581E090E00F90DF91CF910895FC011D
:100910001382128248EE53E060E070E04483558316
:100920006683778381E491E09183808308951092B8
:10093000B9011092B80110929601109295010C9491
:100940002E0581E0809394016093B7011092960187
:100950001092950108950C94A1040F93062F21E0A5
:100960004091950167E971E08091B7010E9494057B
:100970001092960110929501109294010F91089592
:100980008F929F92AF92BF92CF92DF92EF92FF929F
:100990000F931F93CF93DF93EC01F62ED42E4801D3
:1009A0005901EE2019F10E94A1041E2D143008F007
:1009B00013E01150B8F0E881F98128E0129FB001EE
:1009C0001124A501940104C05695479537952795A4
:1009D0006A95D2F7CA01B9010190F081E02DCE01EC
:1009E0000995E7CF60E0CE010E94AD044D2D413264
:1009F00008F040E22C2D6AEB71E08F2D0E944C052F
:100A00001092B9018093B801DF91CF911F910F919E
:100A1000FF90EF90DF90CF90BF90AF909F908F901E
:100A20000895CF92EF920F931F93C22EE12C00E016
:100A300010E098010E94C0041F910F91EF90CF9099
:100A4000089521E00C94110521E00C94110561E05A
:100A50000C94AD0488E891E00C948704109247024E
:100A600081E0809345021092440261E082E10E949D
:100A70006B1D61E083E10E946B1DE9EBF0E080817A
:100A80008E7F808380818D7F808388E48093B8000F
:100A900085E48093BC000895413208F043C09091F2
:100AA00047029111FCCF91E09093470220934502B9
:100AB0002FEF2093DA0110921F02240F20931E02C1
:100AC0009093460290914602880F892B80934602AC
:100AD00080914402813061F4109244028091460278
:100AE0008093BB008091BC0083FDF8CF85EC01C0F2
:100AF00085EE8093BC00809147028130E1F38091C4
:100B00001F02841710F440911F0220E232E0FB0123
:100B1000D9018A2F821B841718F48D918193F9CF04
:100B2000842F089580E008950F93413208F04AC061
:100B3000909147029111FCCF92E09093470200936D
:100B400045029FEF9093DA0110921F0240931E021C
:100B5000FB0160E272E0DB019A2F961B941718F4F8
:100B600091919D93F9CF1092460290914602880F81
:100B7000892B8093460280914402813061F4109267
:100B80004402809146028093BB008091BC0083FDAB
:100B9000F8CF85EC01C085EE8093BC00222321F0C4
:100BA000809147028230E1F38091DA018F3F61F05A
:100BB0008091DA01803251F08091DA01803341F482
:100BC00083E007C081E005C080E003C082E001C08F
:100BD00084E00F910895613298F420914702243007
:100BE00089F46093FC01FC018EEF91E0DC012A2F77
:100BF000281B261718F421912D93F9CF80E0089532
:100C000081E0089582E0089585ED8093BC00809195
:100C1000BC0084FDFCCF10924702089585EC8093C0
:100C2000BC001092470208951F920F920FB60F92C8
:100C300011242F933F934F935F936F937F938F93E1
:100C40009F93AF93BF93EF93FF938091B900887FF9
:100C5000803609F49EC078F5883209F45DC090F4BE
:100C6000803109F456C038F4882309F4F5C088307F
:100C700009F44FC0F5C0883109F44EC0803209F440
:100C80005FC0EEC0803409F46AC058F4803309F4C0
:100C900057C0883309F0E4C08093DA010E940E0641
:100CA000DFC0803509F44FC0883509F45DC0883451
:100CB00009F0D6C0D3C0883909F4C4C0A8F4883775
:100CC00009F467C038F4883609F463C0803709F442
:100CD00060C0C6C0883809F4B5C0803909F45FC067
:100CE000803809F0BDC05BC0803B09F483C038F494
:100CF000803A09F466C0883A09F47CC0B1C0803CEF
:100D000009F4A4C0883C09F4A1C0883B09F487C059
:100D1000A7C08091460210C090911F0280911E02D0
:100D2000981770F5E0911F0281E08E0F80931F02EB
:100D3000F0E0E05EFD4F80818093BB0085EC83C0D6
:100D40008093DA018BC0E0911F0281E08E0F8093C7
:100D50001F028091BB00F0E0E05EFD4F8083909128
:100D60001F0280911E026BC0E0911F0281E08E0F76
:100D700080931F028091BB00F0E0E05EFD4F808316
:100D80008091450281116AC081E08093440284EA27
:100D90005EC083E0809347021092DB01CFCF809149
:100DA000DB01803208F04EC0E091DB0181E08E0F64
:100DB0008093DB018091BB00F0E0E452FE4F808322
:100DC000BDCF0E940E068091DB01803230F4E091AD
:100DD000DB01F0E0E452FE4F10826091DB0170E035
:100DE000E0914002F09141028CED91E00995109262
:100DF000DB0136C084E0809347021092FD0110921F
:100E0000FC01E0914202F091430209958091FC01BE
:100E1000811105C081E08093FC011092FE01E091F8
:100E2000FD0181E08E0F8093FD01F0E0E250FE4F66
:100E300080818093BB009091FD018091FC01981707
:100E400008F47CCF85E88093BC000AC085EC8093D1
:100E5000BC001092470204C01092DA010E940406FE
:100E6000FF91EF91BF91AF919F918F917F916F9182
:100E70005F914F913F912F910F900FBE0F901F9058
:100E80001895CF93CFB7F89480914B02811127C06A
:100E9000E1EFF0E08491EDEDF0E09491E82FF0E0E7
:100EA000EE0FFF1FEB5FFE4FA591B4918C9189234C
:100EB00021F461E08AE00E946B1D61E08AE00E94FB
:100EC000321D8CB580618CBD8CB580648CBD61E0B9
:100ED0008DE00E94321D61E08BE00E94321D809106
:100EE0004B028F5F80934B02CFBFCF910895803D1F
:100EF00027E0920710F0805D974050E0E3EAF0E0D1
:100F000021E02E1B322F3E0F361728F43491430F69
:100F1000511D3196F7CF633038F09C012370332791
:100F2000232B11F44F5F5F4F6DE671E0869F9001B8
:100F3000879F300D969F300D112421503109039663
:100F40009695879596958795280F391FC901840F27
:100F5000951F0895FC01208120532A3008F020E0DD
:100F6000FC0181818053FAE02F9F800D11240895A8
:100F7000DC01ED91FC910190F081E02D0994CF927C
:100F8000DF92EF92FF920F931F93CF93DF93CDB732
:100F9000DEB72B970FB6F894DEBF0FBECDBF7C0136
:100FA0006A014BE050E0CE0101960E94D524CE01AB
:100FB0000A960E94AA07F70180830981112707FD7D
:100FC0001095212F312FF801E154F109E331F1059A
:100FD00048F5EC5CFF4F0C94A3228A81813639F0EE
:100FE0008B818E3611F486E01BC087E019C081E04A
:100FF00017C082E015C08B81823711F484E010C0E5
:1010000088E00EC08B81823711F483E009C085E04F
:1010100007C089E005C08AE003C08BE001C08CE016
:10102000F7018183CE0105960E94AA07F70182830A
:1010300048E050E0B601CE0101960E94D524CE01D1
:1010400001960E94AA07F7018383CE0104960E94AD
:10105000AA07F7018483CE0107960E94AA07F70129
:1010600085832B960FB6F894DEBF0FBECDBFDF9100
:10107000CF911F910F91FF90EF90DF90CF90089547
:10108000CF93DF93EC0188814A81698190E00E94CF
:1010900077079C01A8E1B0E00E94A9229B01AC0166
:1010A0008B81280F311D411D511DACE3B0E00E9422
:1010B000B8229B01AC018C81280F311D411D511DAF
:1010C0000E94B8222D81620F711D811D911D6058F3
:1010D0007C4B8249974CDF91CF91089588E891E04D
:1010E0000E94970481E00895CF92DF92EF92FF92E1
:1010F0000F931F93CF93DF93EC0168E670E088E8CD
:1011000091E00E94AB0460E088E891E00E945804FE
:1011100088E891E00E94270547E050E068E670E02B
:1011200088E891E00E94240588E891E00E94080484
:101130008F77982F92959F701AEF082F919F000D2F
:10114000112488E891E00E9408049C01332794E070
:10115000359527959A95E1F7F82E129FF00C1124FA
:1011600088E891E00E9408049C01332744E035950B
:1011700027954A95E1F7E82E129FE00C112488E8A4
:1011800091E00E94080488E891E00E9408049C0114
:10119000332754E0359527955A95E1F7D82E129FBD
:1011A000D00C112488E891E00E9408049C013327A8
:1011B00064E0359527956A95E1F7C82E129FC00C1B
:1011C000112488E891E00E9408049C01332774E010
:1011D000359527957A95E1F7129F800D1124888324
:1011E000C982DA82EB82FC820D83CE01DF91CF913E
:1011F0001F910F91FF90EF90DF90CF9008951F9374
:10120000CF93DF9300D000D0CDB7DEB768E670E0B3
:1012100088E891E00E94AB0461E170E088E891E029
:101220000E94B80788E891E00E94270542E050E05C
:1012300068E670E088E891E00E94240588E891E083
:101240000E940804182F88E891E00E940804829503
:10125000869586958370682F70E080E090E00E940C
:10126000A62120E030E040E85EE30E9434229B01AA
:10127000AC01612F772767FD7095872F972F298302
:101280003A834B835C8317FF09C00E94A821298100
:101290003A814B815C810E94412108C00E94A821B3
:1012A00029813A814B815C810E9442210F900F90ED
:1012B0000F900F90DF91CF911F910895CF93C82F7A
:1012C00068E688E891E00E94A1046C2F88E891E02C
:1012D0000E94580488E891E00E94270541E068E6F2
:1012E00088E891E00E94210588E891E00E940804C6
:1012F000CF9108951F93CF93DF93EC0168E670E0E0
:1013000088E891E00E94AB0460E088E891E00E94E8
:1013100058042D811AE0822F612F0E949722682F96
:10132000660F680F660F620F88E891E00E9458040C
:101330002C81822F612F0E949722682F660F680FE1
:10134000660F620F88E891E00E9458042B81822F7B
:10135000612F0E949722682F660F680F660F620F39
:1013600088E891E00E94580460E088E891E00E94DB
:1013700058042A81822F612F0E949722682F660FBE
:10138000680F660F620F88E891E00E945804298177
:10139000822F612F0E949722682F660F680F660FB9
:1013A000620F88E891E00E9458042881822F612F03
:1013B0000E949722682F660F680F660F620F88E8F9
:1013C00091E00E94580488E891E00E9427058FE090
:1013D0000E945E09C82F68E688E891E00E94A10497
:1013E0006FE088E891E00E9458046C2F6F7788E8DE
:1013F00091E00E94580488E891E0DF91CF911F911D
:101400000C9427058FE00E945E0987FB882780F9EE
:101410000895CF93DF931F92CDB7DEB76983DC01C8
:10142000ED91FC910280F381E02D41E050E0BE019E
:101430006F5F7F4F09950F90DF91CF910895CF9304
:10144000DF93EC01898D9A8D009759F0FC0113828E
:1014500012820E94B515E98DFA8D22813381232BEA
:1014600031F081E090E09B838A8380E090E0DF911F
:10147000CF910895FC01818D928D009711F00C940D
:1014800055130895CF93DF931F92CDB7DEB741E098
:1014900050E0BE016F5F7F4F0E946611019719F403
:1014A000898190E002C08FEF9FEF0F90DF91CF9185
:1014B0000895FC01818D928D009711F00C94420AE1
:1014C0008FEF9FEF08950F931F93CF93DF938C01BE
:1014D000FC01818D928D0097B9F00E94420AEC01C7
:1014E0008F3FFFEF9F0799F0F801818D928DFC01EE
:1014F000428553856485758541505109610971099B
:101500000E94B912CE0105C080E090E002C08FEFCA
:101510009FEFDF91CF911F910F910895CF92DF92AE
:10152000EF92FF920F931F93CF93DF93EC017B0118
:101530006A011B821A8208EE13E020E030E00C837F
:101540001D832E833F8381E591E0998388838DE11C
:1015500090E00E94E4229A8F898F009779F02DE124
:10156000F701DC0101900D922A95E1F74CE050E083
:10157000B601CE010C960E940625188EDF91CF9100
:101580001F910F91FF90EF90DF90CF900895FC0195
:101590001382128248EE53E060E070E0448355838A
:1015A0006683778381E591E091838083128E118E2B
:1015B00014860895DC015996ED91FC915A97309765
:1015C00029F0628573858485958508956FEF7FEF97
:1015D000CB010895DC015996ED91FC915A97309713
:1015E00029F06389748985899689089560E070E09F
:1015F000CB010895CF92DF92EF92FF92CF93DF93CA
:10160000EC01898D9A8D892BD9F0CE010E94EA0ACE
:101610006B017C01CE010E94DA0AA7019601261B0C
:10162000370B480B590BDA01C901811530E89307D4
:10163000A105B10538F08FEF9FE7A0E0B0E002C050
:1016400080E090E0DF91CF91FF90EF90DF90CF901E
:101650000895CF93DF93EC01898D9A8D009741F027
:101660000E949C13898D9A8D0E947C231A8E198E5C
:10167000DF91CF910895DC015996ED91FC915A9735
:10168000309721F081E09581911101C080E00895AB
:101690000F931F93CF93DF93EC01462F61E00E94DD
:1016A0002C0E811102C080E01DC08E01045F1F4F0F
:1016B00041E0BE01C8010E94FC1A882359F0B8011C
:1016C000CE018A960E94161191E0811101C090E02E
:1016D000892F08C040E0BE01C8010E94FC1A88237F
:1016E00011F3EDCFDF91CF911F910F910895FC0180
:1016F000DB0112968D919C9113979383828383E6ED
:1017000091E09183808314968C911497848315962D
:101710008C911597858316964D915D916D917C9175
:10172000199746835783608771871A964D915D910B
:101730006D917C911D9742875387648775871E96AC
:101740004D915D916D917C91519746875787608B44
:10175000718B52968C915297828B53964D915D91DD
:101760006D917C915697438B548B658B768B5796F6
:101770004D915D916D917C915A97478B508F618F00
:10178000728F5B968D919C915C97948F838F089557
:101790004F925F926F927F928F929F92AF92BF9281
:1017A000CF92DF92EF92FF920F931F93CF93DF932D
:1017B000CDB7DEB7C754D1090FB6F894DEBF0FBE60
:1017C000CDBF6C014A013901665D7F4F5E018EE13C
:1017D000A80EB11CC5010E94770B1C821B8283E6F8
:1017E00091E09A8389831E828401FE0131967F01F4
:1017F0005A2C4B2C6FE270E0C8010E94F424009731
:10180000E9F1F80120812F3219F40F5F1F4FF2CF59
:10181000801B8D3008F08CE0A82EB12CA501B801FA
:10182000CE01CB960E940625EBE3F0E0EC0FFD1F06
:10183000EA0DFB1D1082C7010E949C1321E0AE013E
:10184000455C5F4F652D742DC7010E94D014811136
:1018500009C0F6011382128283E691E091838083AE
:10186000158216C00A0D1B1D852D942D0E949C13F8
:10187000C2015E2C4F2CE92EF82EBCCF0819190995
:10188000F30111830083652D742DC6010E94770B2F
:10189000C601C95BDF4F0FB6F894DEBF0FBECDBFE8
:1018A000DF91CF911F910F91FF90EF90DF90CF903C
:1018B000BF90AF909F908F907F906F905F904F9070
:1018C00008959F92AF92BF92CF92DF92EF92FF92D4
:1018D0000F931F93CF93DF93CDB7DEB7C955D109CF
:1018E0000FB6F894DEBF0FBECDBF7C016B015A016D
:1018F000922E9E01285A3F4FCE01CB960E94C80BD4
:101900006A960EAD1FAD6A970A0D1B1DF801808106
:1019100081110AC0BE01655C7F4FCE0101960E9415
:10192000770B4DE551E041C019A218A283E691E082
:101930009F8F8E8F1BA221968FAD2197811104C09E
:10194000C7010E94C70A37C08250823060F4B601D6
:10195000665D7F4F292DA801CE014E960E94D014BE
:10196000811110C0EDCF292DA801BE01655C7F4F0C
:10197000CE014E960E94D014882311F3CE01CB964F
:101980000E949C13892D867041F049A95AA96BA920
:101990007CA9CE014E960E94B912BE01625E7F4FB5
:1019A000CE0101960E94770BA801BE016F5F7F4FA9
:1019B000C7010E948E0AC701C75ADF4F0FB6F894BD
:1019C000DEBF0FBECDBFDF91CF911F910F91FF9072
:1019D000EF90DF90CF90BF90AF909F9008951092BE
:1019E000510210925202109255021092570282E058
:1019F00090E0A0E0B0E08093580290935902A09349
:101A00005A02B0935B0210926F0210927902109208
:101A1000780283E691E090937702809376021092A9
:101A20007B0208959FB7F89420914A028091480262
:101A3000213019F48DBB9FBF08958FBF0895209169
:101A40004A02222399F03FB7F89420914A022130AC
:101A500059F42DB3209348024DB3209149022095AB
:101A600024232DBB3FBF02C0309348028CBD9DBDD7
:101A700008958EBD00000DB407FEFDCF8EB508950C
:101A80008FEF0C94390D61E0FC0184810E946B1D85
:101A900080919502882339F01092950280914A0234
:101AA00081110C94120D0895CF93DF93EC01809176
:101AB0009502811109C081E0809395028091960280
:101AC000909197020E941F0D60E08C81DF91CF9171
:101AD0000C946B1DCF93DF93EC018E81882389F0EA
:101AE0008F8198859C012F5F3F4F38872F838230ED
:101AF000924018F40E94400DF3CFCE010E94430D96
:101B00001E82DF91CF910895673028F026E1FC0115
:101B1000258380E00895623081F030F4662359F027
:101B20006130B1F480E515C0643059F040F06530A3
:101B300079F482E50EC080E505C081E503C081E54A
:101B400008C082E58093960281E080939702089511
:101B500083E5809396021092970281E008950F9397
:101B60001F93CF93DF93EB010E945A1C8B010E94BD
:101B7000400D8F3F49F00E945A1C601B710B6C177F
:101B80007D07A8F380E001C081E0DF91CF911F9134
:101B90000F910895CF92DF92FF920F931F93CF93EF
:101BA000DF9300D000D0CDB7DEB76C01F62E2983CD
:101BB0003A834B835C830E946A0DC6010E94540DD8
:101BC0006CE271E0C6010E94AF0D8F2D80640E940F
:101BD000390D08E110E05C814B813A812981DA01FD
:101BE000C901002E04C0B695A795979587950A94CC
:101BF000D2F729833A834B835C830E94390D0850C6
:101C0000110929813A814B815C81083F8FEF1807C8
:101C100031F7FF2029F0E8E0FE1621F08FEF03C036
:101C200085E901C087E80E94390D10E00E94400D4F
:101C3000F601828787FF04C01F3F11F01F5FF6CFB8
:101C40000F900F900F900F90DF91CF911F910F91F8
:101C5000FF90DF90CF900895BF92CF92DF92EF92E6
:101C6000FF920F931F93CF93DF93EC01B62E1B8649
:101C700019861E821D824C830E945A1C8B0161E0D2
:101C80008C810E94321D61E08C810E946B1D0E943C
:101C9000410782E580939602109297028091960206
:101CA000909197020E941F0D2AE0F22E8FEF0E9462
:101CB000390DFA94D9F780914A0281110E94120DD0
:101CC000CE010E94540D20E030E0A90160E0CE0179
:101CD0000E94CA0DF82E8A8781E0F81649F00E940A
:101CE0005A1C601B710B613D774068F381E04BC06B
:101CF0002AEA31E040E050E068E0CE010E94CA0DDF
:101D000082FF02C0FB860DC094E0F92E0E94400DB8
:101D10008A87FA94D9F78A3A11F082E034C082E0D7
:101D20008B878B85823031F4C12CD12CE12C80E45F
:101D3000F82E03C0C12CD12C760120E030E0A9019F
:101D400067E3CE010E94CA0DA701960169E2CE01A8
:101D50000E94CA0D8A87882349F00E945A1C601B82
:101D6000710B613D774048F388E00DC08B85823070
:101D700031F520E030E0A9016AE3CE010E94CA0DEE
:101D8000882381F086E08D83CE010E94430D80E0A0
:101D9000DF91CF911F910F91FF90EF90DF90CF9047
:101DA000BF9008950E94400D807C803C11F483E038
:101DB0008B870E94400D0E94400D0E94400DCE0175
:101DC0000E94430D6B2DCE01DF91CF911F910F919A
:101DD000FF90EF90DF90CF90BF900C94840D0F9305
:101DE0001F93CF93DF93EC010E945A1C8B010E943A
:101DF000400D8A878F3F49F40E945A1C601B710B6B
:101E00006D327140A0F38FE003C08E3F39F08DE05A
:101E10008D83CE010E94430D80E001C081E0DF91FF
:101E2000CF911F910F910895CF92DF92EF92FF9281
:101E30000F931F93CF93DF93EC01690101151105F7
:101E400009F462C0C801820F931F8130924008F0EC
:101E50005DC08E81882371F088819981AA81BB81C0
:101E6000481759076A077B0729F48F819885C81698
:101E7000D90610F5488359836A837B838B85833029
:101E800039F039E0440F551F661F771F3A95D1F797
:101E90009A01AB0161E1CE010E94CA0D882319F0BD
:101EA00083E08D8333C0CE010E94EF0E882371F151
:101EB00018861F8281E08E838F8198858C159D0501
:101EC00040F40E94400D8F819885019698878F83FA
:101ED000F3CF6701E00EF11ECE14DF0431F00E9453
:101EE000400DF60181936F01F7CF8F819885800FA8
:101EF000911F98878F832985222319F0811592409D
:101F000018F0CE010E946A0D81E004C0CE010E944B
:101F1000430D80E0DF91CF911F910F91FF90EF90E3
:101F2000DF90CF900895EF92FF920F931F93790166
:101F300000E012E020E030E00E94140F1F910F91AA
:101F4000FF90EF900895CF92DF92EF92FF920F9360
:101F50001F93CF93DF9300D0CDB7DEB78C01862FD0
:101F600049835A830E94390D4981C42E5A81D52E46
:101F7000E12CF12CF60181916F010E94390DFFEFE8
:101F8000EF1AFF0AE11482E0F806A1F78FEF0E9432
:101F9000390D8FEF0E94390D0E94400DF8018287A4
:101FA0008F71853039F081E18583C8010E94430D2E
:101FB00080E001C081E00F900F90DF91CF911F91E1
:101FC0000F91FF90EF90DF90CF9008950F931F93A4
:101FD000CF93DF93EC01890141155105610571052E
:101FE00011F482E132C08B85833039F089E0440FEF
:101FF000551F661F771F8A95D1F79A01AB0168E1DB
:10200000CE010E94CA0D882311F084E01EC0A801F1
:102010006EEFCE010E94A30F8823C1F068E572E045
:10202000CE010E94AF0D811102C085E10EC020E0FB
:1020300030E0A9016DE0CE010E94CA0D811104C0FB
:102040000E94400D882339F084E18D83CE010E94E7
:10205000430D80E004C0CE010E94430D81E0DF917A
:10206000CF911F910F91089580E580939602109271
:1020700097020895CF93DF93EC019C012A5F3F4FB5
:1020800041E050E060E070E08B8D9C8D0E949119E2
:102090008823A1F04F89588D698D7A8D452B462B69
:1020A000472B71F44E815F81688579854F8B588FFE
:1020B000698F7A8F8C8180688C8302C080E001C038
:1020C00081E0DF91CF910895CF92DF92EF92FF925E
:1020D0001F93CF93DF93EC010E943A10811102C04D
:1020E00080E04BC0EB8DFC8DCE80DF80E884F984EE
:1020F00082E0C81AD108E108F108058404C0CC0CBC
:10210000DD1CEE1CFF1C0A94D2F7468557856089BA
:102110007189C40ED51EE61EF71E148181E0C81A0F
:10212000D108E108F108112361F0C701B601610F80
:10213000711D811D911D0E94DB17882389F21150AA
:10214000F2CFEB8DFC8DC12C82E0D82EE12CF12C4E
:10215000058404C0CC0CDD1CEE1CFF1C0A94D2F7D5
:102160004B895C896D897E894C0D5D1D6E1D7F1DBF
:102170004B8B5C8B6D8B7E8B81E0DF91CF911F91C0
:10218000FF90EF90DF90CF900895CF93DF93EC0115
:10219000462F6E857F85888999890E94A01788239C
:1021A00041F08A8920E2829FC00111248F559D4F02
:1021B00002C080E090E0DF91CF910895282FFB01CD
:1021C0008BE030E231938150E9F7A22FB92F20E064
:1021D00037E09D91992319F19E3219F0EFEAF0E072
:1021E00008C03A3011F128E03AE0F3CF31964917B0
:1021F000E1F044914111FACF3217B8F04FED490F99
:102200004E3598F441E0420FFB01E20FF11D2FE93A
:10221000290F2A3108F490529083242FDACF81E0DD
:10222000FB019081903209F480E008950F931F9391
:10223000CF93DF93EC018B018D81882311F080E037
:1022400040C0FB0187898031B1F482E08D831F8A11
:10225000188E198E1A8E408D518D60E070E095E0D9
:10226000440F551F661F771F9A95D1F74B8B5C8BD8
:102270006D8B7E8B15C0803211F783E08D83FB015F
:10228000428D538D648D758D4F8B588F698F7A8FEA
:102290009E012D5E3F4FC8010E948518882379F268
:1022A0001C8F0B8F81E08C831E821F8218861986FB
:1022B0001A861B861C861D861E861F86188A198A0A
:1022C0001A8ADF91CF911F910F9108952F923F921B
:1022D0004F925F926F927F928F929F92AF92BF9236
:1022E000CF92DF92EF92FF920F931F93CF93DF93E2
:1022F000EC016B015A018D81811103C08FEF9FEFBB
:10230000DAC08C8180FFFACF4B895C896D897E8928
:102310008A859B85AC85BD852501612C712C8A0140
:102320009B01081B190B2A0B3B0B041515052605F1
:10233000370518F45A01A81AB90A25011E0126E02A
:10234000220E311C4114510409F47BC04A855B857F
:102350006C857D854A0181E09822ED818A019B018F
:10236000F9E03695279517950795FA95D1F78B8D56
:102370009C8DE23051F4FC01628D738D848D958DBE
:10238000600F711F821F931F3EC0FC0174807A94FE
:10239000702281149104C9F4711017C0452B462B8B
:1023A000472B49F48F89988DA98DBA8D8E839F8391
:1023B000A887B9870AC04E815F81688579859101B8
:1023C0000E940118882309F499CFEB8DFC8D6E8152
:1023D0007F818885998562507109810991090584F9
:1023E00004C0660F771F881F991F0A94D2F70685CD
:1023F000178520893189600F711F821F931F670D18
:10240000711D811D911D20E032E02819390932012A
:102410002415350508F439012C8126FD04C061140A
:10242000F2E07F06A1F500910601109107012091CD
:10243000080130910901601771078207930719F4A9
:1024400026C0C50138C0760183019401AB01BC01EF
:1024500080919F029091A0020E94140F882309F49A
:102460004DCFC60CD71C04C0E81BF90BCE0EDF1EE7
:102470008A859B85AC85BD85860D971DA11DB11DE7
:102480008A879B87AC87BD87461857085BCF40E09B
:102490000E94A017882309F431CFC4018F559D4FA6
:1024A000D6019C01260D371DFC01E217F307E1F26E
:1024B00041914D93FACFDF91CF911F910F91FF90F2
:1024C000EF90DF90CF90BF90AF909F908F907F90D4
:1024D0006F905F904F903F902F900895FF920F93D1
:1024E0001F93CF93DF931F92CDB7DEB78C01FC0112
:1024F0008581823018F480E090E034C0F801428594
:10250000538564857585A5E07695679557954795BC
:10251000AA95D1F7F42FFF70FF2E41E050E0BE01E5
:102520006F5F7F4FC8010E946611019719F42981DE
:1025300030E002C02FEF3FEF2F3F3F4FE1F2F801B5
:102540004285538564857585415E5F4F6F4F7F4F30
:102550004287538764877587F0E2FF9EC00111248C
:102560008F559D4F0F90DF91CF911F910F91FF904D
:1025700008954F925F926F927F92AF92BF92CF92E7
:10258000DF92EF92FF920F931F93CF93DF93EC01B3
:102590006A017B012D81222309F457C08B899C8914
:1025A000AD89BE8984179507A607B70708F44DC003
:1025B0004EC08A859B85AC85BD85EB8DFC8DE58500
:1025C000F0E03996AC01BD01415051096109710932
:1025D0000E2E04C076956795579547950A94D2F7C5
:1025E00097018601015011092109310904C036956E
:1025F000279517950795EA95D2F70417150726072B
:102600003707B0F58F89988DA98DBA8D8E839F83FA
:10261000A887B987280139015E0186E0A80EB11CA0
:10262000411451046104710461F14E815F81688538
:10263000798595018B8D9C8D0E94011891E0491A36
:102640005108610871088111EBCF80E01FC0223072
:10265000C1F0C114D104E104F10409F0AACF1E8233
:102660001F82188619861A861B861C861D860DC039
:10267000892B8A2B8B2B31F2041B150B260B370B66
:10268000C9CFCA86DB86EC86FD8681E0DF91CF91DB
:102690001F910F91FF90EF90DF90CF90BF90AF9080
:1026A0007F906F905F904F9008950F931F93CF93FB
:1026B000DF93EC018D818823C9F18C8187FF30C0C5
:1026C00061E0CE010E94C5108C01009779F18D81E7
:1026D000823048F44B895C896D897E89F801448F8A
:1026E000558F668F778F4F89588D698D7A8DF80158
:1026F000538F428F758B648BE0919802F091990211
:10270000309759F0B8016A5E7F4FC8014896099525
:10271000F801808D918D938B828B8C818F778C8348
:10272000DF91CF911F910F910C94651780E0DF919D
:10273000CF911F910F910895CF93DF93EC010E94E9
:102740005513882319F01D8281E001C080E0DF91DC
:10275000CF9108954F925F926F927F92AF92BF9206
:10276000CF92DF92EF92FF920F931F93CF93DF935D
:1027700000D000D0CDB7DEB75C016A017B01FC015F
:1027800085818130F1F4848181FF1BC0F50183894B
:102790009489A589B68984179507A607B70788F095
:1027A000892B8A2B8B2B09F479C0F5014284538441
:1027B00064847584B701A601C5010E94B912811114
:1027C00002C080E06CC0F501838D948DC114D104EA
:1027D000E104F10471F44789508D618D728D0E947E
:1027E000A61A882371F3F501178A108E118E128EA6
:1027F0003AC0F50146815781608571859E012F5F42
:102800003F4F0E9401188823E1F249815A816B8170
:102810007C81F501838D948DFC012789203129F479
:1028200008EF1FEF20E030E004C008EF1FEF2FEFAC
:102830003FE04017510762077307A8F40E94A61AE9
:10284000882309F4BECFF5014681578160857185E3
:102850000FEF1FEF2FEF3FE0838D948D0E94F01854
:10286000882309F4AECFF501C38AD48AE58AF68AB3
:10287000848180688483C5010E945513882309F4EC
:10288000A0CFB701A6014C145D046E047F0410F4C0
:10289000B301A201C5010E94B91201C081E00F90ED
:1028A0000F900F900F90DF91CF911F910F91FF909C
:1028B000EF90DF90CF90BF90AF907F906F905F9040
:1028C0004F900895FF920F931F93CF93DF93EC01E6
:1028D000F42E80E2689FF0011124EF55FD4F8385AF
:1028E000817129F0842F827411F080E053C06A8BCB
:1028F0008091060190910701A0910801B091090112
:102900008E879F87A88BB98B4489558960E070E0DA
:10291000BA0155274427028D138D20E030E0402B6B
:10292000512B622B732B4F8B588F698F7A8F838536
:10293000887151F4048D158D268D378D0B8B1C8B72
:102940002D8B3E8B81E00CC0803179F69E012D5E8F
:102950003F4F8B8D9C8D0E948518882331F284E037
:102960008D838F2D8F708C831E821F82188619860F
:102970001A861B861C861D86F6FE0BC040E050E0C2
:10298000BA01CE01DF91CF911F910F91FF900C946E
:10299000AA1381E0DF91CF911F910F91FF900895CD
:1029A000AF92BF92CF92DF92EF92FF920F931F935D
:1029B000CF93DF93CDB7DEB72B970FB6F894DEBF7A
:1029C0000FBECDBF7C016B01CA01B22EF70125817C
:1029D0002111B9C0BE016F5F7F4F0E94DE108823B6
:1029E00009F4B1C0F601838D948DF701948F838F24
:1029F000F6011682178210861186128613861486B7
:102A00001586A12CF60102851385248535858389D9
:102A10009489A589B689081719072A073B07E8F59D
:102A200045E036952795179507954A95D1F70F708C
:102A3000C6010E946E12009709F485C0FC01208136
:102A4000222311F0253EB9F4A1100EC0F701028B2C
:102A500040910601509107016091080170910901B0
:102A600046875787608B718BFC018081AA24A394D1
:102A70008111C8CF12C04BE050E0BC01CE010196DD
:102A80000E94DE24892B09F0BDCF8B2D807380330B
:102A900009F459C04B2D602F52C08B2D82718231A9
:102AA00009F051C0AA2041F061E0C7010E94C510A1
:102AB0008C01009779F447C0F6018581823009F4D2
:102AC00042C0C6010E9464108823E9F1F701128A0E
:102AD00001EA12E080E2F80111928A95E9F78BE0B1
:102AE000FE013196D80101900D928A95E1F7E091AF
:102AF0009802F0919902309739F0B801625F7F4FE8
:102B0000C8014096099509C081E298E2F801918BCD
:102B1000808B80E098E097878687F801808991898B
:102B2000938B828B918F808F86859785978B868BF1
:102B30000E946517882339F04B2DF7016289C70180
:102B40000E94621401C080E02B960FB6F894DEBF9D
:102B50000FBECDBFDF91CF911F910F91FF90EF90EE
:102B6000DF90CF90BF90AF9008952F923F924F92F9
:102B70005F926F927F928F929F92AF92BF92CF920D
:102B8000DF92EF92FF920F931F93CF93DF9300D0CA
:102B900000D01F92CDB7DEB78C017B013A01DC017A
:102BA00015968C9115978130C9F414968C9181FFFC
:102BB00015C082FF1BC0F801438954896589768955
:102BC00082859385A485B58584179507A607B707E1
:102BD00069F0C8010E94B912811108C081E090E03B
:102BE000F8019383828380E090E046C1630180C056
:102BF000D8015B968D919C915C97FC01F481F1501A
:102C0000B501A40129E076956795579547952A95D2
:102C1000D1F7F423FD8321E09222FF2309F474C04D
:102C200080E092E08819990956018C159D0508F4F9
:102C30005C01D8015B96ED91FC915C9716962D9006
:102C40003D904D905C901997B2E02B1A31084108E5
:102C50005108058404C0220C331C441C551C0A94E2
:102C6000D2F786859785A089B189280E391E4A1E1C
:102C70005B1EED812E0E311C411C511CA114F2E093
:102C8000BF0609F088C08091060190910701A091CC
:102C90000801B091090182159305A405B50559F401
:102CA0008FEF9FEFDC018093060190930701A093C3
:102CB0000801B09309019701B201A10180919F021F
:102CC0009091A0020E94E60F882309F487CF9EEF1F
:102CD000F91ACA18DB08F80182859385A485B585A1
:102CE0008A0D9B1DA11DB11D82879387A487B5877F
:102CF000D8011A968D909D90AD90BC901D97C114EF
:102D0000D10409F075CF8AC08114910409F088CFED
:102D100016964D915D916D917C91199741155105D4
:102D20006105710559F457968D919D910D90BC9157
:102D3000A02D0097A105B10541F521C09E012F5F8F
:102D40003F4F0E940118882309F44ECF89819A8150
:102D5000AB81BC81F801238D348DF90127892031A5
:102D600029F448EF5FEF60E070E004C048EF5FEFE8
:102D70006FEF7FE084179507A607B70730F0C8010B
:102D80000E943A1081114CCF29CFF8018683978396
:102D9000A087B18745CF8114910429F5D8011A96EF
:102DA0004D915D916D917C911D9753968D919D9163
:102DB0000D90BC91A02D481759076A077B0798F022
:102DC0000E946517882309F409CF209206013092EA
:102DD0000701409208015092090180919E02816092
:102DE00080939E0208C041E0C201B1010E94A01779
:102DF000882309F4F3CEC4018F559D4FD7019C0160
:102E00002A0D3B1DFC01E217F30719F04D91419388
:102E1000FACFE81BF90BEE0EFF1E5BCF53968D9198
:102E20009D910D90BC91A02DF801248188159905E4
:102E3000AA05BB0538F4838A948AA58AB68A2068D5
:102E400024830CC08091980290919902892B31F0D3
:102E50006114710419F02068F8012483D8011496D4
:102E60008C9183FD02C0C30107C0C8010E945513A5
:102E7000882309F4B3CEF7CF0F900F900F900F90E7
:102E80000F90DF91CF911F910F91FF90EF90DF9006
:102E9000CF90BF90AF909F908F907F906F905F90FA
:102EA0004F903F902F900895CF93DF931F92CDB70F
:102EB000DEB7698341E050E0BE016F5F7F4F0E9443
:102EC000B5150F90DF91CF91089580919E028823D0
:102ED00099F14091060150910701609108017091AC
:102EE000090121EA32E080919F029091A0020E94A4
:102EF000E60F882319F140919A0250919B0260914C
:102F00009C0270919D02411551056105710591F07A
:102F100021EA32E080919F029091A0020E94E60F88
:102F2000882361F010929A0210929B0210929C02E8
:102F300010929D0210929E0281E0089580E0089513
:102F4000CF92DF92EF92FF92CF936B017C01C42F5F
:102F50008091060190910701A0910801B0910901AB
:102F60008C159D05AE05BF05D1F00E946517811136
:102F700002C080E01AC021EA32E0B701A6018091C8
:102F80009F029091A0020E94930F882391F3C09218
:102F90000601D0920701E0920801F09209018091A8
:102FA0009E028C2B80939E0281E0CF91FF90EF9048
:102FB000DF90CF900895CF92DF92EF92FF926B0156
:102FC0007C010E9465178823B1F0E1EAF2E01192DA
:102FD00084E0E13AF807D9F7C0920601D0920701E0
:102FE000E0920801F092090180919E028160809335
:102FF0009E0281E001C080E0FF90EF90DF90CF90D3
:1030000008958F929F92AF92BF92CF92DF92EF92EC
:10301000FF920F931F93CF93DF938C016A017B0183
:10302000E901FC0181859285A385B4850196A11DE6
:10303000B11D84179507A607B70710F480E058C0A4
:10304000F80143895489658976898789803129F413
:10305000BB27AF2D9E2D8D2D09C0D701C60127E0BE
:10306000B695A795979587952A95D1F74C015D015F
:10307000840E951EA61EB71EC501B40180900601E0
:1030800090900701A0900801B0900901681579059A
:103090008A059B0589F4F8018789803199F4DD243C
:1030A000EE24FF24F601EE0FFF1FEF55FD4F808148
:1030B0009181A0E0B0E017C040E00E94A01781110C
:1030C000EACFBCCFE894C7F8DD24EE24FF24F60154
:1030D000EE0FFF1FEE0FFF1FEF55FD4F8081918117
:1030E000A281B381BF7088839983AA83BB8381E067
:1030F000DF91CF911F910F91FF90EF90DF90CF90D4
:10310000BF90AF909F908F9008954F925F926F9273
:103110007F92AF92BF92CF92DF92EF92FF920F9386
:103120001F93CF93DF9300D000D0CDB7DEB78C01D3
:1031300049835A836B837C835901C12CD12C76013E
:10314000412C42E0542E612C712C49815A816B81B3
:103150007C819E012F5F3F4FC8010E940118882388
:1031600059F1D301C201F801058404C0880F991FE9
:10317000AA1FBB1F0A94D2F7C80ED91EEA1EFB1E57
:1031800049815A816B817C818789803129F488EF5C
:103190009FEFA0E0B0E004C088EF9FEFAFEFBFE08B
:1031A000481759076A077B0780F2F501C082D18270
:1031B000E282F38281E001C080E00F900F900F90D7
:1031C0000F90DF91CF911F910F91FF90EF90DF90C3
:1031D000CF90BF90AF907F906F905F904F90089589
:1031E0004F925F926F927F928F929F92AF92BF9217
:1031F000CF92DF92EF92FF920F931F93CF93DF93C3
:10320000EC016A017B012801390142305105610559
:10321000710508F474C049855A856B857C854F5FBC
:103220005F4F6F4F7F4F4C155D056E057F0508F4AE
:1032300066C08B889C88AD88BE888F89803129F4D0
:1032400077276F2D5E2D4D2D09C0B701A601E7E050
:103250007695679557954795EA95D1F7840E951E13
:10326000A61EB71E4091060150910701609108010A
:103270007091090184169506A606B70671F48F8928
:10328000803199F4DD24EE24FF24F601EE0FFF1FB8
:10329000EF55FD4F5182408218C040E0C501B40196
:1032A0000E94A0178111EBCF2AC0E894C7F8DD2453
:1032B000EE24FF24F601EE0FFF1FEE0FFF1FEF5568
:1032C000FD4F408251826282738280919E028160B2
:1032D00080939E028A89823080F08D819E81AF81A9
:1032E000B885880D991DAA1DBB1D80939A029093E5
:1032F0009B02A0939C02B0939D0281E001C080E0FC
:10330000DF91CF911F910F91FF90EF90DF90CF90C1
:10331000BF90AF909F908F907F906F905F904F90F5
:1033200008952F923F924F925F926F927F929F9259
:10333000AF92BF92CF92DF92EF92FF920F931F93C3
:10334000CF93DF93CDB7DEB760970FB6F894DEBFAB
:103350000FBECDBF5C014D875E876F87788B1901EB
:10336000D9014D905D906D907C90411451046104A1
:10337000710431F0BFEF4B1A5B0A6B0A7B0A10C075
:10338000FC014080518062807380992493940D8564
:103390001E852F853889013011052105310509F079
:1033A000912CD50119962D913D914D915C911C97D1
:1033B0002F5F3F4F4F4F5F4F29873A874B875C877F
:1033C000730162011D821E821F821886F5018185AC
:1033D0009285A385B4850D811E812F8138850817BC
:1033E00019072A073B0708F056C029853A854B85FF
:1033F0005C852C153D054E055F0550F4A2E0CA2EF4
:10340000D12CE12CF12CB2E04B2E512C612C712CE3
:103410009E012F5F3F4FB701A601C5010E94011811
:103420008823C9F149815A816B817C81D701C6010A
:103430000196A11DB11D452B462B472B19F02C01E0
:103440003D010FC0AC01BD0144195509660977095A
:103450000D851E852F853889401751076207730730
:1034600079F02D813E814F8158852F5F3F4F4F4F1F
:103470005F4F2D833E834F8358876C017D01A6CF1C
:103480000FEF1FEF2FEF3FE0B701A601C5010E942C
:10349000F018811118C080E041C0D701C601019722
:1034A000A109B1098D839E83AF83B88797018601F7
:1034B000AC01BD01C5010E94F018882361F3CD80E5
:1034C000DE80EF80F8844C145D046E047F0428F3E2
:1034D000D1014D915D916D917C9141155105610531
:1034E000710599F4F10140825182628273829920C0
:1034F000A1F0FFEF4F1A5F0A6F0A7F0AD5014D92C4
:103500005D926D927C92139708C093018201C50170
:103510000E94F0188111E6CFBECF81E060960FB611
:10352000F894DEBF0FBECDBFDF91CF911F910F91F9
:10353000FF90EF90DF90CF90BF90AF909F907F90E3
:103540006F905F904F903F902F900895AF92BF92F1
:10355000CF92DF92EF92FF920F931F93CF93DF935F
:1035600000D000D0CDB7DEB75C016A017B0182E0FC
:1035700090E0A0E0B0E0F50180839183A283B38363
:103580009E012F5F3F4FB701A601C5010E940118A0
:10359000882311F100E010E09801B701A601C501F0
:1035A0000E94F0188823C1F0C980DA80EB80FC808B
:1035B000F5018789803129F488EF9FEFA0E0B0E022
:1035C00004C088EF9FEFAFEFBFE0C816D906EA0648
:1035D000FB06B0F281E001C080E00F900F900F90E9
:1035E0000F90DF91CF911F910F91FF90EF90DF909F
:1035F000CF90BF90AF9008958F929F92AF92BF925D
:10360000CF92DF92EF92FF920F931F93CF93DF93AE
:10361000EC01142F7093A00260939F02442341F1A8
:10362000453010F080E0EFC040E060E070E0CB019A
:103630000E94A0178823B1F320E1129FF00111240A
:10364000E15BFB4F80818F7769F784859585A6853F
:10365000B78584369105A105B10520F3C084D184D6
:10366000E284F384C114D104E104F10421F4DACF3B
:10367000C12CD12C760140E0C701B6010E94A017F1
:10368000882381F28091AC029091AD028115924025
:1036900049F63091B102332329F28091AF02909123
:1036A000B002892B09F4BECF2091AE02222309F487
:1036B000B9CF3A8B2C831D8630E041E050E06D8518
:1036C000062FCA01062E02C0880F991F0A94E2F73E
:1036D0002817390731F081E0860F8D87683078F33D
:1036E000A1CF2091B7023091B8022115310519F010
:1036F00040E050E008C02091C5023091C6024091E0
:10370000C7025091C8022D833E834F835887809112
:10371000AF029091B00246015701880E991EA11C7C
:10372000B11C8B8A9C8AAD8ABE8AE091B202F0916C
:10373000B302F98FE88FA091B102B0E00E94B822E5
:10374000680D791D8A1D9B1D6A8F7B8F8C8F9D8FC5
:1037500015E0EE0FFF1F1A95E1F7E150FE4FEF2F36
:10376000FF27E695DC01CB018E0F9F1FA11DB11D28
:103770008E879F87A88BB98B8090B4029090B502FA
:103780008114910419F0A12CB12C08C08090C102C1
:103790009090C202A090C302B090C402A70196010B
:1037A000281B390B4A0B5B0BDA01C901880D991DE7
:1037B000AA1DBB1D04C0B695A795979587950A9538
:1037C000D2F789879A87AB87BC87853F3FE093070D
:1037D000A105B10510F48CE014C0853F9F4FA105F1
:1037E000B10510F480E10DC08091CD029091CE0220
:1037F000A091CF02B091D0028A8F9B8FAC8FBD8FEA
:1038000080E28F8B81E0DF91CF911F910F91FF902C
:10381000EF90DF90CF90BF90AF909F908F900895E2
:103820001F920F920FB60F9211242F933F938F93F5
:103830009F93AF93BF938091A2049091A304A09112
:10384000A404B091A5043091A10423E0230F2D37E7
:1038500020F40196A11DB11D05C026E8230F029694
:10386000A11DB11D2093A1048093A2049093A304F1
:10387000A093A404B093A5048091A6049091A704FA
:10388000A091A804B091A9040196A11DB11D809337
:10389000A6049093A704A093A804B093A904BF9191
:1038A000AF919F918F913F912F910F900FBE0F90ED
:1038B0001F9018952FB7F8946091A2047091A304FB
:1038C0008091A4049091A5042FBF08953FB7F89468
:1038D0008091A6049091A704A091A804B091A90496
:1038E00026B5A89B05C02F3F19F00196A11DB11D5B
:1038F0003FBF6627782F892F9A2F620F711D811D78
:10390000911D42E0660F771F881F991F4A95D1F7D6
:103910000895CF92DF92EF92FF92CF93DF936B01E6
:103920007C010E94661CEB01C114D104E104F10486
:1039300089F00E9440210E94661C6C1B7D0B683E32
:10394000734090F381E0C81AD108E108F108C8512A
:10395000DC4FEACFDF91CF91FF90EF90DF90CF90D7
:103960000895789484B5826084BD84B5816084BDF7
:1039700085B5826085BD85B5816085BDEEE6F0E0E8
:10398000808181608083E1E8F0E010828081826044
:103990008083808181608083E0E8F0E080818160C5
:1039A0008083E1EBF0E0808184608083E0EBF0E0F5
:1039B000808181608083EAE7F0E080818460808399
:1039C0008081826080838081816080838081806843
:1039D00080831092C10008958E3008F08E50877059
:1039E00020910A0190E4299F90011124822B809359
:1039F0007C0080917A00806480937A0080917A00C4
:103A000086FDFCCF809178002091790090E0922B88
:103A10000895833081F028F4813099F08230A1F04C
:103A200008958730A9F08830B9F08430D1F48091BE
:103A300080008F7D03C0809180008F77809380000D
:103A4000089584B58F7702C084B58F7D84BD0895B5
:103A50008091B0008F7703C08091B0008F7D8093FC
:103A6000B0000895CF93DF9390E0FC01ED52FF4F3B
:103A70002491FC01E951FF4F8491882349F190E0A2
:103A8000880F991FFC01EB5FFE4FA591B491855003
:103A90009F4FFC01C591D4919FB7611108C0F89464
:103AA0008C91209582238C93888182230AC0623076
:103AB00051F4F8948C91322F309583238C93888124
:103AC000822B888304C0F8948C91822B8C939FBFA7
:103AD000DF91CF9108950F931F93CF93DF931F92A0
:103AE000CDB7DEB7282F30E0F901E154FF4F8491C4
:103AF000F901ED52FF4F1491F901E951FF4F049183
:103B00000023C9F0882321F069830E94091D69817F
:103B1000E02FF0E0EE0FFF1FE550FF4FA591B491AD
:103B20009FB7F8948C91611103C01095812301C057
:103B3000812B8C939FBF0F90DF91CF911F910F919D
:103B40000895FC01818D228D90E0805C9F4F821B47
:103B500091098F7399270895FC01918D828D981793
:103B600031F0828DE80FF11D858D90E008958FEF83
:103B70009FEF0895FC01918D828D981761F0828DE1
:103B8000DF01A80FB11D5D968C91928D9F5F9F7391
:103B9000928F90E008958FEF9FEF08958CED9EE156
:103BA000892B49F080E090E0892B29F00E94DC1EEF
:103BB00081110C9400000895FC01848DDF01A80F91
:103BC000B11DA35ABF4F2C91848D90E001968F7345
:103BD0009927848FA689B7892C93A089B1898C9164
:103BE00080648C93938D848D981306C00288F3892A
:103BF000E02D80818F7D80830895CF93DF93EC014A
:103C0000888D8823C9F0EA89FB89808185FD05C0FC
:103C1000A889B9898C9186FD0FC00FB607FCF5CF36
:103C2000808185FFF2CFA889B9898C9185FFEDCF7E
:103C3000CE010E94DC1DE7CFDF91CF910895CF9296
:103C4000DF92FF920F931F93CF93DF931F92CDB715
:103C5000DEB76C0181E0D60158968C9358975B963D
:103C60009C915B975C968C915C97981307C05096DB
:103C7000ED91FC915197808185FD2EC0F601038D59
:103C800010E00F5F1F4F0F731127F02EF601848D88
:103C9000F81211C00FB607FCF9CFD6015096ED917E
:103CA000FC915197808185FFF1CFC60169830E9405
:103CB000DC1D6981EBCF838DE80FF11DE35AFF4FC7
:103CC0006083D6015B960C935B975296ED91FC91C5
:103CD0005397808180620CC0D6015696ED91FC917D
:103CE000579760835096ED91FC9151978081806445
:103CF000808381E090E00F90DF91CF911F910F9131
:103D0000FF90DF90CF9008951F920F920FB60F9201
:103D100011242F938F939F93EF93FF93E091BA0415
:103D2000F091BB048081E091C004F091C10482FD58
:103D300012C090818091C3048F5F8F732091C4045F
:103D4000821751F0E091C304F0E0E655FB4F958FE8
:103D50008093C30401C08081FF91EF919F918F9167
:103D60002F910F900FBE0F901F9018951F920F92DA
:103D70000FB60F9211242F933F934F935F936F933E
:103D80007F938F939F93AF93BF93EF93FF938AEAB1
:103D900094E00E94DC1DFF91EF91BF91AF919F9144
:103DA0008F917F916F915F914F913F912F910F90E4
:103DB0000FBE0F901F9018958AEA94E00E94A11DF3
:103DC00021E0892B09F420E0822F08951092AD04A0
:103DD0001092AC0488EE93E0A0E0B0E08093AE04D3
:103DE0009093AF04A093B004B093B1048BE691E03C
:103DF0009093AB048093AA0485EC90E09093B70471
:103E00008093B60484EC90E09093B9048093B80456
:103E100080EC90E09093BB048093BA0481EC90E036
:103E20009093BD048093BC0482EC90E09093BF0417
:103E30008093BE0486EC90E09093C1048093C0040C
:103E40001092C3041092C4041092C5041092C604C8
:103E50000895CF92DF92EF92FF920F931F93CF932B
:103E6000DF937C016A01EB0100E010E00C151D05F9
:103E700071F06991D701ED91FC910190F081E02DF5
:103E8000C7010995892B19F00F5F1F4FEFCFC801AC
:103E9000DF91CF911F910F91FF90EF90DF90CF9026
:103EA00008956115710581F0DB010D900020E9F79F
:103EB000AD0141505109461B570BDC01ED91FC91BE
:103EC0000280F381E02D099480E090E00895DC0108
:103ED000ED91FC91DB0114964D915C9115976D91DC
:103EE0007C910280F381E02D099467E771E00C94E6
:103EF000511F0F931F93CF93DF93EC010E94671F15
:103F00008C01CE010E94751F800F911FDF91CF9110
:103F10001F910F9108950F931F93CF93DF93EC019F
:103F20000E94511F8C01CE010E94751F800F911FAE
:103F3000DF91CF911F910F910895FC01DB01118258
:103F4000108213821282158214828D919C91119796
:103F50009183808312968D919C9113979383828392
:103F600014968D919C9115979583848311961C923C
:103F70001E9213961C921E92129715961C921E92D8
:103F800014970895FC01808191810C947C23CF9338
:103F9000DF93EC0188819981009711F00E947C23C6
:103FA000198218821D821C821B821A82DF91CF9196
:103FB00008950F931F93CF93DF93EC018B016F5FF5
:103FC0007F4F888199810E940B24009731F099835B
:103FD00088831B830A8381E001C080E0DF91CF9159
:103FE0001F910F910895CF93DF93EC018881998100
:103FF000892B29F08A819B818617970760F4CE016F
:104000000E94D91F882341F08C819D81892B19F44E
:10401000E881F981108281E0DF91CF910895EF92DC
:10402000FF920F931F93CF93DF93EC017B018A01E3
:10403000BA010E94F31F811104C0CE010E94C71F64
:1040400007C01D830C83B701888199810E94FF24DA
:10405000CE01DF91CF911F910F91FF90EF900895C6
:10406000FC01118210821382128215821482611562
:10407000710559F0FB0101900020E9F7AF014150B3
:104080005109461B570B0C940F200895CF93DF93D3
:10409000EC016115710561F0FB0101900020E9F769
:1040A000AF0141505109461B570B0E940F2002C01F
:1040B0000E94C71FCE01DF91CF9108950F931F93E8
:1040C000CF93DF93CDB7DEB762970FB6F894DEBF1C
:1040D0000FBECDBF8C01CB01F8011182108213827B
:1040E00012821582148250E0BE016F5F7F4F0E94E2
:1040F0001525BE016F5F7F4FC8010E944620629662
:104100000FB6F894DEBF0FBECDBFDF91CF911F91E8
:104110000F910895EF92FF920F931F93CF93DF9328
:10412000EC017B010C811D816115710511F480E0AA
:1041300016C04115510591F0040F151FB8010E94DA
:10414000F31F8823A1F3288139818C819D81B701D8
:10415000820F931F0E94FF241D830C8381E0DF9157
:10416000CF911F910F91FF90EF900895FB01448133
:104170005581608171810C948A206115710559F017
:10418000FB0101900020E9F7AF0141505109461BA6
:10419000570B0C948A2080E00895EF92FF920F93C2
:1041A0001F93CF93DF93CDB7DEB727970FB6F89461
:1041B000DEBF0FBECDBF7C01CB014AE08E010F5F99
:1041C0001F4FB8010E944D25F80101900020E9F72A
:1041D000AF0141505109401B510BB801C7010E946A
:1041E0008A2027960FB6F894DEBF0FBECDBFDF91B1
:1041F000CF911F910F91FF90EF900895EF92FF9252
:104200000F931F93CF93DF93CDB7DEB72D970FB6E4
:10421000F894DEBF0FBECDBF7C01CB01BA012AE00E
:104220008E010F5F1F4FA8010E942B25F8010190FE
:104230000020E9F7AF0141505109401B510BB80173
:10424000C7010E948A202D960FB6F894DEBF0FBEDC
:10425000CDBFDF91CF911F910F91FF90EF90089507
:1042600008950E94B11C0E9430210E943301CEECBF
:10427000DDE10E9455022097E1F30E94CE1DF9CFA7
:1042800008955058BB27AA270ED0B4C0A5D030F04F
:10429000AAD020F031F49F3F11F41EF49AC00EF41E
:1042A000E095E7FB90C0E92FB6D080F3BA1762071C
:1042B00073078407950718F071F49EF5CEC00EF4CD
:1042C000E0950B2EBA2FA02D0B01B90190010C0126
:1042D000CA01A0011124FF27591B99F0593F50F43E
:1042E000503E68F11A16F040A22F232F342F442796
:1042F000585FF3CF469537952795A795F04053958E
:10430000C9F77EF41F16BA0B620B730B840BBAF05D
:104310009150A1F0FF0FBB1F661F771F881FC2F7C8
:104320000EC0BA0F621F731F841F48F487957795DC
:104330006795B795F7959E3F08F0B3CF9395880F93
:1043400008F09927EE0F979587950895E89409C08E
:1043500097FB3EF490958095709561957F4F8F4FB8
:104360009F4F9923A9F0F92F96E9BB279395F695CE
:10437000879577956795B795F111F8CFFAF4BB0F4C
:1043800011F460FF1BC06F5F7F4F8F4F9F4F16C0B0
:10439000882311F096E911C0772321F09EE8872F3A
:1043A000762F05C0662371F096E8862F70E060E0F6
:1043B0002AF09A95660F771F881FDAF7880F96956F
:1043C000879597F9089597F99F6780E870E060E016
:1043D00008959FEF80EC089500240A94161617069E
:1043E00018060906089500240A94121613061406E6
:1043F00005060895092E0394000C11F4882352F049
:10440000BB0F40F4BF2B11F460FF04C06F5F7F4F00
:104410008F4F9F4F089557FD9058440F551F59F0E7
:104420005F3F71F04795880F97FB991F61F09F3FA1
:1044300079F087950895121613061406551FF2CFCA
:104440004695F1DF08C0161617061806991FF1CF1A
:1044500086957105610508940895E894BB27662741
:104460007727CB0197F908950BD0C4CFB5DF28F09B
:10447000BADF18F0952309F0A6CFABCF1124EECF09
:10448000CADFA0F3959FD1F3950F50E0551F629FAF
:10449000F001729FBB27F00DB11D639FAA27F00D9D
:1044A000B11DAA1F649F6627B00DA11D661F829FC4
:1044B0002227B00DA11D621F739FB00DA11D621FA9
:1044C000839FA00D611D221F749F3327A00D611DC6
:1044D000231F849F600D211D822F762F6A2F1124A8
:1044E0009F5750408AF0E1F088234AF0EE0FFF1FFB
:1044F000BB1F661F771F881F91505040A9F79E3F32
:10450000510570F060CFAACF5F3FECF3983EDCF32B
:10451000869577956795B795F795E7959F5FC1F76E
:10452000FE2B880F911D9695879597F90895991BF5
:1045300079E004C0991F961708F0961B881F7A959A
:10454000C9F780950895EE0FFF1F0590F491E02DB7
:104550000994A29FB001B39FC001A39F700D811D5C
:104560001124911DB29F700D811D1124911D08957C
:104570000E94A922A59F900DB49F900DA49F800D2D
:10458000911D11240895EF920F931F93CF93DF9302
:10459000E80147FF02C034E101C034E0E42FFF2707
:1045A000E7FDF095F7FF03C0F195E195F109E32EE2
:1045B000022F2E2FAE010E946725CE01DF91CF91F1
:1045C0001F910F91EF900895CF93DF938230910563
:1045D00010F482E090E0E0914905F0914A0520E076
:1045E00030E0A0E0B0E0309739F1408151814817C8
:1045F0005907B8F04817590771F4828193811097D1
:1046000029F013969C938E9312972CC090934A0591
:104610008093490527C02115310531F04217530712
:1046200018F0A901DB0101C0EF019A01BD01DF0112
:104630000280F381E02DD7CF21153105F9F0281B39
:10464000390B2430310580F48A819B816115710515
:1046500021F0FB019383828304C090934A058093E9
:104660004905FE01329644C0FE01E20FF31F81931B
:10467000919322503109398328833AC0209147050C
:1046800030914805232B41F4209102013091030120
:104690003093480520934705209100013091010196
:1046A0002115310541F42DB73EB7409104015091D9
:1046B0000501241B350BE0914705F0914805E217F1
:1046C000F307A0F42E1B3F0B2817390778F0AC0135
:1046D0004E5F5F4F2417350748F04E0F5F1F509312
:1046E0004805409347058193919302C0E0E0F0E0D4
:1046F000CF01DF91CF910895CF93DF93009709F415
:1047000087C0FC01329713821282C0914905D09173
:104710004A05209781F420813181280F391F80912B
:104720004705909148058217930779F5F09348055E
:10473000E09347056DC0DE0120E030E0AE17BF0713
:1047400050F412964D915C9113979D0141155105BE
:1047500009F1DA01F3CFB383A28340815181840F41
:10476000951F8A179B0771F48D919C911197840F67
:10477000951F02969183808312968D919C91139739
:10478000938382832115310529F4F0934A05E09340
:1047900049053EC0D9011396FC93EE9312974D91B3
:1047A0005D91A40FB51FEA17FB0779F48081918111
:1047B000840F951F0296D90111969C938E93828146
:1047C000938113969C938E931297E0E0F0E08A8198
:1047D0009B81009719F0FE01EC01F9CFCE01029602
:1047E00028813981820F931F209147053091480518
:1047F0002817390769F4309729F410924A05109266
:10480000490502C013821282D0934805C093470520
:10481000DF91CF910895A0E0B0E0E1E1F4E20C94E3
:10482000D127EC01CB01209719F40E94E422B8C0F3
:10483000FE01E60FF71F9E0122503109E217F30730
:1048400008F4ACC0D9010D911C91119706171707F8
:10485000B8F00530110508F49FC0A8014450510973
:104860004617570708F498C002501109061B170B8A
:10487000019311936D937C93CF010E947C238CC094
:104880005B01A01AB10A4E01800E911EA09149054C
:10489000B0914A05612C712C60E070E0109709F42A
:1048A00049C0A815B905C9F5ED90FC9011976701AD
:1048B00042E0C40ED11CCA14DB0478F147018A1807
:1048C0009B08640142E0C40ED11C1296BC90129762
:1048D0001396AC91B5E0CB16D10440F0B282A3831D
:1048E00091828082D9018D939C9309C00E5F1F4FE6
:1048F0000E0D1F1DF90111830083EB2DFA2F611599
:10490000710531F0DB011396FC93EE93129744C0CE
:10491000F0934A05E09349053FC06D917C91119752
:104920006616770608F43B01BD0112960D90BC9106
:10493000A02DB4CF609147057091480568157905A1
:10494000E9F468167906D0F4409100015091010114
:104950004115510541F44DB75EB760910401709166
:104960000501461B570BE417F507C0F4F093480503
:10497000E0934705F901918380830EC00E94E422F1
:104980007C01009759F0A801BE010E94EB24CE01E2
:104990000E947C23C70104C0CE0102C080E090E0E9
:1049A000CDB7DEB7EEE00C94ED27FB01DC0102C0D1
:1049B00005900D9241505040D8F70895FB01DC015D
:1049C00004C08D910190801921F441505040C8F7E6
:1049D000881B990B0895FB01DC0102C001900D9228
:1049E00041505040D8F70895FC018191861721F07D
:1049F0008823D9F7992708953197CF010895FB01AE
:104A0000DC0101900D920020E1F70895FB01DC012B
:104A10004150504048F001900D920020C9F701C06C
:104A20001D9241505040E0F708954532510520F461
:104A3000423010F00C942025FB011082CB01089528
:104A4000BB274A3031F4992322F4BDE29095819539
:104A50009F4F0C944E25BB27FA01A62F62177105B4
:104A600081059105330B30FB66F0AA27660F771F8F
:104A7000881F991FAA1FA21710F0A21B6395385018
:104A8000A9F7A05DAA3308F0A95DA19336F7B1118B
:104A9000B1931082CA010C94BD27BB27FB01552797
:104AA000AA27880F991FAA1FA41710F0A41B83958B
:104AB0005051B9F7A05DAA3308F0A95DA193009702
:104AC00079F7B111B1931192CB010C94BD276F927C
:104AD0007F929F92AF92BF92CF92DF92EF92FF921E
:104AE0000F931F93CF93DF93CDB7DEB729970FB600
:104AF000F894DEBF0FBECDBF6A01B22E102F0C336B
:104B000020F4FF24F394F00E02C04CE3F42E0F2D9A
:104B100027E0AE014F5F5F4F0E94E5267981272F86
:104B20002970213031F0E1FC06C0E0FC06C060E0F5
:104B300005C06DE203C06BE201C060E2AE2DA07162
:104B400073FF36C0662311F084E001C083E08B154B
:104B500010F4B81A01C0B12CA1110BC0F6018B2DB5
:104B600090E2882319F091938150FBCFCB0CD11C9C
:104B7000B12C662331F0F601608396012F5F3F4F21
:104B80006901C6010396E2FE05C02EE4F60120830A
:104B900031E404C02EE6F601208331E6318322831E
:104BA000FC012B2D30E22223F1F131932150FBCF78
:104BB00072FF40C0662311F084E001C083E08B15D2
:104BC00010F4B81A01C0B12CA1110BC0F6018B2D45
:104BD00090E2882319F091938150FBCFCB0CD11C2C
:104BE000B12C662331F0F601608396012F5F3F4FB1
:104BF0006901C6010396E2FE07C029E4F60120839D
:104C00002EE4218326E406C029E6F60120832EE661
:104C1000218326E62283FC012B2D30E2222319F08A
:104C200031932150FBCFFC01EB0DF11D10828EEF73
:104C30009FEFB7C0B1E0611101C0B0E04B2F50E071
:104C40001816190624F49C012F5F3F4F02C021E083
:104C500030E0240F351F112329F0412F50E04F5F22
:104C60005F4F02C040E050E0420F531F2B2D30E059
:104C70004217530714F4B41A01C0B12C2E2D287119
:104C800059F4F6012B2D30E2222319F031932150F3
:104C9000FBCFCB0CD11CB12CBB2331F0F6016083D0
:104CA00096012F5F3F4F6901A1110BC0F6012B2D1B
:104CB00030E3222319F031932150FBCFCB0CD11CD0
:104CC000B12CF80E0A81372F3071A32E74FF03C068
:104CD000013309F4FA941F142CF42F2D293018F005
:104CE00028E001C021E0682F392F97FF02C060E063
:104CF00030E0462F532F612C712C3EE2932EBC01E5
:104D0000621B71099B01DC01A41BB50BE1E0F0E023
:104D1000EC0FFD1FAE0FBF1FE12EF12CF194E194BB
:104D2000F1084F3FFFEF5F0731F4F6019082B601C3
:104D30006F5F7F4F6B01841795074CF02417350781
:104D400034F4BD01660D771DFB01118101C010E334
:104D500041505109FFEF6F1A7F0AB6016F5F7F4F15
:104D60004E155F0524F0F60110836B01DACF48176A
:104D7000590739F4063320F4053319F4A11001C0A2
:104D800011E3F6011083FB018B2D90E2882319F0CB
:104D900091938150FBCFFB01EB0DF11D108280E060
:104DA00090E029960FB6F894DEBF0FBECDBFDF911D
:104DB000CF911F910F91FF90EF90DF90CF90BF9018
:104DC000AF909F907F906F900895283008F027E073
:104DD0003327DA01990F311D87FD91600096610537
:104DE000710539F432602E5F3D9330E32A95E1F787
:104DF00008959F3F30F080387105610509F03C5FF0
:104E00003C5F3D93913008F08068911DDF93CF9314
:104E10001F930F93FF92EF92192F987F9695E92F8A
:104E200096959695E90FFF27E759FE4F9927332767
:104E3000EE24FF24A701E70105900894079428F4C5
:104E4000360FE71EF81E491F511D660F771F881F7A
:104E5000991F0694A1F70590079428F4E70EF81E11
:104E6000491F561FC11D770F881F991F661F069483
:104E7000A1F70590079428F4F80E491F561FC71F85
:104E8000D11D880F991F661F771F0694A1F7059003
:104E9000079420F4490F561FC71FD81F990F661F8C
:104EA000771F881F0694A9F784911095177041F019
:104EB000D695C79557954795F794E7941A95C1F7F6
:104EC000EFE0F1E068941590159135916591959119
:104ED00005907FE27395E118F10A430B560BC90B5D
:104EE000D009C0F7E10CF11E431F561FC91FD01D8A
:104EF0007EF4703311F48A95E6CFE894015030F0D7
:104F0000080F0AF40027021708F4202F2395022F18
:104F10007A3328F079E37D932A95E9F710C07D93E1
:104F20002A9589F60694979567953795179517945E
:104F3000E118F10A430B560BC90BD00998F02395E1
:104F40007E9173957A3308F070E37C932013B8F761
:104F50007E9170617D9330F0839571E37D9370E372
:104F60002A95E1F71124EF90FF900F911F91CF91B7
:104F7000DF91992787FD90950895DC01FC01672F4B
:104F800071917723E1F7329704C07C916D93708320
:104F90006291AE17BF07C8F308952F923F924F92C8
:104FA0005F926F927F928F929F92AF92BF92CF92B9
:104FB000DF92EF92FF920F931F93CF93DF93CDB7C2
:104FC000DEB7CA1BDB0B0FB6F894DEBF0FBECDBF3A
:104FD00009942A88398848885F846E847D848C840B
:104FE0009B84AA84B984C884DF80EE80FD800C8114
:104FF0001B81AA81B981CE0FD11D0FB6F894DEBFF7
:0C5000000FBECDBFED010895F894FFCF66
:10500C0000004B058000FFFFFFFF01436F756C64D0
:10501C006E27742066696E64205254430030003051
:10502C002E002D39393939002C002D0020003A0082
:10503C00646174616C6F67312E74787400000000C9
:10504C000058042B04000408041B042A040000006C
:10505C0000090A1F0AFA0A590A630A3A0A2F0000C1
:10506C000000005417291F000000001F1E291FA15B
:10507C001DBA1DAC1DFD1D0D0A006E616E00696E22
:06508C0066006F7666006D
:00000001FF
