:100000000C94FE000C9426010C9426010C942601FD
:100010000C9426010C9426010C94FA030C942601EE
:100020000C9426010C9426010C9426010C942601B4
:100030000C9426010C9426010C9426010C942601A4
:100040000C94EA1B0C9426010C945E1E0C94901EDA
:100050000C9426010C9426010C9426010C94260184
:100060000C941F060C94260175098D098D098B09C6
:100070008D0973098D098D098D0965098D098D0912
:100080007D09890987098D098D098D0985091F1C3D
:100090001F1E1F1E1F1F1E1F1E1F7C3C3E5E2B3D72
:1000A0003F2F5B5D3B2C2A225C0000000008000211
:1000B000010000030407000000000000000001022E
:1000C00004081020408001020408102001020408E6
:1000D00010200404040404040404020202020202C4
:1000E00003030303030300000000250028002B0086
:1000F00000000000240027002A0000407A10F35A74
:1001000000A0724E18090010A5D4E80000E8764857
:10011000170000E40B54020000CA9A3B000000E103
:10012000F505000080969800000040420F00000096
:10013000A08601000000102700000000E803000076
:1001400000006400000000000A0000000000010040
:10015000000000002C76D888DC674F0823DFC1DF61
:10016000AE59E1B1B796E5E3E453C63AE651997664
:1001700096E8E6C28426EB898C9B62ED407C6FFC9E
:10018000EFBC9C9F40F2BAA56FA5F490055A2AF7E0
:100190005C936B6CF9676DC11BFCE0E40D47FEF5E9
:1001A00020E6B500D0ED902E030094357705008051
:1001B000841E080000204E0A000000C80C333333B0
:1001C000330F986E12831141EF8D2114893BE65550
:1001D00016CFFEE6DB18D1844B381BF77C1D901D33
:1001E000A4BBE424203284725E228100C9F124EC95
:1001F000A1E53D273505D00C0E10C01E11241FBEF1
:10020000CFEFD8E0DEBFCDBF11E0A0E0B1E0EAE87B
:10021000FFE402C005900D92AA38B107D9F725E096
:10022000AAE8B1E001C01D92AF34B207E1F711E0D6
:10023000CCEFD1E004C02297FE010E946D22C43FA2
:10024000D107C9F70E94F9200C94C3270C94000031
:10025000CF92DF92EF92FF92CF93DF93CDB7DEB7CD
:1002600062970FB6F894DEBF0FBECDBF0E94820723
:100270008AE891E00E94D50781110CC04BE051E063
:1002800064E171E0CE0101960E944409CE0101961D
:100290000E9484070E94FE072D873E874F87588B58
:1002A000698B7A8B4BE051E064E171E0CE010796F7
:1002B0000E944409CE010D960E94A9096B017C01A0
:1002C000CE0107960E94A909C616D706E806F906C8
:1002D00060F44BE051E064E171E0CE0101960E94D0
:1002E0004409CE0101960E94840762960FB6F894E5
:1002F000DEBF0FBECDBFDF91CF91FF90EF90DF90BB
:10030000CF900895CF93DF93CAE0D0E061E089E019
:100310000E94451D68E270E080E090E00E94631C4E
:1003200060E089E00E94451D68E270E080E090E0B6
:100330000E94631C219751F760E086E00E94451DF2
:1003400061E086E00E940C1D60E086E00E94451D91
:1003500067E080E592E00E94290B8823E1F08CE8B9
:1003600091E00E94A5040E94280161E084E00E94BF
:100370000C1D61E088E00E940C1D61E084E00E9499
:10038000451D61E089E00E940C1D61E088E0DF917D
:10039000CF910C940C1DC4E1D0E061E089E00E9493
:1003A000451D68EE73E080E090E00E94631C60E011
:1003B00089E00E94451D68EE73E080E090E00E94B5
:1003C000631C219751F7CBCFCF92DF92EF92FF9230
:1003D0000F931F93CF93DF93CDB7DEB72C970FB654
:1003E000F894DEBF0FBECDBF8C016A014AE0CE019A
:1003F00007960E9426206CE771E0CE0101960E94CC
:10040000F81F8B859C858C159D0518F4E12CF12C2B
:1004100004C0BE01695F7F4F1CC08B859C8596011F
:10042000281B390BE216F30650F460E271E0CE01AE
:1004300001960E9485202FEFE21AF20AEECFBE014C
:10044000695F7F4FCE0101960E947E20BE016F5FE3
:100450007F4FC8010E94651FCE0101960E948A1F2E
:10046000CE0107960E948A1FC8012C960FB6F894F9
:10047000DEBF0FBECDBFDF91CF911F910F91FF90D7
:10048000EF90DF90CF9008950F931F93CF93DF935A
:100490008C01C0E0D0E0C017D10764F420E030E068
:1004A00040E050E069E070E08BE891E00E94B70323
:1004B0002196F1CFDF91CF911F910F9108958F92E7
:1004C0009F92AF92BF92CF92DF92EF92FF920F93E3
:1004D0001F93CF93DF93CDB7DEB7E1970FB6F894B4
:1004E000DEBF0FBECDBF60E088E00E94451D60E02A
:1004F00084E00E94451D81E10E94C61C5C0161E010
:1005000084E00E94451D0E9479086B017C018EE009
:100510000E94C61C4C010E94FE072CA73DA74EA7B7
:100520005FA768AB79ABCE018C960E94A9096CE7F6
:1005300071E0CE0186960E94F81FCE018C960E9433
:10054000A909AB01BC01CE0186960E94C6206BE2D0
:1005500071E0CE0186960E9485206CA570E0605304
:10056000784FCE0186960E9495206DE271E0CE0113
:1005700086960E9485206DA570E042E050E0CE0195
:1005800001960E94E401BE016F5F7F4FCE01869607
:100590000E947E20CE0101960E948A1F6DE271E0CA
:1005A000CE0186960E9485206EA570E042E050E064
:1005B000CE0101960E94E401BE016F5F7F4FCE0124
:1005C00086960E947E20CE0101960E948A1F6FE2CD
:1005D00071E0CE0186960E9485206FA570E042E012
:1005E00050E0CE0101960E94E401BE016F5F7F4F93
:1005F000CE0186960E947E20CE0101960E948A1F1F
:1006000061E371E0CE0186960E94852068A970E0C2
:1006100042E050E0CE0101960E94E401BE016F5F0E
:100620007F4FCE0186960E947E20CE0101960E94C9
:100630008A1F61E371E0CE0186960E94852069A938
:1006400070E042E050E0CE0101960E94E401BE015C
:100650006F5F7F4FCE0186960E947E20CE0101966D
:100660000E948A1F6BE271E0CE0186960E9485206F
:100670008E01045E1F4F22E045E0C701B6010E94D3
:100680008B22BC01CE0186960E9485206BE271E030
:10069000CE0186960E9485204AE0B401CE010196E3
:1006A0000E942620BE016F5F7F4FCE0186960E947A
:1006B0007E20CE0101960E948A1F6BE271E0CE017E
:1006C00086960E9485204AE0B501CE0101960E94DF
:1006D0002620BE016F5F7F4FCE0186960E947E204E
:1006E000CE0101960E948A1F23E143E351E060E5B9
:1006F00072E0CE0101960E94420CCE0101960E944A
:100700001C0B8823C9F0BE016A5D7F4FCE010196A4
:100710000E94531FCE0101960E940A0B61E089E0FE
:100720000E94451D68E270E080E090E00E94631C3A
:1007300060E089E00E94451D81E090E00E94440253
:10074000CE0186960E948A1FE1960FB6F894DEBF0E
:100750000FBECDBFDF91CF911F910F91FF90EF9012
:10076000DF90CF90BF90AF909F908F9008954115EC
:10077000510529F480917A008F7780937A006A304E
:100780007105B1F063FF02C088E201C088E06770C4
:10079000682B88E190E00FB6F894A89580936000EC
:1007A0000FBE609360008091600080648093600061
:1007B00083B7817F846083BF232B51F4F89483B780
:1007C000816083BF85B7806685BF8F7D85BF04C08C
:1007D000F89483B7816083BF7894889583B78E7FC0
:1007E00083BF7894452B29F480917A0080688093A8
:1007F0007A0008951F920F920FB60F9211248F93D3
:1008000088E10FB6F89480936000109260000FBEEC
:100810008F910F900FBE0F901F9018958091BC0183
:1008200090E02091BD01821B910908952091BD01A6
:100830008091BC01281750F4E22FF0E0E254FE4F03
:10084000808190E02F5F2093BD0108958FEF9FEF8F
:100850000895E091BD018091BC01E81730F4F0E00B
:10086000E254FE4F808190E008958FEF9FEF08954E
:100870000895CF92DF92EF92FF920F931F93CF9341
:10088000DF937C01CB018A0120919801222389F01A
:10089000EB016B01C40ED51ECC15DD0569F0699125
:1008A000D701ED91FC910190F081E02DC7010995F0
:1008B000F3CF642F0E94F605C801DF91CF911F91FD
:1008C0000F91FF90EF90DF90CF900895CF93DF933B
:1008D0001F92CDB7DEB76983209198012223D1F012
:1008E00020919901203240F021E030E0FC01338377
:1008F000228380E090E015C080919A01E82FF0E01B
:10090000E556FE4F998190838F5F80939A01809383
:10091000990105C061E0CE0101960E94F60581E0D3
:1009200090E00F90DF91CF910895FC011382128225
:1009300048EE53E060E070E044835583668377833C
:1009400084E491E09183808308951092BD01109218
:10095000BC0110929A01109299010C94390581E022
:10096000809398016093BB0110929A0110929901B3
:1009700008950C94AF040F93062F21E04091990144
:100980006BE971E08091BB010E949F0510929A0172
:1009900010929901109298010F9108958F929F9251
:1009A000AF92BF92CF92DF92EF92FF920F931F937D
:1009B000CF93DF93EC01F62ED42E48015901EE209F
:1009C00019F10E94AF041E2D143008F013E01150ED
:1009D000B8F0E881F98128E0129FB0011124A50147
:1009E000940104C056954795379527956A95D2F797
:1009F000CA01B9010190F081E02DCE010995E7CF40
:100A000060E0CE010E94BB044D2D413208F040E26F
:100A10002C2D6EEB71E08F2D0E9457051092BD01B9
:100A20008093BC01DF91CF911F910F91FF90EF90C8
:100A3000DF90CF90BF90AF909F908F900895CF920E
:100A4000EF920F931F93C22EE12C00E010E098016B
:100A50000E94CE041F910F91EF90CF90089521E056
:100A60000C941F0561E00C94BB048CE891E00C949D
:100A7000950410924B0281E0809349021092480243
:100A800061E082E10E94451D61E083E10E94451D15
:100A9000E9EBF0E080818E7F808380818D7F808391
:100AA00088E48093B80085E48093BC0008954132C7
:100AB00008F043C090914B029111FCCF91E09093CC
:100AC0004B02209349022FEF2093DE011092230264
:100AD000240F2093220290934A0290914A02880F99
:100AE000892B80934A0280914802813061F41092F0
:100AF000480280914A028093BB008091BC0083FD34
:100B0000F8CF85EC01C085EE8093BC0080914B024C
:100B10008130E1F380912302841710F44091230285
:100B200024E232E0FB01D9018A2F821B841718F4DA
:100B30008D918193F9CF842F089580E008950F93CC
:100B4000413208F04AC090914B029111FCCF92E0E3
:100B500090934B02009349029FEF9093DE01109215
:100B6000230240932202FB0164E272E0DB019A2F30
:100B7000961B941718F491919D93F9CF10924A0205
:100B800090914A02880F892B80934A0280914802F3
:100B9000813061F41092480280914A028093BB0038
:100BA0008091BC0083FDF8CF85EC01C085EE809379
:100BB000BC00222321F080914B028230E1F380912E
:100BC000DE018F3F61F08091DE01803251F0809133
:100BD000DE01803341F483E007C081E005C080E09E
:100BE00003C082E001C084E00F910895613298F45F
:100BF00020914B02243089F460930002FC0182E0D2
:100C000092E0DC012A2F281B261718F421912D933E
:100C1000F9CF80E0089581E0089582E0089585EDA0
:100C20008093BC008091BC0084FDFCCF10924B02ED
:100C3000089585EC8093BC0010924B0208951F929A
:100C40000F920FB60F9211242F933F934F935F9300
:100C50006F937F938F939F93AF93BF93EF93FF9384
:100C60008091B900887F803609F49EC078F588327B
:100C700009F45DC090F4803109F456C038F488233B
:100C800009F4F5C0883009F44FC0F5C0883109F483
:100C90004EC0803209F45FC0EEC0803409F46AC0EF
:100CA00058F4803309F457C0883309F0E4C08093C6
:100CB000DE010E941906DFC0803509F44FC0883577
:100CC00009F45DC0883409F0D6C0D3C0883909F46E
:100CD000C4C0A8F4883709F467C038F4883609F42A
:100CE00063C0803709F460C0C6C0883809F4B5C055
:100CF000803909F45FC0803809F0BDC05BC0803B1B
:100D000009F483C038F4803A09F466C0883A09F4DB
:100D10007CC0B1C0803C09F4A4C0883C09F4A1C0E7
:100D2000883B09F487C0A7C080914A0210C0909107
:100D3000230280912202981770F5E091230281E04E
:100D40008E0F80932302F0E0EC5DFD4F8081809355
:100D5000BB0085EC83C08093DE018BC0E091230251
:100D600081E08E0F809323028091BB00F0E0EC5D68
:100D7000FD4F808390912302809122026BC0E0910D
:100D8000230281E08E0F809323028091BB00F0E06C
:100D9000EC5DFD4F80838091490281116AC081E042
:100DA0008093480284EA5EC083E080934B021092F5
:100DB000DF01CFCF8091DF01803208F04EC0E0919B
:100DC000DF0181E08E0F8093DF018091BB00F0E0B6
:100DD000E052FE4F8083BDCF0E9419068091DF0153
:100DE000803230F4E091DF01F0E0E052FE4F1082FB
:100DF0006091DF0170E0E0914402F091450280EEE5
:100E000091E009951092DF0136C084E080934B0297
:100E10001092010210920002E0914602F091470206
:100E2000099580910002811105C081E08093000244
:100E300010920202E091010281E08E0F8093010284
:100E4000F0E0EE5FFD4F80818093BB009091010246
:100E500080910002981708F47CCF85E88093BC004D
:100E60000AC085EC8093BC0010924B0204C0109223
:100E7000DE010E940F06FF91EF91BF91AF919F910C
:100E80008F917F916F915F914F913F912F910F9033
:100E90000FBE0F901F901895CF93CFB7F894809105
:100EA0004F02811127C0ECEDF0E08491E8ECF0E016
:100EB0009491E82FF0E0EE0FFF1FE051FF4FA59156
:100EC000B4918C91892321F461E08AE00E94451D50
:100ED00061E08AE00E940C1D8CB580618CBD8CB5F0
:100EE00080648CBD61E08DE00E940C1D61E08BE0B0
:100EF0000E940C1D80914F028F5F80934F02CFBFE5
:100F0000CF91089581E00895CF93DF93EC0168E6D7
:100F100070E08CE891E00E94B90460E08CE891E018
:100F20000E9466048D810E94DF09682F8CE891E0A1
:100F30000E9466048C810E94DF09682F8CE891E092
:100F40000E9466048B810E94DF09682F8CE891E083
:100F50000E94660480E00E94DF09682F8CE891E01F
:100F60000E9466048A810E94DF09682F8CE891E064
:100F70000E94660489810E94DF09682F8CE891E055
:100F80000E94660488810E94DF09682F8CE891E046
:100F90000E94660460E08CE891E00E9466048CE8A0
:100FA00091E0DF91CF910C943205CF93DF9368E607
:100FB00070E08CE891E00E94B9046FE08CE891E069
:100FC0000E9466048CE891E00E94320541E050E006
:100FD00068E670E08CE891E00E942F058CE891E0D3
:100FE0000E94160487FB882780F9C82F80E0D82F3D
:100FF00081E0C8278C2FDF91CF910895CF92EF9297
:101000000F93CF93DF93CDB7DEB72E970FB6F8943B
:10101000DEBF0FBECDBF68E670E08CE891E00E94B5
:10102000B90460E08CE891E00E9466048CE891E0ED
:101030000E94320547E050E068E670E08CE891E0FD
:101040000E942F058CE891E00E9416048F770E9481
:10105000D709C82E8CE891E00E9416040E94D70997
:10106000E82E8CE891E00E9416040E94D709082F10
:101070008CE891E00E9416048CE891E00E9416042E
:101080000E94D709282F8CE891E02E870E94160431
:101090000E94D709482F8CE891E04D870E941604E2
:1010A0000E94D709682F70E06053784F2E854D85D8
:1010B000CE0107960E941F0986E0FE013796DE01E9
:1010C000119601900D928A95E1F729813A814B8121
:1010D0005C816D817E8180E090E02E960FB6F89461
:1010E000DEBF0FBECDBFDF91CF910F91EF90CF90BC
:1010F00008951F93CF93DF9300D000D0CDB7DEB714
:1011000068E670E08CE891E00E94B90461E18CE847
:1011100091E00E9466048CE891E00E94320542E072
:1011200050E068E670E08CE891E00E942F058CE8C2
:1011300091E00E941604182F8CE891E00E9416049A
:101140008295869586958370682F70E080E090E0A8
:101150000E946E2120E030E040E85EE30E94FC2126
:101160009B01AC01612F772767FD7095872F972F23
:1011700029833A834B835C8317FF09C00E94702147
:1011800029813A814B815C810E94092108C00E941B
:10119000702129813A814B815C810E940A210F9044
:1011A0000F900F900F90DF91CF911F9108958EBDFA
:1011B00000000DB407FEFDCF8EB50895803D27E0F9
:1011C000920710F0805D974050E0EEE8F0E021E0FB
:1011D0002E1B322F3E0F361728F43491430F511D2A
:1011E0003196F7CF633038F09C0123703327232BDF
:1011F00011F44F5F5F4F6DE671E0869F9001879F0E
:10120000300D969F300D112421503109039696958B
:10121000879596958795280F391FC901840F951FCB
:101220000895FC01208120532A3008F020E0FC01C1
:1012300081818053FAE02F9F800D11240895CF9271
:10124000EF920F93FC01603D87E0780710F0605D3E
:10125000774060834D3008F04CE04183203208F045
:101260002FE12283083108F007E103839E2D9D338F
:1012700008F09CE394838C2D8D3308F08CE38583F8
:101280000F91EF90CF900895CF92DF92EF92FF925F
:101290000F931F93CF93DF93EC017B016A01CB0186
:1012A00009960E9411098883F7010081112707FD23
:1012B0001095212F312FF801E154F109E331F105A7
:1012C00060F5EC5CFF4F0C946B22F7018181813655
:1012D00011F481E021C0F70182818E3611F486E09D
:1012E0001BC087E019C082E017C0F70182818237F6
:1012F00011F484E011C088E00FC0F70182818237C9
:1013000011F483E009C085E007C089E005C08AE0E8
:1013100003C08BE001C08CE08983C70104960E9462
:1013200011098A83C6010E9411098B83C6010396A5
:101330000E9411098C83C60106960E9411098D83B3
:10134000DF91CF911F910F91FF90EF90DF90CF90A1
:101350000895CF93DF93EC0188814A81698190E001
:101360000E94DE089C01A8E1B0E00E9471229B016E
:10137000AC018B81280F311D411D511DACE3B0E044
:101380000E9480229B01AC018C81280F311D411DE0
:10139000511D0E9480222D81620F711D811D911DA2
:1013A00060587C4B8249974CDF91CF910895982FDC
:1013B00092959F702AEF929F800D11240895282FF7
:1013C0006AE00E945F22982F990F980F990F892F3A
:1013D000820F0895CF93DF931F92CDB7DEB7698355
:1013E000DC01ED91FC910280F381E02D41E050E0C1
:1013F000BE016F5F7F4F09950F90DF91CF910895E8
:10140000CF93DF93EC01898D9A8D009759F0FC0101
:10141000138212820E948F15E98DFA8D2281338109
:10142000232B31F081E090E09B838A8380E090E081
:10143000DF91CF910895FC01818D928D009711F07D
:101440000C942F130895CF93DF931F92CDB7DEB77F
:1014500041E050E0BE016F5F7F4F0E944011019755
:1014600019F4898190E002C08FEF9FEF0F90DF9118
:10147000CF910895FC01818D928D009711F00C940D
:10148000230A8FEF9FEF08950F931F93CF93DF935E
:101490008C01FC01818D928D0097B9F00E94230A86
:1014A000EC018F3FFFEF9F0799F0F801818D928D3E
:1014B000FC01428553856485758541505109610958
:1014C00071090E949312CE0105C080E090E002C035
:1014D0008FEF9FEFDF91CF911F910F910895CF92E2
:1014E000DF92EF92FF920F931F93CF93DF93EC0164
:1014F0007B016A011B821A8208EE13E020E030E0D3
:101500000C831D832E833F8384E591E09983888338
:101510008DE190E00E94AC229A8F898F009779F03C
:101520002DE1F701DC0101900D922A95E1F74CE0E5
:1015300050E0B601CE010C960E94C524188EDF91B2
:10154000CF911F910F91FF90EF90DF90CF90089572
:10155000FC011382128248EE53E060E070E04483A5
:1015600055836683778384E591E091838083128E2F
:10157000118E14860895DC015996ED91FC915A97CD
:10158000309729F0628573858485958508956FEF7E
:101590007FEFCB010895DC015996ED91FC915A97AC
:1015A000309729F06389748985899689089560E068
:1015B00070E0CB010895CF92DF92EF92FF92CF932C
:1015C000DF93EC01898D9A8D892BD9F0CE010E9491
:1015D000CB0A6B017C01CE010E94BB0AA7019601D8
:1015E000261B370B480B590BDA01C901811530E86E
:1015F0009307A105B10538F08FEF9FE7A0E0B0E0B9
:1016000002C080E090E0DF91CF91FF90EF90DF90FB
:10161000CF900895CF93DF93EC01898D9A8D009739
:1016200041F00E947613898D9A8D0E9444231A8E70
:10163000198EDF91CF910895DC015996ED91FC91BF
:101640005A97309721F081E09581911101C080E097
:1016500008950F931F93CF93DF93EC01462F61E022
:101660000E94060E811102C080E01DC08E01045F41
:101670001F4F41E0BE01C8010E94D61A882359F0CD
:10168000B801CE018A960E94F01091E0811101C04C
:1016900090E0892F08C040E0BE01C8010E94D61A20
:1016A000882311F3EDCFDF91CF911F910F91089512
:1016B000FC01DB0112968D919C9113979383828399
:1016C00086E691E09183808314968C9114978483AD
:1016D00015968C911597858316964D915D916D9118
:1016E0007C91199746835783608771871A964D912D
:1016F0005D916D917C911D974287538764877587B3
:101700001E964D915D916D917C91519746875787BB
:10171000608B718B52968C915297828B53964D9120
:101720005D916D917C915697438B548B658B768B35
:1017300057964D915D916D917C915A97478B508F43
:10174000618F728F5B968D919C915C97948F838F44
:1017500008954F925F926F927F928F929F92AF9275
:10176000BF92CF92DF92EF92FF920F931F93CF938E
:10177000DF93CDB7DEB7C754D1090FB6F894DEBFFB
:101780000FBECDBF6C014A013901665D7F4F5E011E
:101790008EE1A80EB11CC5010E94580B1C821B8251
:1017A00086E691E09A8389831E828401FE01319648
:1017B0007F015A2C4B2C6FE270E0C8010E94B324C9
:1017C0000097E9F1F80120812F3219F40F5F1F4FC4
:1017D000F2CF801B8D3008F08CE0A82EB12CA50133
:1017E000B801CE01CB960E94C524EBE3F0E0EC0FEC
:1017F000FD1FEA0DFB1D1082C7010E94761321E038
:10180000AE01455C5F4F652D742DC7010E94AA147F
:10181000811109C0F6011382128286E691E091835C
:101820008083158216C00A0D1B1D852D942D0E94E4
:101830007613C2015E2C4F2CE92EF82EBCCF08196E
:101840001909F30111830083652D742DC6010E94CF
:10185000580BC601C95BDF4F0FB6F894DEBF0FBE51
:10186000CDBFDF91CF911F910F91FF90EF90DF904F
:10187000CF90BF90AF909F908F907F906F905F9030
:101880004F9008959F92AF92BF92CF92DF92EF92C6
:10189000FF920F931F93CF93DF93CDB7DEB7C95558
:1018A000D1090FB6F894DEBF0FBECDBF7C016B012E
:1018B0005A01922E9E01285A3F4FCE01CB960E948C
:1018C000A90B6A960EAD1FAD6A970A0D1B1DF80194
:1018D000808181110AC0BE01655C7F4FCE010196F7
:1018E0000E94580B40E651E041C019A218A286E6BA
:1018F00091E09F8F8E8F1BA221968FAD2197811132
:1019000004C0C7010E94A80A37C08250823060F428
:10191000B601665D7F4F292DA801CE014E960E942B
:10192000AA14811110C0EDCF292DA801BE01655C5C
:101930007F4FCE014E960E94AA14882311F3CE0148
:10194000CB960E947613892D867041F049A95AA939
:101950006BA97CA9CE014E960E949312BE01625ED5
:101960007F4FCE0101960E94580BA801BE016F5F08
:101970007F4FC7010E946F0AC701C75ADF4F0FB6DA
:10198000F894DEBF0FBECDBFDF91CF911F910F91B5
:10199000FF90EF90DF90CF90BF90AF909F90089511
:1019A00010925502109256021092590210925B0248
:1019B00082E090E0A0E0B0E080935C0290935D0252
:1019C000A0935E02B0935F021092730210927D02A8
:1019D00010927C0286E691E090937B0280937A02DB
:1019E00010927F0208959FB7F89420914E02809143
:1019F0004C02213019F48DBB9FBF08958FBF08950D
:101A000020914E02222399F03FB7F89420914E0284
:101A1000213059F42DB320934C024DB320914D0247
:101A2000209524232DBB3FBF02C030934C028CBDB8
:101A30009DBD08958FEF0C94D70861E0FC0184816F
:101A40000E94451D80919902882339F010929902D5
:101A500080914E0281110C94F30C0895CF93DF9383
:101A6000EC0180919902811109C081E08093990273
:101A700080919A0290919B020E94000D60E08C81FF
:101A8000DF91CF910C94451DCF93DF93EC018E81B4
:101A9000882389F08F8198859C012F5F3F4F38877D
:101AA0002F838230924018F40E941A0DF3CFCE019A
:101AB0000E941D0D1E82DF91CF910895673028F09E
:101AC00026E1FC01258380E00895623081F030F446
:101AD000662359F06130B1F480E515C0643059F0E7
:101AE00040F0653079F482E50EC080E505C081E5FF
:101AF00003C081E508C082E580939A0281E080936B
:101B00009B02089583E580939A0210929B0281E0E4
:101B100008950F931F93CF93DF93EB010E94341C22
:101B20008B010E941A0D8F3F49F00E94341C601BEC
:101B3000710B6C177D07A8F380E001C081E0DF9195
:101B4000CF911F910F910895CF92DF92FF920F9343
:101B50001F93CF93DF9300D000D0CDB7DEB76C01D9
:101B6000F62E29833A834B835C830E94440DC60181
:101B70000E942E0D6CE271E0C6010E94890D8F2D2E
:101B800080640E94D70808E110E05C814B813A81B3
:101B90002981DA01C901002E04C0B695A795979551
:101BA00087950A94D2F729833A834B835C830E94FA
:101BB000D7080850110929813A814B815C81083F7F
:101BC0008FEF180731F7FF2029F0E8E0FE1621F02B
:101BD0008FEF03C085E901C087E80E94D70810E0B5
:101BE0000E941A0DF601828787FF04C01F3F11F083
:101BF0001F5FF6CF0F900F900F900F90DF91CF9156
:101C00001F910F91FF90DF90CF900895BF92CF92D8
:101C1000DF92EF92FF920F931F93CF93DF93EC012C
:101C2000B62E1B8619861E821D824C830E94341C90
:101C30008B0161E08C810E940C1D61E08C810E940F
:101C4000451D0E944C0782E580939A0210929B02E8
:101C500080919A0290919B020E94000D2AE0F22E40
:101C60008FEF0E94D708FA94D9F780914E02811124
:101C70000E94F30CCE010E942E0D20E030E0A9015D
:101C800060E0CE010E94A40DF82E8A8781E0F8164C
:101C900049F00E94341C601B710B613D774068F372
:101CA00081E04BC02AEA31E040E050E068E0CE013C
:101CB0000E94A40D82FF02C0FB860DC094E0F92EA5
:101CC0000E941A0D8A87FA94D9F78A3A11F082E0B5
:101CD00034C082E08B878B85823031F4C12CD12CCB
:101CE000E12C80E4F82E03C0C12CD12C760120E039
:101CF00030E0A90167E3CE010E94A40DA70196017F
:101D000069E2CE010E94A40D8A87882349F00E94CF
:101D1000341C601B710B613D774048F388E00DC0B7
:101D20008B85823031F520E030E0A9016AE3CE01F5
:101D30000E94A40D882381F086E08D83CE010E944D
:101D40001D0D80E0DF91CF911F910F91FF90EF90DB
:101D5000DF90CF90BF9008950E941A0D807C803C48
:101D600011F483E08B870E941A0D0E941A0D0E94C5
:101D70001A0DCE010E941D0D6B2DCE01DF91CF916A
:101D80001F910F91FF90EF90DF90CF90BF900C9438
:101D90005E0D0F931F93CF93DF93EC010E94341CD1
:101DA0008B010E941A0D8A878F3F49F40E94341CD0
:101DB000601B710B6D327140A0F38FE003C08E3F4A
:101DC00039F08DE08D83CE010E941D0D80E001C0B1
:101DD00081E0DF91CF911F910F910895CF92DF9213
:101DE000EF92FF920F931F93CF93DF93EC01690162
:101DF0000115110509F462C0C801820F931F8130DB
:101E0000924008F05DC08E81882371F088819981AD
:101E1000AA81BB81481759076A077B0729F48F817C
:101E20009885C816D90610F5488359836A837B8341
:101E30008B85833039F039E0440F551F661F771FBB
:101E40003A95D1F79A01AB0161E1CE010E94A40D50
:101E5000882319F083E08D8333C0CE010E94C90E20
:101E6000882371F118861F8281E08E838F81988587
:101E70008C159D0540F40E941A0D8F81988501965E
:101E800098878F83F3CF6701E00EF11ECE14DF0435
:101E900031F00E941A0DF60181936F01F7CF8F8107
:101EA0009885800F911F98878F832985222319F0A9
:101EB0008115924018F0CE010E94440D81E004C0CB
:101EC000CE010E941D0D80E0DF91CF911F910F91F7
:101ED000FF90EF90DF90CF900895EF92FF920F93D5
:101EE0001F93790100E012E020E030E00E94EE0E46
:101EF0001F910F91FF90EF900895CF92DF92EF9294
:101F0000FF920F931F93CF93DF9300D0CDB7DEB72F
:101F10008C01862F49835A830E94D7084981C42E99
:101F20005A81D52EE12CF12CF60181916F010E948E
:101F3000D708FFEFEF1AFF0AE11482E0F806A1F7D5
:101F40008FEF0E94D7088FEF0E94D7080E941A0DCA
:101F5000F80182878F71853039F081E18583C8016E
:101F60000E941D0D80E001C081E00F900F90DF9175
:101F7000CF911F910F91FF90EF90DF90CF90089538
:101F80000F931F93CF93DF93EC0189014115510506
:101F90006105710511F482E132C08B85833039F01F
:101FA00089E0440F551F661F771F8A95D1F79A0164
:101FB000AB0168E1CE010E94A40D882311F084E0FA
:101FC0001EC0A8016EEFCE010E947D0F8823C1F0D4
:101FD00068E572E0CE010E94890D811102C085E1A1
:101FE0000EC020E030E0A9016DE0CE010E94A40DFA
:101FF000811104C00E941A0D882339F084E18D8379
:10200000CE010E941D0D80E004C0CE010E941D0D76
:1020100081E0DF91CF911F910F91089580E580932A
:102020009A0210929B020895CF93DF93EC019C01DA
:102030002A5F3F4F41E050E060E070E08B8D9C8D67
:102040000E946B198823A1F04F89588D698D7A8D74
:10205000452B462B472B71F44E815F81688579852E
:102060004F8B588F698F7A8F8C8180688C8302C0E8
:1020700080E001C081E0DF91CF910895CF92DF929F
:10208000EF92FF921F93CF93DF93EC010E94141005
:10209000811102C080E04BC0EB8DFC8DCE80DF80D3
:1020A000E884F98482E0C81AD108E108F1080584BF
:1020B00004C0CC0CDD1CEE1CFF1C0A94D2F7468534
:1020C000578560897189C40ED51EE61EF71E1481DE
:1020D00081E0C81AD108E108F108112361F0C701B5
:1020E000B601610F711D811D911D0E94B5178823D6
:1020F00089F21150F2CFEB8DFC8DC12C82E0D82EED
:10210000E12CF12C058404C0CC0CDD1CEE1CFF1C62
:102110000A94D2F74B895C896D897E894C0D5D1DCF
:102120006E1D7F1D4B8B5C8B6D8B7E8B81E0DF91F9
:10213000CF911F91FF90EF90DF90CF900895CF93B4
:10214000DF93EC01462F6E857F85888999890E94EF
:102150007A17882341F08A8920E2829FC0011124E6
:102160008B559D4F02C080E090E0DF91CF910895A4
:10217000282FFB018BE030E231938150E9F7A22F49
:10218000B92F20E037E09D91992319F19E3219F083
:10219000EAE9F0E008C03A3011F128E03AE0F3CF84
:1021A00031964917E1F044914111FACF3217B8F056
:1021B0004FED490F4E3598F441E0420FFB01E20F1D
:1021C000F11D2FE9290F2A3108F490529083242F12
:1021D000DACF81E0FB019081903209F480E008952C
:1021E0000F931F93CF93DF93EC018B018D81882395
:1021F00011F080E040C0FB0187898031B1F482E0BA
:102200008D831F8A188E198E1A8E408D518D60E035
:1022100070E095E0440F551F661F771F9A95D1F720
:102220004B8B5C8B6D8B7E8B15C0803211F783E0FE
:102230008D83FB01428D538D648D758D4F8B588F2F
:10224000698F7A8F9E012D5E3F4FC8010E945F18F3
:10225000882379F21C8F0B8F81E08C831E821F8272
:10226000188619861A861B861C861D861E861F8662
:10227000188A198A1A8ADF91CF911F910F910895B8
:102280002F923F924F925F926F927F928F929F9286
:10229000AF92BF92CF92DF92EF92FF920F931F9374
:1022A000CF93DF93EC016B015A018D81811103C043
:1022B0008FEF9FEFDAC08C8180FFFACF4B895C896A
:1022C0006D897E898A859B85AC85BD852501612CBC
:1022D000712C8A019B01081B190B2A0B3B0B04155F
:1022E00015052605370518F45A01A81AB90A25015B
:1022F0001E0126E0220E311C4114510409F47BC05A
:102300004A855B856C857D854A0181E09822ED8157
:102310008A019B01F9E03695279517950795FA955F
:10232000D1F78B8D9C8DE23051F4FC01628D738D61
:10233000848D958D600F711F821F931F3EC0FC011D
:1023400074807A94702281149104C9F4711017C0BA
:10235000452B462B472B49F48F89988DA98DBA8D33
:102360008E839F83A887B9870AC04E815F81688565
:10237000798591010E94DB17882309F499CFEB8DB1
:10238000FC8D6E817F8188859985625071098109F4
:102390009109058404C0660F771F881F991F0A944E
:1023A000D2F70685178520893189600F711F821F3A
:1023B000931F670D711D811D911D20E032E02819CA
:1023C000390932012415350508F439012C8126FD1F
:1023D00004C06114F2E07F06A1F50091060110919E
:1023E00007012091080130910901601771078207E8
:1023F000930719F426C0C50138C076018301940102
:10240000AB01BC018091A3029091A4020E94EE0E48
:10241000882309F44DCFC60CD71C04C0E81BF90B68
:10242000CE0EDF1E8A859B85AC85BD85860D971DEA
:10243000A11DB11D8A879B87AC87BD8746185708A9
:102440005BCF40E00E947A17882309F431CFC401A2
:102450008B559D4FD6019C01260D371DFC01E217BF
:10246000F307E1F241914D93FACFDF91CF911F91A4
:102470000F91FF90EF90DF90CF90BF90AF909F9023
:102480008F907F906F905F904F903F902F90089526
:10249000FF920F931F93CF93DF931F92CDB7DEB7B9
:1024A0008C01FC018581823018F480E090E034C01A
:1024B000F8014285538564857585A5E07695679515
:1024C00057954795AA95D1F7F42FFF70FF2E41E05D
:1024D00050E0BE016F5F7F4FC8010E94401101971D
:1024E00019F4298130E002C02FEF3FEF2F3F3F4F1B
:1024F000E1F2F8014285538564857585415E5F4F41
:102500006F4F7F4F4287538764877587F0E2FF9E46
:10251000C00111248B559D4F0F90DF91CF911F91DA
:102520000F91FF9008954F925F926F927F92AF92BA
:10253000BF92CF92DF92EF92FF920F931F93CF93B0
:10254000DF93EC016A017B012D81222309F457C03E
:102550008B899C89AD89BE8984179507A607B70723
:1025600008F44DC04EC08A859B85AC85BD85EB8D3A
:10257000FC8DE585F0E03996AC01BD014150510973
:10258000610971090E2E04C0769567955795479598
:102590000A94D2F7970186010150110921093109E6
:1025A00004C03695279517950795EA95D2F7041735
:1025B000150726073707B0F58F89988DA98DBA8D35
:1025C0008E839F83A887B987280139015E0186E041
:1025D000A80EB11C411451046104710461F14E81D3
:1025E0005F816885798595018B8D9C8D0E94DB17B5
:1025F00091E0491A5108610871088111EBCF80E020
:102600001FC02230C1F0C114D104E104F10409F06B
:10261000AACF1E821F82188619861A861B861C86E0
:102620001D860DC0892B8A2B8B2B31F2041B150BB9
:10263000260B370BC9CFCA86DB86EC86FD8681E088
:10264000DF91CF911F910F91FF90EF90DF90CF908E
:10265000BF90AF907F906F905F904F9008950F93D1
:102660001F93CF93DF93EC018D818823C9F18C8177
:1026700087FF30C061E0CE010E949F108C0100975F
:1026800079F18D81823048F44B895C896D897E892E
:10269000F801448F558F668F778F4F89588D698DDC
:1026A0007A8DF801538F428F758B648BE0919C0279
:1026B000F0919D02309759F0B8016A5E7F4FC801D2
:1026C00048960995F801808D918D938B828B8C8132
:1026D0008F778C83DF91CF911F910F910C943F17CF
:1026E00080E0DF91CF911F910F910895CF93DF93F9
:1026F000EC010E942F13882319F01D8281E001C094
:1027000080E0DF91CF9108954F925F926F927F9218
:10271000AF92BF92CF92DF92EF92FF920F931F93EF
:10272000CF93DF9300D000D0CDB7DEB75C016A0154
:102730007B01FC0185818130F1F4848181FF1BC024
:10274000F50183899489A589B68984179507A60719
:10275000B70788F0892B8A2B8B2B09F479C0F501F8
:102760004284538464847584B701A601C5010E9424
:102770009312811102C080E06CC0F501838D948DAD
:10278000C114D104E104F10471F44789508D618DC5
:10279000728D0E94801A882371F3F501178A108EBA
:1027A000118E128E3AC0F501468157816085718580
:1027B0009E012F5F3F4F0E94DB178823E1F2498182
:1027C0005A816B817C81F501838D948DFC01278971
:1027D000203129F408EF1FEF20E030E004C008EFBB
:1027E0001FEF2FEF3FE04017510762077307A8F470
:1027F0000E94801A882309F4BECFF50146815781D3
:10280000608571850FEF1FEF2FEF3FE0838D948D73
:102810000E94CA18882309F4AECFF501C38AD48A6E
:10282000E58AF68A848180688483C5010E942F131B
:10283000882309F4A0CFB701A6014C145D046E04EF
:102840007F0410F4B301A201C5010E94931201C0DC
:1028500081E00F900F900F900F90DF91CF911F911B
:102860000F91FF90EF90DF90CF90BF90AF907F904F
:102870006F905F904F900895FF920F931F93CF93A7
:10288000DF93EC01F42E80E2689FF0011124EB55F8
:10289000FD4F8385817129F0842F827411F080E0CF
:1028A00053C06A8B8091060190910701A0910801A5
:1028B000B09109018E879F87A88BB98B4489558970
:1028C00060E070E0BA0155274427028D138D20E0A7
:1028D00030E0402B512B622B732B4F8B588F698F1D
:1028E0007A8F8385887151F4048D158D268D378DEF
:1028F0000B8B1C8B2D8B3E8B81E00CC0803179F6CD
:102900009E012D5E3F4F8B8D9C8D0E945F1888230A
:1029100031F284E08D838F2D8F708C831E821F8215
:10292000188619861A861B861C861D86F6FE0BC025
:1029300040E050E0BA01CE01DF91CF911F910F919D
:10294000FF900C94841381E0DF91CF911F910F9140
:10295000FF900895AF92BF92CF92DF92EF92FF92D5
:102960000F931F93CF93DF93CDB7DEB72B970FB69F
:10297000F894DEBF0FBECDBF7C016B01CA01B22E41
:10298000F70125812111B9C0BE016F5F7F4F0E9401
:10299000B810882309F4B1C0F601838D948DF70136
:1029A000948F838FF6011682178210861186128605
:1029B000138614861586A12CF601028513852485BD
:1029C000358583899489A589B689081719072A0747
:1029D0003B07E8F545E036952795179507954A9505
:1029E000D1F70F70C6010E944812009709F485C004
:1029F000FC012081222311F0253EB9F4A1100EC064
:102A0000F701028B40910601509107016091080186
:102A10007091090146875787608B718BFC0180811B
:102A2000AA24A3948111C8CF12C04BE050E0BC018E
:102A3000CE0101960E949D24892B09F0BDCF8B2DDC
:102A40008073803309F459C04B2D602F52C08B2DF9
:102A50008271823109F051C0AA2041F061E0C701C2
:102A60000E949F108C01009779F447C0F601858180
:102A7000823009F442C0C6010E943E108823E9F169
:102A8000F701128A05EA12E080E2F80111928A95B4
:102A9000E9F78BE0FE013196D80101900D928A95FD
:102AA000E1F7E0919C02F0919D02309739F0B80176
:102AB000625F7F4FC8014096099509C081E298E2A4
:102AC000F801918B808B80E098E097878687F801EA
:102AD00080899189938B828B918F808F8685978552
:102AE000978B868B0E943F17882339F04B2DF70177
:102AF0006289C7010E943C1401C080E02B960FB68A
:102B0000F894DEBF0FBECDBFDF91CF911F910F9123
:102B1000FF90EF90DF90CF90BF90AF9008952F92ED
:102B20003F924F925F926F927F928F929F92AF925D
:102B3000BF92CF92DF92EF92FF920F931F93CF93AA
:102B4000DF9300D000D01F92CDB7DEB78C017B01A0
:102B50003A01DC0115968C9115978130C9F41496D1
:102B60008C9181FF15C082FF1BC0F80143895489F5
:102B70006589768982859385A485B58584179507AF
:102B8000A607B70769F0C8010E949312811108C017
:102B900081E090E0F8019383828380E090E046C179
:102BA000630180C0D8015B968D919C915C97FC017C
:102BB000F481F150B501A40129E076956795579508
:102BC00047952A95D1F7F423FD8321E09222FF2334
:102BD00009F474C080E092E08819990956018C15B7
:102BE0009D0508F45C01D8015B96ED91FC915C9722
:102BF00016962D903D904D905C901997B2E02B1A4F
:102C0000310841085108058404C0220C331C441CBF
:102C1000551C0A94D2F786859785A089B189280E1C
:102C2000391E4A1E5B1EED812E0E311C411C511CAB
:102C3000A114F2E0BF0609F088C0809106019091CE
:102C40000701A0910801B091090182159305A4051F
:102C5000B50559F48FEF9FEFDC0180930601909347
:102C60000701A0930801B09309019701B201A101E6
:102C70008091A3029091A4020E94C00F882309F4BE
:102C800087CF9EEFF91ACA18DB08F8018285938571
:102C9000A485B5858A0D9B1DA11DB11D82879387D3
:102CA000A487B587D8011A968D909D90AD90BC9061
:102CB0001D97C114D10409F075CF8AC08114910405
:102CC00009F088CF16964D915D916D917C91199781
:102CD000411551056105710559F457968D919D91E6
:102CE0000D90BC91A02D0097A105B10541F521C023
:102CF0009E012F5F3F4F0E94DB17882309F44ECFC0
:102D000089819A81AB81BC81F801238D348DF901D1
:102D10002789203129F448EF5FEF60E070E004C0BC
:102D200048EF5FEF6FEF7FE084179507A607B707BF
:102D300030F0C8010E94141081114CCF29CFF80146
:102D400086839783A087B18745CF8114910429F5A5
:102D5000D8011A964D915D916D917C911D97539676
:102D60008D919D910D90BC91A02D481759076A0730
:102D70007B0798F00E943F17882309F409CF20921F
:102D8000060130920701409208015092090180919A
:102D9000A20281608093A20208C041E0C201B10199
:102DA0000E947A17882309F4F3CEC4018B559D4FF6
:102DB000D7019C012A0D3B1DFC01E217F30719F016
:102DC0004D914193FACFE81BF90BEE0EFF1E5BCF3E
:102DD00053968D919D910D90BC91A02DF801248169
:102DE00088159905AA05BB0538F4838A948AA58AB3
:102DF000B68A206824830CC080919C0290919D0229
:102E0000892B31F06114710419F02068F8012483D2
:102E1000D80114968C9183FD02C0C30107C0C8017C
:102E20000E942F13882309F4B3CEF7CF0F900F9091
:102E30000F900F900F90DF91CF911F910F91FF9006
:102E4000EF90DF90CF90BF90AF909F908F907F904A
:102E50006F905F904F903F902F900895CF93DF93A6
:102E60001F92CDB7DEB7698341E050E0BE016F5FCE
:102E70007F4F0E948F150F90DF91CF910895809121
:102E8000A202882399F140910601509107016091B7
:102E900008017091090125EA32E08091A302909126
:102EA000A4020E94C00F882319F140919E02509104
:102EB0009F026091A0027091A10241155105610528
:102EC000710591F025EA32E08091A3029091A4026D
:102ED0000E94C00F882361F010929E0210929F0200
:102EE0001092A0021092A1021092A20281E0089515
:102EF00080E00895CF92DF92EF92FF92CF936B0123
:102F00007C01C42F8091060190910701A0910801D6
:102F1000B09109018C159D05AE05BF05D1F00E9449
:102F20003F17811102C080E01AC025EA32E0B701E4
:102F3000A6018091A3029091A4020E946D0F8823A4
:102F400091F3C0920601D0920701E0920801F0923D
:102F500009018091A2028C2B8093A20281E0CF9183
:102F6000FF90EF90DF90CF900895CF92DF92EF9295
:102F7000FF926B017C010E943F178823B1F0E5EAC4
:102F8000F2E0119284E0E53AF807D9F7C092060121
:102F9000D0920701E0920801F09209018091A2020B
:102FA00081608093A20281E001C080E0FF90EF90F9
:102FB000DF90CF9008958F929F92AF92BF92CF9261
:102FC000DF92EF92FF920F931F93CF93DF938C01C9
:102FD0006A017B01E901FC0181859285A385B485A5
:102FE0000196A11DB11D84179507A607B70710F418
:102FF00080E058C0F80143895489658976898789BA
:10300000803129F4BB27AF2D9E2D8D2D09C0D7010E
:10301000C60127E0B695A795979587952A95D1F78C
:103020004C015D01840E951EA61EB71EC501B4019C
:103030008090060190900701A0900801B0900901CE
:10304000681579058A059B0589F4F801878980311F
:1030500099F4DD24EE24FF24F601EE0FFF1FEB555B
:10306000FD4F80819181A0E0B0E017C040E00E9458
:103070007A178111EACFBCCFE894C7F8DD24EE249B
:10308000FF24F601EE0FFF1FEE0FFF1FEB55FD4F64
:1030900080819181A281B381BF7088839983AA8343
:1030A000BB8381E0DF91CF911F910F91FF90EF9053
:1030B000DF90CF90BF90AF909F908F9008954F92E8
:1030C0005F926F927F92AF92BF92CF92DF92EF9218
:1030D000FF920F931F93CF93DF9300D000D0CDB713
:1030E000DEB78C0149835A836B837C835901C12CE1
:1030F000D12C7601412C42E0542E612C712C498157
:103100005A816B817C819E012F5F3F4FC8010E94D5
:10311000DB17882359F1D301C201F801058404C0EB
:10312000880F991FAA1FBB1F0A94D2F7C80ED91E79
:10313000EA1EFB1E49815A816B817C81878980311F
:1031400029F488EF9FEFA0E0B0E004C088EF9FEF84
:10315000AFEFBFE0481759076A077B0780F2F50118
:10316000C082D182E282F38281E001C080E00F90D0
:103170000F900F900F90DF91CF911F910F91FF90C3
:10318000EF90DF90CF90BF90AF907F906F905F9067
:103190004F9008954F925F926F927F928F929F927D
:1031A000AF92BF92CF92DF92EF92FF920F931F9355
:1031B000CF93DF93EC016A017B0128013901423092
:1031C00051056105710508F474C049855A856B8500
:1031D0007C854F5F5F4F6F4F7F4F4C155D056E05D0
:1031E0007F0508F466C08B889C88AD88BE888F896F
:1031F000803129F477276F2D5E2D4D2D09C0B70141
:10320000A601E7E07695679557954795EA95D1F73A
:10321000840E951EA61EB71E40910601509107010F
:10322000609108017091090184169506A606B706FB
:1032300071F48F89803199F4DD24EE24FF24F601A6
:10324000EE0FFF1FEB55FD4F5182408218C040E04A
:10325000C501B4010E947A178111EBCF2AC0E8940E
:10326000C7F8DD24EE24FF24F601EE0FFF1FEE0F5A
:10327000FF1FEB55FD4F4082518262827382809125
:10328000A20281608093A2028A89823080F08D81BF
:103290009E81AF81B885880D991DAA1DBB1D8093A5
:1032A0009E0290939F02A093A002B093A10281E09E
:1032B00001C080E0DF91CF911F910F91FF90EF90BF
:1032C000DF90CF90BF90AF909F908F907F906F9046
:1032D0005F904F9008952F923F924F925F926F921E
:1032E0007F929F92AF92BF92CF92DF92EF92FF9226
:1032F0000F931F93CF93DF93CDB7DEB760970FB6D1
:10330000F894DEBF0FBECDBF5C014D875E876F872F
:10331000788B1901D9014D905D906D907C9041148E
:1033200051046104710431F0BFEF4B1A5B0A6B0A60
:103330007B0A10C0FC014080518062807380992418
:1033400093940D851E852F8538890130110521053F
:10335000310509F0912CD50119962D913D914D9192
:103360005C911C972F5F3F4F4F4F5F4F29873A87E4
:103370004B875C87730162011D821E821F82188643
:10338000F50181859285A385B4850D811E812F81EC
:103390003885081719072A073B0708F056C0298502
:1033A0003A854B855C852C153D054E055F0550F42F
:1033B000A2E0CA2ED12CE12CF12CB2E04B2E512CE4
:1033C000612C712C9E012F5F3F4FB701A601C501F3
:1033D0000E94DB178823C9F149815A816B817C8166
:1033E000D701C6010196A11DB11D452B462B472BC8
:1033F00019F02C013D010FC0AC01BD014419550964
:10340000660977090D851E852F8538894017510774
:103410006207730779F02D813E814F8158852F5FB8
:103420003F4F4F4F5F4F2D833E834F8358876C0133
:103430007D01A6CF0FEF1FEF2FEF3FE0B701A601F1
:10344000C5010E94CA18811118C080E041C0D7018F
:10345000C6010197A109B1098D839E83AF83B88707
:1034600097018601AC01BD01C5010E94CA188823DD
:1034700061F3CD80DE80EF80F8844C145D046E042F
:103480007F0428F3D1014D915D916D917C9141159F
:1034900051056105710599F4F10140825182628202
:1034A00073829920A1F0FFEF4F1A5F0A6F0A7F0A1B
:1034B000D5014D925D926D927C92139708C0930155
:1034C0008201C5010E94CA188111E6CFBECF81E0FA
:1034D00060960FB6F894DEBF0FBECDBFDF91CF91DF
:1034E0001F910F91FF90EF90DF90CF90BF90AF9022
:1034F0009F907F906F905F904F903F902F90089596
:10350000AF92BF92CF92DF92EF92FF920F931F93F1
:10351000CF93DF9300D000D0CDB7DEB75C016A0156
:103520007B0182E090E0A0E0B0E0F5018083918330
:10353000A283B3839E012F5F3F4FB701A601C50150
:103540000E94DB17882311F100E010E09801B70119
:10355000A601C5010E94CA188823C1F0C980DA807B
:10356000EB80FC80F5018789803129F488EF9FEF9B
:10357000A0E0B0E004C088EF9FEFAFEFBFE0C81657
:10358000D906EA06FB06B0F281E001C080E00F90A8
:103590000F900F900F90DF91CF911F910F91FF909F
:1035A000EF90DF90CF90BF90AF9008958F929F9251
:1035B000AF92BF92CF92DF92EF92FF920F931F9341
:1035C000CF93DF93EC01142F7093A4026093A302B6
:1035D000442341F1453010F080E0EFC040E060E06E
:1035E00070E0CB010E947A178823B1F320E1129F8B
:1035F000F0011124ED5AFB4F80818F7769F78485A4
:103600009585A685B78584369105A105B10520F37A
:10361000C084D184E284F384C114D104E104F104B0
:1036200021F4DACFC12CD12C760140E0C701B601DC
:103630000E947A17882381F28091B0029091B102A2
:103640008115924049F63091B502332329F28091D9
:10365000B3029091B402892B09F4BECF2091B2023B
:10366000222309F4B9CF3A8B2C831D8630E041E048
:1036700050E06D85062FCA01062E02C0880F991FE3
:103680000A94E2F72817390731F081E0860F8D8719
:10369000683078F3A1CF2091BB023091BC02211594
:1036A000310519F040E050E008C02091C902309186
:1036B000CA024091CB025091CC022D833E834F83AE
:1036C00058878091B3029091B40246015701880E49
:1036D000991EA11CB11C8B8A9C8AAD8ABE8AE0917E
:1036E000B602F091B702F98FE88FA091B502B0E071
:1036F0000E948022680D791D8A1D9B1D6A8F7B8F19
:103700008C8F9D8F15E0EE0FFF1F1A95E1F7E150AA
:10371000FE4FEF2FFF27E695DC01CB018E0F9F1F99
:10372000A11DB11D8E879F87A88BB98B8090B80291
:103730009090B9028114910419F0A12CB12C08C009
:103740008090C5029090C602A090C702B090C802B7
:10375000A7019601281B390B4A0B5B0BDA01C90143
:10376000880D991DAA1DBB1D04C0B695A7959795F8
:1037700087950A95D2F789879A87AB87BC87853F5B
:103780003FE09307A105B10510F48CE014C0853F1C
:103790009F4FA105B10510F480E10DC08091D102C9
:1037A0009091D202A091D302B091D4028A8F9B8FC4
:1037B000AC8FBD8F80E28F8B81E0DF91CF911F9125
:1037C0000F91FF90EF90DF90CF90BF90AF909F90C0
:1037D0008F9008951F920F920FB60F9211242F937E
:1037E0003F938F939F93AF93BF938091A604909143
:1037F000A704A091A804B091A9043091A50423E0E6
:10380000230F2D3720F40196A11DB11D05C026E818
:10381000230F0296A11DB11D2093A5048093A60439
:103820009093A704A093A804B093A9048091AA043C
:103830009091AB04A091AC04B091AD040196A11D90
:10384000B11D8093AA049093AB04A093AC04B093F1
:10385000AD04BF91AF919F918F913F912F910F90A8
:103860000FBE0F901F9018952FB7F8946091A60483
:103870007091A7048091A8049091A9042FBF089586
:103880003FB7F8948091AA049091AB04A091AC0446
:10389000B091AD0426B5A89B05C02F3F19F0019645
:1038A000A11DB11D3FBF6627782F892F9A2F620F68
:1038B000711D811D911D42E0660F771F881F991FA2
:1038C0004A95D1F70895CF92DF92EF92FF92CF936E
:1038D000DF936B017C010E94401CEB01C114D104F9
:1038E000E104F10489F00E9408210E94401C6C1B35
:1038F0007D0B683E734090F381E0C81AD108E1085F
:10390000F108C851DC4FEACFDF91CF91FF90EF90E3
:10391000DF90CF900895789484B5826084BD84B59B
:10392000816084BD85B5826085BD85B5816085BDBA
:10393000EEE6F0E0808181608083E1E8F0E01082D3
:10394000808182608083808181608083E0E8F0E014
:10395000808181608083E1EBF0E0808184608083FE
:10396000E0EBF0E0808181608083EAE7F0E0808135
:103970008460808380818260808380818160808395
:103980008081806880831092C10008958E3008F095
:103990008E50877020910A0190E4299F9001112494
:1039A000822B80937C0080917A00806480937A00DF
:1039B00080917A0086FDFCCF80917800209179007B
:1039C00090E0922B0895833081F028F4813099F0B3
:1039D0008230A1F008958730A9F08830B9F08430A2
:1039E000D1F4809180008F7D03C0809180008F771B
:1039F00080938000089584B58F7702C084B58F7D51
:103A000084BD08958091B0008F7703C08091B0008D
:103A10008F7D8093B0000895CF93DF9390E0FC01F9
:103A2000E254FF4F2491FC01EE52FF4F8491882312
:103A300049F190E0880F991FFC01E051FF4FA591DB
:103A4000B4918A519F4FFC01C591D4919FB76111E8
:103A500008C0F8948C91209582238C9388818223CE
:103A60000AC0623051F4F8948C91322F3095832340
:103A70008C938881822B888304C0F8948C91822B4C
:103A80008C939FBFDF91CF9108950F931F93CF9396
:103A9000DF931F92CDB7DEB7282F30E0F901E6554E
:103AA000FF4F8491F901E254FF4F1491F901EE5256
:103AB000FF4F04910023C9F0882321F069830E94FD
:103AC000E31C6981E02FF0E0EE0FFF1FEA51FF4F8A
:103AD000A591B4919FB7F8948C91611103C0109592
:103AE000812301C0812B8C939FBF0F90DF91CF91D9
:103AF0001F910F910895FC01818D228D90E0805CD3
:103B00009F4F821B91098F7399270895FC01918D16
:103B1000828D981731F0828DE80FF11D858D90E030
:103B200008958FEF9FEF0895FC01918D828D981776
:103B300061F0828DDF01A80FB11D5D968C91928D91
:103B40009F5F9F73928F90E008958FEF9FEF08958E
:103B500086EB9EE1892B49F080E090E0892B29F0EB
:103B60000E94B61E81110C9400000895FC01848D02
:103B7000DF01A80FB11DA35ABF4F2C91848D90E097
:103B800001968F739927848FA689B7892C93A08972
:103B9000B1898C9180648C93938D848D981306C029
:103BA0000288F389E02D80818F7D80830895CF93F3
:103BB000DF93EC01888D8823C9F0EA89FB89808135
:103BC00085FD05C0A889B9898C9186FD0FC00FB607
:103BD00007FCF5CF808185FFF2CFA889B9898C9148
:103BE00085FFEDCFCE010E94B61DE7CFDF91CF91CB
:103BF0000895CF92DF92FF920F931F93CF93DF939D
:103C00001F92CDB7DEB76C0181E0D60158968C9338
:103C100058975B969C915B975C968C915C979813F8
:103C200007C05096ED91FC915197808185FD2EC083
:103C3000F601038D10E00F5F1F4F0F731127F02E59
:103C4000F601848DF81211C00FB607FCF9CFD6012A
:103C50005096ED91FC915197808185FFF1CFC6017F
:103C600069830E94B61D6981EBCF838DE80FF11D3A
:103C7000E35AFF4F6083D6015B960C935B97529695
:103C8000ED91FC915397808180620CC0D6015696CD
:103C9000ED91FC91579760835096ED91FC9151976F
:103CA00080818064808381E090E00F90DF91CF91EC
:103CB0001F910F91FF90DF90CF9008951F920F9268
:103CC0000FB60F9211242F938F939F93EF93FF932F
:103CD000E091BE04F091BF048081E091C404F091B2
:103CE000C50482FD12C090818091C7048F5F8F73DD
:103CF0002091C804821751F0E091C704F0E0E2552A
:103D0000FB4F958F8093C70401C08081FF91EF9195
:103D10009F918F912F910F900FBE0F901F9018952C
:103D20001F920F920FB60F9211242F933F934F9330
:103D30005F936F937F938F939F93AF93BF93EF9313
:103D4000FF938EEA94E00E94B61DFF91EF91BF9120
:103D5000AF919F918F917F916F915F914F913F9123
:103D60002F910F900FBE0F901F9018958EEA94E040
:103D70000E947B1D21E0892B09F420E0822F089509
:103D80001092B1041092B00488EE93E0A0E0B0E08D
:103D90008093B2049093B304A093B404B093B50499
:103DA0008EE691E09093AF048093AE0485EC90E0B2
:103DB0009093BB048093BA0484EC90E09093BD048C
:103DC0008093BC0480EC90E09093BF048093BE0489
:103DD00081EC90E09093C1048093C00482EC90E069
:103DE0009093C3048093C20486EC90E09093C50442
:103DF0008093C4041092C7041092C8041092C9049E
:103E00001092CA040895CF92DF92EF92FF920F931F
:103E10001F93CF93DF937C016A01EB0100E010E078
:103E20000C151D0571F06991D701ED91FC91019080
:103E3000F081E02DC7010995892B19F00F5F1F4F05
:103E4000EFCFC801DF91CF911F910F91FF90EF90BD
:103E5000DF90CF9008956115710581F0DB010D9021
:103E60000020E9F7AD0141505109461B570BDC0119
:103E7000ED91FC910280F381E02D099480E090E0C7
:103E80000895DC01ED91FC91DB0114964D915C915C
:103E900015976D917C910280F381E02D09946AE77A
:103EA00071E00C942B1F0F931F93CF93DF93EC01C2
:103EB0000E94411F8C01CE010E944F1F800F911F55
:103EC000DF91CF911F910F910895FC01DB011182C9
:103ED000108213821282158214828D919C91119707
:103EE0009183808312968D919C9113979383828303
:103EF00014968D919C9115979583848311961C92AD
:103F00001E9213961C921E92129715961C921E9248
:103F100014970895FC01808191810C944423CF93E0
:103F2000DF93EC0188819981009711F00E9444236E
:103F3000198218821D821C821B821A82DF91CF9106
:103F400008950F931F93CF93DF93EC018B016F5F65
:103F50007F4F888199810E94D323009731F0998304
:103F600088831B830A8381E001C080E0DF91CF91C9
:103F70001F910F910895CF93DF93EC018881998170
:103F8000892B29F08A819B818617970760F4CE01DF
:103F90000E94A11F882341F08C819D81892B19F4F7
:103FA000E881F981108281E0DF91CF910895EF924D
:103FB000FF920F931F93CF93DF93EC017B018A0154
:103FC000BA010E94BB1F811104C0CE010E948F1F45
:103FD00007C01D830C83B701888199810E94BE248C
:103FE000CE01DF91CF911F910F91FF90EF90089537
:103FF000FC011182108213821282158214826115D3
:10400000710559F0FB0101900020E9F7AF01415023
:104010005109461B570B0C94D71F0895CF93DF937C
:10402000EC016115710561F0FB0101900020E9F7D9
:10403000AF0141505109461B570B0E94D71F02C0C8
:104040000E948F1FCE01DF91CF9108950F931F9390
:10405000CF93DF93CDB7DEB762970FB6F894DEBF8C
:104060000FBECDBF8C01CB01F801118210821382EB
:1040700012821582148250E0BE016F5F7F4F0E9452
:10408000D424BE016F5F7F4FC8010E940E2062964C
:104090000FB6F894DEBF0FBECDBFDF91CF911F9159
:1040A0000F910895EF92FF920F931F93CF93DF9399
:1040B000EC017B010C811D816115710511F480E01B
:1040C00016C04115510591F0040F151FB8010E944B
:1040D000BB1F8823A1F3288139818C819D81B70181
:1040E000820F931F0E94BE241D830C8381E0DF9109
:1040F000CF911F910F91FF90EF900895FB014481A4
:104100005581608171810C9452206115710559F0BF
:10411000FB0101900020E9F7AF0141505109461B16
:10412000570B0C94522080E00895EF92FF920F936A
:104130001F93CF93DF93CDB7DEB727970FB6F894D1
:10414000DEBF0FBECDBF7C01CB014AE08E010F5F09
:104150001F4FB8010E940C25F80101900020E9F7DB
:10416000AF0141505109401B510BB801C7010E94DA
:10417000522027960FB6F894DEBF0FBECDBFDF9159
:10418000CF911F910F91FF90EF900895EF92FF92C2
:104190000F931F93CF93DF93CDB7DEB72D970FB655
:1041A000F894DEBF0FBECDBF7C01CB01BA012AE07F
:1041B0008E010F5F1F4FA8010E94EA24F8010190B1
:1041C0000020E9F7AF0141505109401B510BB801E4
:1041D000C7010E9452202D960FB6F894DEBF0FBE85
:1041E000CDBFDF91CF911F910F91FF90EF90089578
:1041F00008950E948B1C0E94F8200E948201C8EA48
:10420000DDE10E945F022097E1F30E94A81DF9CF33
:1042100008955058BB27AA270ED0B4C0A5D030F0BF
:10422000AAD020F031F49F3F11F41EF49AC00EF48E
:10423000E095E7FB90C0E92FB6D080F3BA1762078C
:1042400073078407950718F071F49EF5CEC00EF43D
:10425000E0950B2EBA2FA02D0B01B90190010C0196
:10426000CA01A0011124FF27591B99F0593F50F4AE
:10427000503E68F11A16F040A22F232F342F442706
:10428000585FF3CF469537952795A795F0405395FE
:10429000C9F77EF41F16BA0B620B730B840BBAF0CE
:1042A0009150A1F0FF0FBB1F661F771F881FC2F739
:1042B0000EC0BA0F621F731F841F48F4879577954D
:1042C0006795B795F7959E3F08F0B3CF9395880F04
:1042D00008F09927EE0F979587950895E89409C0FF
:1042E00097FB3EF490958095709561957F4F8F4F29
:1042F0009F4F9923A9F0F92F96E9BB279395F6953F
:10430000879577956795B795F111F8CFFAF4BB0FBC
:1043100011F460FF1BC06F5F7F4F8F4F9F4F16C020
:10432000882311F096E911C0772321F09EE8872FAA
:10433000762F05C0662371F096E8862F70E060E066
:104340002AF09A95660F771F881FDAF7880F9695DF
:10435000879597F9089597F99F6780E870E060E086
:1043600008959FEF80EC089500240A94161617060E
:1043700018060906089500240A9412161306140656
:1043800005060895092E0394000C11F4882352F0B9
:10439000BB0F40F4BF2B11F460FF04C06F5F7F4F71
:1043A0008F4F9F4F089557FD9058440F551F59F058
:1043B0005F3F71F04795880F97FB991F61F09F3F12
:1043C00079F087950895121613061406551FF2CF3B
:1043D0004695F1DF08C0161617061806991FF1CF8B
:1043E00086957105610508940895E894BB276627B2
:1043F0007727CB0197F908950BD0C4CFB5DF28F00C
:10440000BADF18F0952309F0A6CFABCF1124EECF79
:10441000CADFA0F3959FD1F3950F50E0551F629F1F
:10442000F001729FBB27F00DB11D639FAA27F00D0D
:10443000B11DAA1F649F6627B00DA11D661F829F34
:104440002227B00DA11D621F739FB00DA11D621F19
:10445000839FA00D611D221F749F3327A00D611D36
:10446000231F849F600D211D822F762F6A2F112418
:104470009F5750408AF0E1F088234AF0EE0FFF1F6B
:10448000BB1F661F771F881F91505040A9F79E3FA2
:10449000510570F060CFAACF5F3FECF3983EDCF39C
:1044A000869577956795B795F795E7959F5FC1F7DF
:1044B000FE2B880F911D9695879597F90895991B66
:1044C00079E004C0991F961708F0961B881F7A950B
:1044D000C9F780950895EE0FFF1F0590F491E02D28
:1044E0000994A29FB001B39FC001A39F700D811DCD
:1044F0001124911DB29F700D811D1124911D0895ED
:104500000E947122A59F900DB49F900DA49F800DD5
:10451000911D11240895EF920F931F93CF93DF9372
:10452000E80147FF02C034E101C034E0E42FFF2777
:10453000E7FDF095F7FF03C0F195E195F109E32E52
:10454000022F2E2FAE010E942625CE01DF91CF91A2
:104550001F910F91EF900895CF93DF9382309105D3
:1045600010F482E090E0E0914D05F0914E0520E0DE
:1045700030E0A0E0B0E0309739F140815181481738
:104580005907B8F04817590771F482819381109741
:1045900029F013969C938E9312972CC090934E05FE
:1045A00080934D0527C02115310531F0421753077F
:1045B00018F0A901DB0101C0EF019A01BD01DF0183
:1045C0000280F381E02DD7CF21153105F9F0281BAA
:1045D000390B2430310580F48A819B816115710586
:1045E00021F0FB019383828304C090934E05809356
:1045F0004D05FE01329644C0FE01E20FF31F819388
:10460000919322503109398328833AC020914B0578
:1046100030914C05232B41F420910201309103018C
:1046200030934C0520934B052091000130910101FE
:104630002115310541F42DB73EB740910401509149
:104640000501241B350BE0914B05F0914C05E21759
:10465000F307A0F42E1B3F0B2817390778F0AC01A5
:104660004E5F5F4F2417350748F04E0F5F1F509382
:104670004C0540934B058193919302C0E0E0F0E03C
:10468000CF01DF91CF910895CF93DF93009709F485
:1046900087C0FC01329713821282C0914D05D091E0
:1046A0004E05209781F420813181280F391F809198
:1046B0004B0590914C058217930779F5F0934C05C3
:1046C000E0934B056DC0DE0120E030E0AE17BF0780
:1046D00050F412964D915C9113979D01411551052F
:1046E00009F1DA01F3CFB383A28340815181840FB2
:1046F000951F8A179B0771F48D919C911197840FD8
:10470000951F02969183808312968D919C911397A9
:10471000938382832115310529F4F0934E05E093AC
:104720004D053EC0D9011396FC93EE9312974D911F
:104730005D91A40FB51FEA17FB0779F48081918181
:10474000840F951F0296D90111969C938E938281B6
:10475000938113969C938E931297E0E0F0E08A8108
:104760009B81009719F0FE01EC01F9CFCE01029672
:1047700028813981820F931F20914B0530914C0580
:104780002817390769F4309729F410924E051092D2
:104790004D0502C013821282D0934C05C0934B0585
:1047A000DF91CF910895A0E0B0E0E9EDF3E20C9441
:1047B0009027EC01CB01209719F40E94AC22B8C0DD
:1047C000FE01E60FF71F9E0122503109E217F307A1
:1047D00008F4ACC0D9010D911C9111970617170769
:1047E000B8F00530110508F49FC0A80144505109E4
:1047F0004617570708F498C002501109061B170BFB
:10480000019311936D937C93CF010E9444238CC03C
:104810005B01A01AB10A4E01800E911EA0914D05B8
:10482000B0914E05612C712C60E070E0109709F496
:1048300049C0A815B905C9F5ED90FC90119767011D
:1048400042E0C40ED11CCA14DB0478F147018A1877
:104850009B08640142E0C40ED11C1296BC901297D2
:104860001396AC91B5E0CB16D10440F0B282A3838D
:1048700091828082D9018D939C9309C00E5F1F4F56
:104880000E0D1F1DF90111830083EB2DFA2F611509
:10489000710531F0DB011396FC93EE93129744C03F
:1048A000F0934E05E0934D053FC06D917C911197BB
:1048B0006616770608F43B01BD0112960D90BC9177
:1048C000A02DB4CF60914B0570914C05681579050A
:1048D000E9F468167906D0F4409100015091010185
:1048E0004115510541F44DB75EB7609104017091D7
:1048F0000501461B570BE417F507C0F4F0934C0570
:10490000E0934B05F901918380830EC00E94AC2295
:104910007C01009759F0A801BE010E94AA24CE0193
:104920000E944423C70104C0CE0102C080E090E091
:10493000CDB7DEB7EEE00C94AC27FB01DC0104C080
:104940008D910190801921F441505040C8F7881B87
:10495000990B0895FB01DC0102C001900D924150BA
:104960005040D8F70895FC018191861721F08823E3
:10497000D9F7992708953197CF010895FB01DC01FC
:1049800001900D920020E1F70895FB01DC014150F8
:10499000504048F001900D920020C9F701C01D92CF
:1049A00041505040E0F708954532510520F442301F
:1049B00010F00C94DF24FB011082CB010895BB277B
:1049C0004A3031F4992322F4BDE2909581959F4FAE
:1049D0000C940D25BB27FA01A62F621771058105DE
:1049E0009105330B30FB66F0AA27660F771F881FEF
:1049F000991FAA1FA21710F0A21B63953850A9F7A0
:104A0000A05DAA3308F0A95DA19336F7B111B19367
:104A10001082CA010C947C27BB27FB015527AA27CB
:104A2000880F991FAA1FA41710F0A41B839550513B
:104A3000B9F7A05DAA3308F0A95DA193009779F7B3
:104A4000B111B1931192CB010C947C276F927F929C
:104A50009F92AF92BF92CF92DF92EF92FF920F930D
:104A60001F93CF93DF93CDB7DEB729970FB6F89496
:104A7000DEBF0FBECDBF6A01B22E102F0C3320F463
:104A8000FF24F394F00E02C04CE3F42E0F2D27E028
:104A9000AE014F5F5F4F0E94A4267981272F2970B6
:104AA000213031F0E1FC06C0E0FC06C060E005C04A
:104AB0006DE203C06BE201C060E2AE2DA07173FF36
:104AC00036C0662311F084E001C083E08B1510F43A
:104AD000B81A01C0B12CA1110BC0F6018B2D90E2C8
:104AE000882319F091938150FBCFCB0CD11CB12CB2
:104AF000662331F0F601608396012F5F3F4F690115
:104B0000C6010396E2FE05C02EE4F601208331E4DF
:104B100004C02EE6F601208331E631832283FC01B6
:104B20002B2D30E22223F1F131932150FBCF72FF84
:104B300040C0662311F084E001C083E08B1510F4BF
:104B4000B81A01C0B12CA1110BC0F6018B2D90E257
:104B5000882319F091938150FBCFCB0CD11CB12C41
:104B6000662331F0F601608396012F5F3F4F6901A4
:104B7000C6010396E2FE07C029E4F60120832EE475
:104B8000218326E406C029E6F60120832EE6218350
:104B900026E62283FC012B2D30E2222319F03193EB
:104BA0002150FBCFFC01EB0DF11D10828EEF9FEF2A
:104BB000B7C0B1E0611101C0B0E04B2F50E0181652
:104BC000190624F49C012F5F3F4F02C021E030E022
:104BD000240F351F112329F0412F50E04F5F5F4F05
:104BE00002C040E050E0420F531F2B2D30E042172F
:104BF000530714F4B41A01C0B12C2E2D287159F4A6
:104C0000F6012B2D30E2222319F031932150FBCFF6
:104C1000CB0CD11CB12CBB2331F0F6016083960183
:104C20002F5F3F4F6901A1110BC0F6012B2D30E31F
:104C3000222319F031932150FBCFCB0CD11CB12C86
:104C4000F80E0A81372F3071A32E74FF03C0013391
:104C500009F4FA941F142CF42F2D293018F028E0B1
:104C600001C021E0682F392F97FF02C060E030E0DB
:104C7000462F532F612C712C3EE2932EBC01621BF8
:104C800071099B01DC01A41BB50BE1E0F0E0EC0F26
:104C9000FD1FAE0FBF1FE12EF12CF194E194F1083E
:104CA0004F3FFFEF5F0731F4F6019082B6016F5F6F
:104CB0007F4F6B01841795074CF02417350734F4A8
:104CC000BD01660D771DFB01118101C010E341504C
:104CD0005109FFEF6F1A7F0AB6016F5F7F4F4E15C4
:104CE0005F0524F0F60110836B01DACF48175907EE
:104CF00039F4063320F4053319F4A11001C011E38F
:104D0000F6011083FB018B2D90E2882319F091931B
:104D10008150FBCFFB01EB0DF11D108280E090E094
:104D200029960FB6F894DEBF0FBECDBFDF91CF91AD
:104D30001F910F91FF90EF90DF90CF90BF90AF90B9
:104D40009F907F906F900895283008F027E03327D8
:104D5000DA01990F311D87FD91600096610571059B
:104D600039F432602E5F3D9330E32A95E1F70895E0
:104D70009F3F30F080387105610509F03C5F3C5F72
:104D80003D93913008F08068911DDF93CF931F937E
:104D90000F93FF92EF92192F987F9695E92F969592
:104DA0009695E90FFF27EC5AFE4F99273327EE24FB
:104DB000FF24A701E70105900894079428F4360F13
:104DC000E71EF81E491F511D660F771F881F991F88
:104DD0000694A1F70590079428F4E70EF81E491FE2
:104DE000561FC11D770F881F991F661F0694A1F7D4
:104DF0000590079428F4F80E491F561FC71FD11DB0
:104E0000880F991F661F771F0694A1F705900794D6
:104E100020F4490F561FC71FD81F990F661F771F11
:104E2000881F0694A9F784911095177041F0D695C4
:104E3000C79557954795F794E7941A95C1F7EAEF08
:104E4000F0E06894159015913591659195910590D4
:104E50007FE27395E118F10A430B560BC90BD00999
:104E6000C0F7E10CF11E431F561FC91FD01D7EF471
:104E7000703311F48A95E6CFE894015030F0080FB2
:104E80000AF40027021708F4202F2395022F7A3303
:104E900028F079E37D932A95E9F710C07D932A9550
:104EA00089F6069497956795379517951794E118A5
:104EB000F10A430B560BC90BD00998F023957E914C
:104EC00073957A3308F070E37C932013B8F77E91E2
:104ED00070617D9330F0839571E37D9370E32A9543
:104EE000E1F71124EF90FF900F911F91CF91DF9187
:104EF000992787FD90950895DC01FC01672F71913A
:104F00007723E1F7329704C07C916D9370836291AF
:104F1000AE17BF07C8F308952F923F924F925F924A
:104F20006F927F928F929F92AF92BF92CF92DF92B9
:104F3000EF92FF920F931F93CF93DF93CDB7DEB71E
:104F4000CA1BDB0B0FB6F894DEBF0FBECDBF0994B2
:104F50002A88398848885F846E847D848C849B8409
:104F6000AA84B984C884DF80EE80FD800C811B8117
:104F7000AA81B981CE0FD11D0FB6F894DEBF0FBE46
:0A4F8000CDBFED010895F894FFCFB6
:104F8A0000004F058000FFFFFFFF0132313A323740
:104F9A003A353800466562202038203230313600F2
:104FAA003000302E002D39393939002C002D0020DF
:104FBA00003A00646174616C6F67312E7478740012
:104FCA0000000000660439040E041604290438049B
:104FDA0000000000EA09000ADB0A3A0A440A1B0A2E
:104FEA002F00000000002E17031F00000000F91D0B
:104FFA00031F7B1D941D861DD71D0D0A006E616E51
:0A500A0000696E66006F7666000014
:107E0000112484B714BE81FFF0D085E080938100F7
:107E100082E08093C00088E18093C10086E0809377
:107E2000C20080E18093C4008EE0C9D0259A86E02C
:107E300020E33CEF91E0309385002093840096BBD3
:107E4000B09BFECF1D9AA8958150A9F7CC24DD24C4
:107E500088248394B5E0AB2EA1E19A2EF3E0BF2EE7
:107E6000A2D0813461F49FD0082FAFD0023811F036
:107E7000013811F484E001C083E08DD089C08234E0
:107E800011F484E103C0853419F485E0A6D080C0E4
:107E9000853579F488D0E82EFF2485D0082F10E0AE
:107EA000102F00270E291F29000F111F8ED06801E7
:107EB0006FC0863521F484E090D080E0DECF843638
:107EC00009F040C070D06FD0082F6DD080E0C81688
:107ED00080E7D80618F4F601B7BEE895C0E0D1E017
:107EE00062D089930C17E1F7F0E0CF16F0E7DF06D8
:107EF00018F0F601B7BEE89568D007B600FCFDCFD4
:107F0000A601A0E0B1E02C9130E011968C91119780
:107F100090E0982F8827822B932B1296FA010C0160
:107F200087BEE89511244E5F5F4FF1E0A038BF0790
:107F300051F7F601A7BEE89507B600FCFDCF97BE46
:107F4000E89526C08437B1F42ED02DD0F82E2BD052
:107F50003CD0F601EF2C8F010F5F1F4F84911BD097
:107F6000EA94F801C1F70894C11CD11CFA94CF0C13
:107F7000D11C0EC0853739F428D08EE10CD085E9AC
:107F80000AD08FE07ACF813511F488E018D01DD067
:107F900080E101D065CF982F8091C00085FFFCCF94
:107FA0009093C60008958091C00087FFFCCF809118
:107FB000C00084FD01C0A8958091C6000895E0E648
:107FC000F0E098E1908380830895EDDF803219F02E
:107FD00088E0F5DFFFCF84E1DECF1F93182FE3DFCA
:107FE0001150E9F7F2DF1F91089580E0E8DFEE27F6
:047FF000FF270994CA
:027FFE00040479
:0400000300007E007B
:00000001FF
